:100000000C9473000C949B000C949B000C949B002C
:100010000C949B000C949B000C949B000C949B00F4
:100020000C949B000C949B000C9446060C945F0768
:100030000C949B000C9472070C949B000C949B00F6
:100040000C94FC050C949B000C9476040C945004C6
:100050000C949B000C949B000C949B000C949B00B4
:100060000C949B000C949B00C001C601CC01D201F2
:10007000D801DE01E40115031C0323032A03310325
:100080004803380348033F03000000002400270012
:100090002A0000000000250028002B0000000000BE
:1000A00023002600290004040404040404040202BA
:1000B00002020202030303030303010204081020E7
:1000C00040800102040810200102040810200000F2
:1000D0000008000201000003040700000000000007
:1000E00000003C10DF0B11241FBECFEFD8E0DEBFB5
:1000F000CDBF22E0A4E6B1E001C01D92AC3AB20748
:10010000E1F711E0A0E0B1E0EAE5FDE202C0059010
:100110000D92A436B107D9F710E0C2E7D0E004C0D1
:100120002197FE010E947F14C137D107C9F70E94B1
:10013000F40B0C94A0160C9400000895CF92DF925B
:10014000EF92FF920F931F93CF93DF936C017A018D
:100150008B01C0E0D0E0CE15DF0589F0D8016D91AC
:100160008D01D601ED91FC910190F081E02DC60149
:100170000995892B11F47E0102C02196ECCFC701AD
:10018000DF91CF911F910F91FF90EF90DF90CF9073
:100190000895089580E090E00895FC01538D448D0A
:1001A000252F30E0842F90E0821B930B541710F022
:1001B000CF96089501970895FC01918D828D98172F
:1001C00061F0828DDF01A80FB11D5D968C91928D3B
:1001D0009F5F9F73928F90E008958FEF9FEF089538
:1001E000FC01918D828D981731F0828DE80FF11D01
:1001F000858D90E008958FEF9FEF0895FC01918D1C
:10020000228D892F90E0805C9F4F821B91098F7314
:10021000992708958DE991E00E94FE0021E0892B45
:1002200009F420E0822F0895FC01848DDF01A80FDE
:10023000B11DA35ABF4F2C91848D90E001968F730E
:100240009927848FA689B7892C93A089B1898C912D
:1002500080648C93938D848D981306C00288F389F3
:10026000E02D80818F7D80830895EF92FF920F9320
:100270001F93CF93DF93EC0181E0888F9B8D8C8D52
:10028000981305C0E889F989808185FD24C0F62E80
:100290000B8D10E00F5F1F4F0F731127E02E8C8D19
:1002A000E8120CC00FB607FCFACFE889F989808103
:1002B00085FFF5CFCE010E941401F1CF8B8DFE0199
:1002C000E80FF11DE35AFF4FF0820B8FEA89FB899B
:1002D0008081806207C0EE89FF896083E889F9899F
:1002E00080818064808381E090E0DF91CF911F91D5
:1002F0000F91FF90EF900895CF93DF93EC01888DDD
:100300008823C9F0EA89FB89808185FD05C0A88919
:10031000B9898C9186FD0FC00FB607FCF5CF80819F
:1003200085FFF2CFA889B9898C9185FFEDCFCE01E9
:100330000E941401E7CFDF91CF91089580E090E013
:10034000892B29F00E940A0181110C940000089564
:10035000CF93DF934770552766277727FA013197A8
:10036000EC01A881B981E730F10520F4EC5CFF4F86
:100370000C947F141496ED91FC91159761E029C0BF
:100380001496ED91FC91159765E023C01496ED91BC
:10039000FC91159764E01DC01496ED91FC911597A2
:1003A00066E017C01496ED91FC91159762E011C0BC
:1003B0001496ED91FC9115976AE00BC01496ED919F
:1003C000FC91159768E005C01496ED91FC91159786
:1003D00069E0DF91CF910994CF93DF93EC01CB01DA
:1003E000BA0126E030E040E050E00E946014623044
:1003F00071058105910559F18CF46115710581052F
:100400009105F1F06130710581059105C1F5E88133
:10041000F9810480F581E02D65E02DC0643071051F
:100420008105910511F1D4F06530710581059105C3
:1004300031F5E881F9810480F581E02D66E01BC08B
:10044000E881F9810480F581E02D64E014C0E88141
:10045000F9810480F581E02D61E00DC0E881F9812A
:100460000480F581E02D63E006C0E881F981048015
:10047000F581E02D62E0CE01DF91CF910994DF910B
:10048000CF9108954370552766277727DC01ED91BA
:10049000FC910480F581E02D423051056105710524
:1004A00071F0433051056105710559F04130510536
:1004B0006105710511F065E005C066E003C06AE002
:1004C00001C069E00994CF93DF93EC01CB01BA013D
:1004D00023E030E040E050E00E946014613071059C
:1004E0008105910581F0623071058105910591F0DA
:1004F000672B682B692BC1F4E881F9810480F581B1
:10050000E02D64E00DC0E881F9810480F581E02DE3
:1005100061E006C0E881F9810480F581E02D62E0A8
:10052000CE01DF91CF910994DF91CF91089543706F
:10053000552766277727DC01ED91FC910480F58132
:10054000E02D423051056105710571F043305105D0
:100550006105710559F0413051056105710511F0D2
:1005600062E005C063E003C061E001C060E009949F
:10057000CF93DF93EC01E881F9810480F581E02DD0
:100580008A81811102C060E001C062E0CE0109955C
:10059000E881F9810480F581E02D8A81811102C012
:1005A00061E001C063E0CE0109958CA59DA5823074
:1005B000910538F0880F991F880F991F05970197AB
:1005C000F1F7E881F9810480F581E02D8A818111BC
:1005D00002C060E001C062E0CE01DF91CF910994DA
:1005E000CF93DF93EC0120E030E0A9016C897D8995
:1005F0008E899F890E94D91318161CF4E8A9F9A9BD
:1006000002C0EAA9FBA9DF91CF9109940F931F9330
:10061000DC011396EC910E2F10E009301105C0F5A6
:10062000F801E55CFF4F0C947F14DC01ED91FC9127
:100630000084F185E02D29C0DC01ED91FC9102845C
:10064000F385E02D22C0DC01ED91FC910484F58559
:10065000E02D1BC0DC01ED91FC910684F785E02DB7
:1006600014C0DC01ED91FC910088F189E02D0DC0F2
:10067000DC01ED91FC910288F389E02D06C0DC01DC
:10068000ED91FC910488F589E02D1F910F9109945B
:100690001F910F9108950F931F93CF93DF938C01B8
:1006A000EB01FC01808191810097B1F06881798133
:1006B0006115710579F0428153812C813D8142178A
:1006C000530740F00E9499168C819D81F801958313
:1006D000848313C00E941A1588819981F80191833F
:1006E00080838A819B81938382838C819D81958382
:1006F0008483198218821B821A821D821C82DF91D8
:10070000CF911F910F9108950F931F93CF93DF9374
:10071000EC0188819981009729F02A813B81261775
:10072000370788F48B016F5F7F4F0E94B2150097E7
:1007300061F0998388831B830A832C813D81232B5D
:1007400011F4FC01108281E001C080E0DF91CF91C3
:100750001F910F910895EF92FF920F931F93CF93E4
:10076000DF93EC017B018A01BA010E948403288196
:10077000398181110DC02115310519F0C9010E947F
:100780001A15198218821D821C821B821A8206C0C9
:100790001D830C83B701C9010E949916CE01DF9118
:1007A000CF911F910F91FF90EF900895FC0111825E
:1007B000108213821282158214826115710551F024
:1007C000FB0101900020E9F73197AF01461B570B61
:1007D0000C94AB030895BF92CF92DF92EF92FF92F9
:1007E0000F931F93CF93DF937C016B01EA01890183
:1007F0002417350720F48D2FE901042F182F64E406
:1008000071E0C7010E94D603D60114968D919C9188
:100810001597C817D907C8F58017910708F48C01F8
:10082000D601ED91FC911197E00FF11FB08010827D
:100830004D915C91BA016C0F7D1F6115710561F0DE
:10084000FB0101900020E9F73197AF01461B570BE0
:10085000C7010E94AB0313C0F7018081918100970B
:1008600011F00E941A15D70111961C921E9215962E
:100870001C921E92149713961C921E921297D601E8
:10088000ED91FC91E00FF11FB082C701DF91CF9194
:100890001F910F91FF90EF90DF90CF90BF90089540
:1008A0001F920F920FB60F9211242F933F934F93E5
:1008B0005F936F937F938F939F93AF93BF93EF93C8
:1008C000FF938DE991E00E941401FF91EF91BF9198
:1008D000AF919F918F917F916F915F914F913F91D8
:1008E0002F910F900FBE0F901F9018951F920F928F
:1008F0000FB60F9211242F938F939F93EF93FF9333
:10090000E091AD01F091AE018081E091B301F091F1
:10091000B40182FD12C090818091B6018F5F8F7308
:100920002091B701821751F0E091B601F0E0E35653
:10093000FE4F958F8093B60101C08081FF91EF91AA
:100940009F918F912F910F900FBE0F901F90189530
:10095000833081F028F4813099F08230A1F008953D
:100960008730A9F08830B9F08430D1F480918000CC
:100970008F7D03C0809180008F77809380000895E1
:1009800084B58F7702C084B58F7D84BD0895809132
:10099000B0008F7703C08091B0008F7D8093B0004E
:1009A00008951F93CF93DF93282F30E0F901E2538E
:1009B000FF4F8491F901E654FF4FD491F901EA55B4
:1009C000FF4FC491CC23C9F0162F81110E94A804B7
:1009D000EC2FF0E0EE0FFF1FEE56FF4FA591B49104
:1009E0008FB7F894111105C09C91ED2FE095E92384
:1009F00002C0EC91ED2BEC938FBFDF91CF911F9153
:100A00000895CF92DF92EF92FF920F931F93CF93AF
:100A1000DF93FC012381243041F0283031F0233072
:100A200031F0263021F012E003C014E001C013E0E1
:100A3000EC012896E12CF12CC62ED12C01E0C60148
:100A40000E2C02C0959587950A94E2F7688180FD87
:100A50006027FE01349780810E94D104FFEFEF1AD6
:100A6000FF0A2196E11658F3DF91CF911F910F9164
:100A7000FF90EF90DF90CF900895CF93DF9390E0B9
:100A8000FC01E654FF4F2491FC01EA55FF4F84918D
:100A9000882361F190E0880F991FFC01E857FF4F10
:100AA000C591D491FC01EE56FF4FA591B49161110F
:100AB00009C09FB7F8948881209582238883EC91A0
:100AC0002E230BC0623061F49FB7F8943881822FD7
:100AD000809583238883EC912E2B2C939FBF06C097
:100AE0008FB7F894E8812E2B28838FBFDF91CF91A9
:100AF0000895CF93DF93FC012381222359F1EC0168
:100B000061E084810E943D0561E08D810E943D0588
:100B10008B81843011F0883039F461E08E810E943D
:100B20003D0561E08F8106C0833011F0863021F4ED
:100B300061E08E810E943D058FA58F3F59F061E0F5
:100B40000E943D056EA581E068278FA5DF91CF91BA
:100B50000C94D104DF91CF910895CF93DF93FC01E2
:100B600023812223A9F0EC010190F081E02D048083
:100B7000F581E02D60E009958FA58F3F49F061E098
:100B80000E943D056EA58FA5DF91CF910C94D104F5
:100B9000DF91CF9108953FB7F894809171019091C2
:100BA0007201A0917301B091740126B5A89B05C094
:100BB0002F3F19F00196A11DB11D3FBFBA2FA92FDC
:100BC000982F8827820F911DA11DB11DBC01CD0159
:100BD00042E0660F771F881F991F4A95D1F7089545
:100BE0002FB7F89460916D0170916E0180916F0143
:100BF000909170012FBF08951F920F920FB60F9220
:100C000011242F933F938F939F93AF93BF93809122
:100C10006D0190916E01A0916F01B09170013091C2
:100C20006C0123E0230F2D3720F40196A11DB11D87
:100C300005C026E8230F0296A11DB11D20936C016B
:100C400080936D0190936E01A0936F01B09370013A
:100C50008091710190917201A0917301B091740122
:100C60000196A11DB11D8093710190937201A09313
:100C70007301B0937401BF91AF919F918F913F9198
:100C80002F910F900FBE0F901F9018951F920F92EB
:100C90000FB60F921124CF92DF92EF92FF920F9333
:100CA0001F932F933F934F935F936F937F938F93F4
:100CB0009F93AF93BF93EF93FF9320918600309162
:100CC0008700C9013091810020E42327209381000F
:100CD000B59A2091750130917601D901B09B05C07C
:100CE0008F3F0FE7900708F4C1C02091810026FFD5
:100CF000ADC020917701309178012115310509F4BB
:100D00004FC02130310509F054C0009168011091A5
:100D1000690120916A0130916B01409186015091E7
:100D200087016091880170918901480F591F6A1FDE
:100D30007B1F401B510B620B730B4093860150933A
:100D400087016093880170938901C0907901D090E8
:100D50007A01E0907B01F0907C0140917E015091FE
:100D60007F0160918001709181018C019D01041BC4
:100D7000150B260B370BC901B8010E946E119B01A0
:100D8000AC01C701B6010E9431130E94AA136093FF
:100D900064017093650180936601909367014CC074
:100DA00080937E0190937F01A0938001B093810195
:100DB00043C0009168011091690120916A0130914E
:100DC0006B0140918601509187016091880170917B
:100DD0008901480F591F6A1F7B1F401B510B620B73
:100DE000730B409386015093870160938801709341
:100DF0008901209177013091780127703327232BC7
:100E0000D9F400917E0110917F01209180013091F1
:100E1000810140916401509165016091660170917A
:100E200067016C017D01C01AD10AE20AF30AC416F7
:100E3000D506E606F706E8F48091770190917801EF
:100E40000196909378018093770122C09C01205CE9
:100E500033463093890020938800809368019093F3
:100E60006901A0936A01B0936B0112C0D901119678
:100E70003CCF8093820190938301A0938401B0932F
:100E8000850110926F0083E286BB81E080937D0133
:100E9000FF91EF91BF91AF919F918F917F916F9152
:100EA0005F914F913F912F911F910F91FF90EF9084
:100EB000DF90CF900F900FBE0F901F9018951F924C
:100EC0000F920FB60F9211248F9310926F0083E24E
:100ED00086BB82E080937D018F910F900FBE0F90B3
:100EE0001F9018951F920F920FB60F9211248F9397
:100EF0009F93809175019091760101969093760170
:100F0000809375019F918F910F900FBE0F901F904E
:100F100018952F923F924F925F926F927F928F928D
:100F20009F92AF92BF92CF92DF92EF92FF920F9378
:100F30001F93CF93DF9300D000D0CDB7DEB71C0155
:100F4000FC01C088D188E288F38884859585A685D0
:100F5000B785C81AD90AEA0AFB0A6489758986899D
:100F600097899B01AC010E94CF114B015C01F101FB
:100F7000648D758D868D978D9B01AC010E94C51285
:100F80009B01AC01C501B4010E9431130E94A3135F
:100F9000C114D104E104F104A1F4623071058105AA
:100FA00091050CF07CC0F10114A215A216A217A2A3
:100FB000148A158A168A178A14AA15AA16AA17AAB5
:100FC000FFC0F10104A915A926A937A91C141D0405
:100FD0001E041F0404F510161106120613064CF425
:100FE0006C157D058E059F055CF52281211157C08A
:100FF00027C0011511052105310509F450C06C15F4
:101000007D058E059F050CF04AC0F1018281882381
:1010100009F445C039C01016110612061306FCF477
:101020000027112798010C191D092E093F09601787
:1010300071078207930724F4F1012281222379F1B9
:101040009B01AC0188279927DC01821B930BA40B21
:10105000B50BF10184AB95ABA6ABB7AB20C00115C6
:10106000110521053105D9F08824992454018C18E3
:101070009D08AE08BF08681579058A059B057CF4B4
:10108000F101828181110BC0309520951095019559
:101090001F4F2F4F3F4F04AB15AB26AB37ABF101C2
:1010A00084A895A8A6A8B7A881149104A104B104A6
:1010B00091F480AD91ADA2ADB3AD84AF95AFA6AFC5
:1010C000B7AF81E01C141D041E041F040CF080E067
:1010D000F101828341C0F101C4ACD5ACE6ACF7AC00
:1010E000A7019601C701B6010E94C5122B013C0160
:1010F000C501B4010E94701120E030E040E850E4E6
:101100000E94CF1120E030E040E85FE30E94C5126A
:101110009B01AC01C301B2010E9431139B01AC01E0
:10112000C701B6010E94C4127B018C01F101E05C91
:10113000FF4F60807180C280D3809301A6010E941E
:10114000D913181614F073018601A701B801F10133
:1011500044AF55AF66AF77AFFFEF8F1A9F0AAF0A64
:10116000BF0AF10184AA95AAA6AAB7AA24AD35ADF3
:1011700046AD57ADCA01B90129833A834B835C83DD
:101180000E94AA13F10164A375A386A397A32981E2
:101190003A814B815C8160E074E284E799E40E94CB
:1011A0003113F101648B758B868B978B2281211112
:1011B00007C0DC01CB01B058848B958BA68BB78B15
:1011C0000F900F900F900F90DF91CF911F910F9183
:1011D000FF90EF90DF90CF90BF90AF909F908F9057
:1011E0007F906F905F904F903F902F9008954F9217
:1011F0005F926F927F928F929F92AF92BF92CF92A7
:10120000DF92EF92FF92CF93DF93EC016A017B01B3
:1012100020E030E0A901C701B6010E94691187FFF3
:1012200004C0F7FAF094F7F8F0948C8C9D8CAE8C97
:10123000BF8CA7019601C501B4010E9469118823E2
:1012400009F449C06CA97DA98EA99FA90E947011BB
:101250002B013C01A7019601C501B4010E94311385
:101260009B01AC01C301B2010E94CF110E94A313E4
:101270006CAB7DAB8EAB9FABA701960160E070E0DD
:1012800080E090E40E9431130E94E41326E53EE0E2
:101290004DE25FE30E94CF1120E034E244E759E4DD
:1012A0000E94CF1168AF79AF8AAF9BAFCC8EDD8E35
:1012B000EE8EFF8ECE01DF91CF91FF90EF90DF9009
:1012C000CF90BF90AF909F908F907F906F905F90E6
:1012D0004F900C948907DF91CF91FF90EF90DF90B2
:1012E000CF90BF90AF909F908F907F906F905F90C6
:1012F0004F900895009769F0FC0101900020E9F7F4
:101300003197AF01481B590BBC018DE991E00C945A
:101310009E0080E090E008950F931F930091740267
:101320001091750220917602309177020617170707
:101330002807390771F060937402709375028093E7
:1013400076029093770284E692E01F910F910C94BD
:1013500089071F910F910895CF92DF92EF92FF922C
:101360008091880290918902A0918A02B0918B02AB
:10137000892B8A2B8B2B09F452C00E94CB056B0161
:101380007C0180918C0290918D02A0918E02B0918F
:101390008F02B701A601481B590B6A0B7B0B80918A
:1013A000880290918902A0918A02B0918B0248171D
:1013B00059076A077B0798F12091660280917002B5
:1013C00090917102A0917202B0917302222321F0D8
:1013D0000196A11DB11D03C00197A109B109809318
:1013E000700290937102A0937202B09373024091C5
:1013F000700250917102609172027091730284E6E2
:1014000092E00E940603C0928C02D0928D02E0927C
:101410008E02F0928F0284E692E00E94890720E01B
:1014200030E0A901609178027091790280917A028E
:1014300090917B020E946911811118C081E0C090D7
:101440007402D0907502E0907602F090770240919D
:101450007002509171026091720270917302C41611
:10146000D506E606F70619F480E001C081E0FF909A
:10147000EF90DF90CF9008958F929F92AF92BF929E
:101480000F931F93CF93DF93CDB7DEB7A1970FB61E
:10149000F894DEBF0FBECDBF19A2423008F44AE077
:1014A0008E010F5D1F4F842E912CA12CB12CA50114
:1014B00094010E943E14E62FB901CA01015011099E
:1014C000EA3014F4E05D01C0E95CD801EC93232B11
:1014D000242B252B61F7C8010E947A09A1960FB62B
:1014E000F894DEBF0FBECDBFDF91CF911F910F915A
:1014F000BF90AF909F908F900895E0919D01F091E3
:101500009E010190F081E02D682F8DE991E0099412
:10151000CF92DF92EF92FF92CF93DF936C01990FFE
:10152000EE08FF08F7FE12C08DE20E947D0AEC0172
:1015300066277727CB016C197D098E099F094AE040
:101540000E943C0A7C01EC0EFD1E06C04AE0C70169
:10155000B6010E943C0A7C0182E491E00E947A0973
:101560008E0D9F1DDF91CF91FF90EF90DF90CF9078
:101570000895CF92DF92EF92FF9220E030E048ECA6
:1015800052E460917C0270917D0280917E02909184
:101590007F020E946911882309F457C080E090E01F
:1015A000A8ECB2E480937C0290937D02A0937E022B
:1015B000B0937F0280E090E4ACE1B6E48093A402B3
:1015C0009093A502A093A602B093A70280919802DF
:1015D00090919902A0919A02B0919B021816190657
:1015E0001A061B0694F56091780270917902809139
:1015F0007A0290917B029B01AC010E94CF116B019A
:101600007C016091800270918102809182029091B0
:1016100083029B01AC010E94C5129B01AC01C70172
:10162000B6010E9431130E94A31360939802709335
:10163000990280939A0290939B0284E692E0FF9035
:10164000EF90DF90CF900C948907FF90EF90DF90A0
:10165000CF900895CF93DF93E8EDF0E08491E4EC30
:10166000F0E0D491E0EBF0E0C491CC2391F0811153
:101670000E94A804EC2FF0E0EE0FFF1FE456FF4F8E
:10168000A591B491EC91ED2381E090E021F480E00C
:1016900002C080E090E0DF91CF9108958F929F92F9
:1016A000AF92BF92CF92DF92EF92FF920E94CB0552
:1016B0004B015C0185E0C82ED12CE12CF12C0E945D
:1016C000CB05DC01CB0188199909AA09BB09883E21
:1016D0009340A105B10558F021E0C21AD108E108F4
:1016E000F10888EE880E83E0981EA11CB11CC1147D
:1016F000D104E104F10419F7FF90EF90DF90CF904F
:10170000BF90AF909F908F9008950F931F930E946A
:10171000F0056093A5017093A6018093A7019093B3
:10172000A801E0919D01F0919E010284F385E02DD6
:101730008DE991E0099597FF1FC00E94F005009187
:10174000A5011091A6012091A7013091A801DC010B
:10175000CB01801B910BA20BB30B0091A101109147
:10176000A2012091A3013091A40180179107A20743
:10177000B307B8F28FEF9FEF1F910F910895FC010F
:1017800080913E0290913F02892B21F421E0309715
:1017900049F413C080913A0290913B02309731F4A2
:1017A00021E0FC018081882341F006C0BF010E9436
:1017B000901621E0892B09F020E0822F0895CF9325
:1017C000DF93CEE5D2E02697888199810E941A1591
:1017D00082E0CA33D807B9F780915E0290915F0228
:1017E000DF91CF910C941A15CF93DF93CDB7DEB76D
:1017F0002E970FB6F894DEBF0FBECDBF789484B598
:10180000826084BD84B5816084BD85B5826085BDFC
:1018100085B5816085BD80916E00816080936E008A
:10182000109281008091810082608093810080917C
:10183000810081608093810080918000816080932D
:1018400080008091B10084608093B1008091B000ED
:1018500081608093B00080917A00846080937A00E8
:1018600080917A00826080937A0080917A00816012
:1018700080937A0080917A00806880937A00109239
:10188000C100E091AD01F091AE0182E08083E09172
:10189000A901F091AA011082E091AB01F091AC0195
:1018A00080E180831092B501E091B101F091B20125
:1018B00086E08083E091AF01F091B001808180618A
:1018C0008083E091AF01F091B001808188608083D6
:1018D000E091AF01F091B001808180688083E09158
:1018E000AF01F091B00180818F7D808362E08AE05A
:1018F0000E943D0590E4292E9CE9392E8E010F5F50
:101900001F4F0E94F0056093990170939A01809394
:101910009B0190939C01C0909501D0909601E0901E
:101920009701F0909801DC01CB018C199D09AE095B
:10193000BF09883E9340A105B1050CF4C2C0C09018
:101940009101D0909201E0909301F090940120E0F9
:1019500030E0A901C701B6010E946911882309F48A
:10196000B0C0A7019601C701B6010E9424148823C4
:1019700019F086E391E01AC026013701E89477F860
:101980002FEF3FEF4FE75FE7C301B2010E9424143E
:1019900081110FC02FEF3FEF4FE75FE7C301B201A7
:1019A0000E94691118162CF48AE391E00E947A09CA
:1019B00072C02FEF3FEF4FE75FE4C701B6010E940F
:1019C000D91318161CF48EE391E0F0CF2FEF3FEF00
:1019D0004FE75FECC701B6010E94691187FDF3CFA5
:1019E00020E030E0A901C701B6010E94691187FF1C
:1019F00007C08DE20E947D0AF7FAF094F7F8F094A0
:101A00002AE037ED43EA5BE3C701B6010E94C51245
:101A10002B013C010E94AA136B017C010E946E11F4
:101A20009B01AC01C301B2010E94C4122B013C0115
:101A30004AE0C701B6010E943C0A8EE20E947D0A7C
:101A400020E030E040E251E4C301B2010E94CF1136
:101A50006B017C010E94AA132B01612C712C4AE0BE
:101A6000C301B2010E943C0AC301B2010E946E117F
:101A70009B01AC01C701B6010E94C41220E030E016
:101A800040E251E40E94CF110E94AA1380E090E04E
:101A90004AE00E943C0A82E491E00E947A09109296
:101AA00091011092920110929301109294010E9460
:101AB000F005609395017093960180939701909340
:101AC00098018091990190919A01A0919B01B09108
:101AD0009C0140918D0150918E0160918F01709118
:101AE0009001841B950BA60BB70B843F9140A10579
:101AF000B1050CF4A0C08AE899EAA6ECBFE4809393
:101B0000790190937A01A0937B01B0937C011092AC
:101B10007D01109278011092770110928601109247
:101B2000870110928801109289011092760110921B
:101B30007501109280001092810010928500109221
:101B40008400309289002092880091E49093810073
:101B5000A3E2A6BBA0936F0080917D01813069F064
:101B6000D8F3823009F05DC085E491E00E947A09E3
:101B700082E491E00E947A0954C0609186017091DC
:101B800087018091880190918901C0908201D09055
:101B90008301E0908401F090850180907E01909017
:101BA0007F01A0908001B09081010E946E112B01F5
:101BB0003C01C701B601681979098A099B090E948D
:101BC0006E119B01AC01C301B2010E9431136B0184
:101BD0007C019B01AC010E94CF112DE33AE047EB61
:101BE0005FEB0E94CF112B013C012CE53FE846E55D
:101BF00053E4C701B6010E94CF119B01AC01C301A0
:101C0000B2010E94C51223E333E349E852E40E9483
:101C1000C412609391017093920180939301909309
:101C200094010E94F00560938D0170938E01809362
:101C30008F01909390018DE991E00E94FE001816AB
:101C400019060CF016C264E471E0C8010E94D603C4
:101C50000E94850B97FD1EC08A309105D9F08F83B5
:101C60001886ED80FE80BFEFEB1AFB0AB701C801B2
:101C70000E948403882361F329813A818D819E81AA
:101C8000BE01695F7F4F820F931F0E949916FE82EB
:101C9000ED82DECFB8018EE592E00E944B03898190
:101CA0009A810E941A1518861F821A8619861C8628
:101CB0001B8660915E0270915F026115710541F0B3
:101CC0004091620250916302CE0107960E94AB03DD
:101CD00040E050E0E12CF12C8B849C8448155905A0
:101CE00098F46F8078846AE370E0C301840F951FD5
:101CF0004D875E870E9485164D855E85009721F091
:101D00006C01C618D70803C0CC24CA94DC2CCA01C5
:101D100001968C159D0524F59601BE01695F7F4FE4
:101D2000C8010E94EB0326E02E9DC0012F9D900D5F
:101D30001124865C9D4F8017910719F0B8010E940D
:101D40004B0389819A810E941A158FEFE81AF80ACD
:101D500096E0E916F10434F5A6014F5F5F4FBCCF62
:101D6000D7FEBACFA6E0EA16F104E4F49401BE016E
:101D7000695F7F4FC8010E94EB03B6E0BE9DC001C2
:101D8000BF9D900D1124865C9D4F8017910719F01F
:101D9000B8010E944B0389819A810E941A152FEF86
:101DA000E21AF20AF0928C01E0928B018F81988501
:101DB0000E941A158FE491E00E94BF0B882341F026
:101DC00082E591E00E947A090E942A0B0E94880A0B
:101DD00086E591E00E94BF0B882309F4E6C080915C
:101DE000400290914102009719F00E942D1103C00A
:101DF00060E070E0CB017B010E94B90A40E050E056
:101E000068EC72E484E692E00E94F7080E942A0BD4
:101E1000892BF1F040900001509001016090020187
:101E200070900301C301B2010E948C098FEF481A20
:101E3000580A680A780A40920001509201016092A3
:101E40000201709203010E94AC090E944E0BDECF8A
:101E5000109270021092710210927202109273022C
:101E6000109274021092750210927602109277020C
:101E7000109298021092990210929A0210929B026C
:101E8000109288021092890210928A0210928B029C
:101E9000109278021092790210927A0210927B02CC
:101EA0000E94B90A40E050E068EC72E484E692E0F7
:101EB0000E94F70881E090E0A0E0B0E0809300018C
:101EC00090930101A0930201B09303010E942A0B99
:101ED000892B11F56091000170910101809102013F
:101EE000909103010E948C090E94AC09809100012D
:101EF00090910101A0910201B09103010197A10904
:101F0000B1098093000190930101A0930201B09365
:101F100003010E944E0BDACFB701FF0C880B990B1F
:101F20000E948C0940917402509175026091760272
:101F3000709177028091700290917102A09172026B
:101F4000B0917302481759076A077B0719F00E947E
:101F5000AC09E8CF109270021092710210927202D6
:101F6000109273021092740210927502109276020F
:101F700010927702109298021092990210929A028F
:101F800010929B02109288021092890210928A028B
:101F900010928B02109278021092790210927A02BB
:101FA00010927B0291E090938A018AE591E00E9471
:101FB000BF0B8823F1F1809140029091410200977C
:101FC00029F00E942D116B017C0103C0C12CD12C82
:101FD00076010E94B90A40E050E068EC72E484E6C1
:101FE00092E00E94F70880918A018823F1F0B601FF
:101FF000DD0C880B990B0E948C0940917402509162
:1020000075026091760270917702809170029091D2
:102010007102A0917202B0917302481759076A07C2
:102020007B0739F00E94AC09E8CF84E695E60E9470
:10203000880A8FE591E00E94BF0B8823D1F0809140
:10204000400290914102009719F00E942D1103C0A7
:1020500060E070E0CB0120918A01222351F0072E2D
:10206000000C880B990B0E948C090E94AC0981110D
:10207000FCCF0E949E0145CCCF93DF931092A0012C
:1020800010929F0188EE93E0A0E0B0E08093A10160
:102090009093A201A093A301B093A4018EE091E0DC
:1020A00090939E0180939D0185EC90E09093AA010E
:1020B0008093A90184EC90E09093AC018093AB01F4
:1020C00080EC90E09093AE018093AD0181EC90E0C4
:1020D0009093B0018093AF0182EC90E09093B201B5
:1020E0008093B10186EC90E09093B4018093B301AA
:1020F0001092B6011092B7011092B8011092B90176
:1021000080E291E0909365028093640281E0809385
:102110006702109270021092710210927202109275
:10212000730210927402109275021092760210924D
:102130007702109278021092790210927A0210922D
:102140007B0280E090E0A0E8BFE380937C02909364
:102150007D02A0937E02B0937F02109280021092C3
:1021600081021092820210928302809384029093E3
:102170008502A0938602B093870210928802109283
:10218000890210928A0210928B0221E030E0309393
:102190009102209390022FEF2093930210928C02D1
:1021A00010928D0210928E0210928F022BE02093DB
:1021B00068022CE02093690224E020936A0225E063
:1021C00020936B02109298021092990210929A0238
:1021D00010929B0210929C0210929D0210929E02FD
:1021E00010929F021092A0021092A1021092A202DD
:1021F0001092A3028093A4029093A502A093A6023A
:10220000B093A7021092660210926C0210926D02B7
:1022100010926E0210926F0284E692E00E9479059D
:1022200040E050E060E87FE384E692E00E94F70837
:1022300064E471E08EE592E00E94D603CAE3D2E046
:1022400064E471E0CE010E94D603269682E0CE358A
:10225000D807B1F7DF91CF9108951F93FC0199271B
:102260008827BC01E89411911032E9F3193010F07D
:102270001E30C8F31B3251F01D3249F4689406C079
:102280000E945411610F711D811D911D11911053F8
:102290001A30B0F33EF490958095709561957F4F1C
:1022A0008F4F9F4F1F910895592F482F372F262F5B
:1022B000660F771F881F991F660F771F881F991F4A
:1022C000620F731F841F951F660F771F881F991F4A
:1022D00008950E94AB1108F481E00895E89409C0C4
:1022E00097FB3EF490958095709561957F4F8F4F49
:1022F0009F4F9923A9F0F92F96E9BB279395F6955F
:10230000879577956795B795F111F8CFFAF4BB0FDC
:1023100011F460FF1BC06F5F7F4F8F4F9F4F16C040
:10232000882311F096E911C0772321F09EE8872FCA
:10233000762F05C0662371F096E8862F70E060E086
:102340002AF09A95660F771F881FDAF7880F9695FF
:10235000879597F90895990F0008550FAA0BE0E8A3
:10236000FEEF16161706E807F907C0F01216130657
:10237000E407F50798F0621B730B840B950B39F497
:102380000A2661F0232B242B252B21F408950A26FD
:1023900009F4A140A6958FEF811D811D08950E942B
:1023A000E2110C9453120E94451238F00E944C1214
:1023B00020F0952311F00C943C120C94421211243D
:1023C0000C9487120E94641270F3959FC1F3950FCD
:1023D00050E0551F629FF001729FBB27F00DB11DA9
:1023E000639FAA27F00DB11DAA1F649F6627B00D39
:1023F000A11D661F829F2227B00DA11D621F739F22
:10240000B00DA11D621F839FA00D611D221F749F2F
:102410003327A00D611D231F849F600D211D822F76
:10242000762F6A2F11249F5750409AF0F1F088239D
:102430004AF0EE0FFF1FBB1F661F771F881F9150CA
:102440005040A9F79E3F510580F00C943C120C942B
:1024500087125F3FE4F3983ED4F3869577956795AE
:10246000B795F795E7959F5FC1F7FE2B880F911DF4
:102470009695879597F9089597F99F6780E870E09A
:1024800060E008959FEF80EC089500240A941616EA
:10249000170618060906089500240A941216130652
:1024A000140605060895092E0394000C11F48823E0
:1024B00052F0BB0F40F4BF2B11F460FF04C06F5FFC
:1024C0007F4F8F4F9F4F089557FD9058440F551FD2
:1024D00059F05F3F71F04795880F97FB991F61F0A6
:1024E0009F3F79F087950895121613061406551F1D
:1024F000F2CF4695F1DF08C0161617061806991F89
:10250000F1CF86957105610508940895E894BB277D
:1025100066277727CB0197F908952F923F924F9224
:102520005F926F927F928F929F92AF92BF92CF9263
:10253000DF92EF92FF920F931F93CF93DF93CDB76C
:10254000DEB7CA1BDB0B0FB6F894DEBF0FBECDBFE4
:1025500009942A88398848885F846E847D848C84B5
:102560009B84AA84B984C884DF80EE80FD800C81BE
:102570001B81AA81B981CE0FD11D0FB6F894DEBFA1
:102580000FBECDBFED0108955058BB27AA270E946A
:10259000DC120C9453120E94451238F00E944C1227
:1025A00020F039F49F3F19F426F40C9442120EF4F3
:1025B000E095E7FB0C943C12E92F0E94641258F35B
:1025C000BA17620773078407950720F079F4A6F518
:1025D0000C9486120EF4E0950B2EBA2FA02D0B0151
:1025E000B90190010C01CA01A0011124FF27591B58
:1025F00099F0593F50F4503E68F11A16F040A22F5E
:10260000232F342F4427585FF3CF469537952795CE
:10261000A795F0405395C9F77EF41F16BA0B620BCD
:10262000730B840BBAF09150A1F0FF0FBB1F661F14
:10263000771F881FC2F70EC0BA0F621F731F841F57
:1026400048F4879577956795B795F7959E3F08F07D
:10265000B0CF9395880F08F09927EE0F979587953F
:1026600008950E9445130C9453120E944C1258F086
:102670000E94451240F029F45F3F29F00C943C126F
:1026800051110C9487120C9442120E94641268F348
:102690009923B1F3552391F3951B550BBB27AA271B
:1026A00062177307840738F09F5F5F4F220F331F55
:1026B000441FAA1FA9F335D00E2E3AF0E0E832D01D
:1026C00091505040E695001CCAF72BD0FE2F29D020
:1026D000660F771F881FBB1F261737074807AB07F2
:1026E000B0E809F0BB0B802DBF01FF2793585F4F67
:1026F0003AF09E3F510578F00C943C120C948712EE
:102700005F3FE4F3983ED4F3869577956795B79548
:10271000F7959F5FC9F7880F911D9695879597F953
:102720000895E1E0660F771F881FBB1F62177307CC
:102730008407BA0720F0621B730B840BBA0BEE1FE1
:1027400088F7E09508950E94AA136894B1110C943B
:10275000871208950E946C1288F09F5798F0B92F45
:102760009927B751B0F0E1F0660F771F881F991FC6
:102770001AF0BA95C9F714C0B13091F00E948612D0
:10278000B1E008950C948612672F782F8827B85FE0
:1027900039F0B93FCCF3869577956795B395D9F71E
:1027A0003EF490958095709561957F4F8F4F9F4F28
:1027B00008950E94AB1108F48FEF089519F416F4F0
:1027C0000C9442120C9429140E946C12B8F39923B1
:1027D000C9F3B6F39F57550B87FF0E9437140024A7
:1027E000A0E640EA900180585695979528F4805CC1
:1027F000660F771F881F20F026173707480730F429
:10280000621B730B840B202931294A2BA695179440
:102810000794202531254A2758F7660F771F881F10
:1028200020F026173707480730F4620B730B840B30
:10283000200D311D411DA09581F7B901842F9158BC
:10284000880F9695879508950E94AB11880B990B78
:1028500008959F3F31F0915020F4879577956795C3
:10286000B795880F911D9695879597F90895915082
:102870005040660F771F881FD2F70895A1E21A2EE5
:10288000AA1BBB1BFD010DC0AA1FBB1FEE1FFF1F14
:10289000A217B307E407F50720F0A21BB30BE40B64
:1028A000F50B661F771F881F991F1A9469F76095AB
:1028B0007095809590959B01AC01BD01CF01089565
:1028C000052E97FB1EF400940E94771457FD07D045
:1028D0000E943E1407FC03D04EF40C9477145095DC
:1028E0004095309521953F4F4F4F5F4F08959095FC
:1028F0008095709561957F4F8F4F9F4F0895EE0F94
:10290000FF1F0590F491E02D0994CF93DF9382305F
:10291000910510F482E090E0E091AA02F091AB0200
:1029200020E030E0C0E0D0E0309711F140815181EB
:1029300048175907C0F04817590761F482819381FD
:10294000209719F09B838A832BC09093AB028093CE
:10295000AA0226C02115310519F04217530718F4B1
:102960009A01BE01DF01EF010280F381E02DDCCF8F
:102970002115310509F1281B390B2430310590F45C
:1029800012968D919C9113976115710521F0FB01B1
:102990009383828304C09093AB028093AA02FD01CB
:1029A000329644C0FD01E20FF31F819391932250B0
:1029B00031092D933C933AC02091A8023091A9028D
:1029C000232B41F420910601309107013093A90295
:1029D0002093A802209104013091050121153105B1
:1029E00041F42DB73EB74091080150910901241BD5
:1029F000350BE091A802F091A902E217F307A0F4C9
:102A00002E1B3F0B2817390778F0AC014E5F5F4F44
:102A10002417350748F04E0F5F1F5093A9024093CB
:102A2000A8028193919302C0E0E0F0E0CF01DF9132
:102A3000CF9108950F931F93CF93DF93009709F4DD
:102A40008CC0FC013297138212820091AA0210916D
:102A5000AB020115110581F420813181820F931F92
:102A60002091A8023091A9022817390779F5F0932F
:102A7000A902E093A80271C0D80140E050E0AE176F
:102A8000BF0750F412962D913C911397AD0121157B
:102A9000310509F1D901F3CF9D01DA013383228396
:102AA00060817181860F971F8217930769F4EC018B
:102AB00028813981260F371F2E5F3F4F31832083B6
:102AC0008A819B8193838283452B29F4F093AB0207
:102AD000E093AA0242C01396FC93EE931297ED0185
:102AE000499159919E01240F351FE217F30771F4A4
:102AF00080819181840F951F029611969C938E93ED
:102B00008281938113969C938E931297E0E0F0E07C
:102B1000D80112968D919C911397009719F0F801A6
:102B20008C01F6CF8D919C9198012E5F3F4F820FC3
:102B3000931F2091A8023091A9022817390769F440
:102B4000309729F41092AB021092AA0202C01382AD
:102B500012821093A9020093A802DF91CF911F91D6
:102B60000F910895A0E0B0E0E8EBF5E10C9491122C
:102B7000EC01009721F4CB010E948514B8C0FC0140
:102B8000E60FF71F9C0122503109E217F30708F402
:102B9000ACC0D9010D911C91119706171707B0F021
:102BA0000530110508F49FC0C801049786179707E0
:102BB00008F499C002501109061B170B01931193D9
:102BC0006D937C93CF010E941A158DC05B01A01AF2
:102BD000B10A4C01800E911EA091AA02B091AB02E5
:102BE00040E050E0E12CF12C109709F44AC0A81500
:102BF000B905D1F56D907C901197630182E0C80E04
:102C0000D11CCA14DB0480F1A3014A195B096A01D3
:102C100082E0C80ED11C1296BC9012971396AC910C
:102C2000B5E0CB16D10440F0B282A3835183408338
:102C3000D9016D937C930AC00E5F1F4FC301800FB3
:102C4000911FF90191838083EB2DFA2FE114F10498
:102C500031F0D7011396FC93EE93129744C0F09392
:102C6000AB02E093AA023FC08D919C911197481747
:102C7000590708F4AC017D0112960D90BC91A02D6E
:102C8000B3CF8091A8029091A90288159905E1F42B
:102C900046175707C8F480910401909105010097E9
:102CA00041F48DB79EB74091080150910901841BF2
:102CB000950BE817F907C8F4F093A902E093A8026E
:102CC000F901718360830FC0CB010E9485147C01E0
:102CD000009759F0A801BE010E947C16CE010E9407
:102CE0001A15C70104C0CE0102C080E090E0CDB744
:102CF000DEB7EEE00C94AD12FB01DC0102C00190E6
:102D00000D9241505040D8F70895FC0181918617EB
:102D100021F08823D9F7992708953197CF01089595
:102D2000FB01DC018D91019080190110D9F3990B01
:102D30000895FB01DC0101900D920020E1F7089558
:102D400010E0C2E7D0E004C0FE010E947F1421968B
:0A2D5000C337D107C9F7F894FFCF8D
:102D5A00FFFFFFFF0000AC02800000000000350109
:102D6A009E00CD007C01FE00DC00F00000000000A7
:102D7A00AD05790501050603F002B8029702630260
:102D8A004202EC01A8016E616E00696E66006F7600
:102D9A0066000D0A006E6F2073656E736F720065B0
:102DAA00730065733A0063616C006D6F766500703D
:042DBA006F73000033
:00000001FF
