:100000000C9473000C949B000C949B000C949B002C
:100010000C949B000C949B000C949B000C949B00F4
:100020000C949B000C949B000C942F050C9446069A
:100030000C949B000C9459060C949B000C949B0010
:100040000C94C4000C949B000C94FD040C94D704F5
:100050000C949B000C949B000C949B000C949B00B4
:100060000C949B000C949B0036023C024202480216
:100070004E0254025A028B0392039903A003A70372
:10008000BE03AE03BE03B50300000000240027003A
:100090002A0000000000250028002B0000000000BE
:1000A00023002600290004040404040404040202BA
:1000B00002020202030303030303010204081020E7
:1000C00040800102040810200102040810200000F2
:1000D0000008000201000003040700000000000007
:1000E0000000D311BE1111241FBECFEFD8E0DEBF38
:1000F000CDBF22E0A4E6B1E001C01D92A73AB2074D
:10010000E1F711E0A0E0B1E0EAE6F0E302C005901B
:100110000D92A436B107D9F710E0C2E7D0E004C0D1
:100120002197FE010E941216C137D107C9F70E941C
:10013000B00C0C9428180C9400000E94FF173FB7D5
:10014000F8948091880190918901A0918A01B091E1
:100150008B0126B5A89B05C02F3F19F00196A11D64
:10016000B11D3FBFBA2FA92F982F8827820F911D4D
:10017000A11DB11DBC01CD0142E0660F771F881F94
:10018000991F4A95D1F708951F920F920FB60F92BB
:1001900011242F933F938F939F93AF93BF9380919D
:1001A000940190919501A0919601B09197013091A1
:1001B000870123E0230F2D3720F40196A11DB11DE7
:1001C00005C026E8230F0296A11DB11D20938701CB
:1001D0008093940190939501A0939601B093970119
:1001E0008091880190918901A0918A01B0918B0141
:1001F0000196A11DB11D8093880190938901A09360
:100200008A01B0938B01BF91AF919F918F913F91E4
:100210002F910F900FBE0F901F9018950895CF92B9
:10022000DF92EF92FF920F931F93CF93DF936C01B6
:100230007A018B01C0E0D0E0CE15DF0581F0D80156
:100240006D918D01D601ED91FC910190F081E02D31
:10025000C6010995892B11F02196EECF7E01C701C9
:10026000DF91CF911F910F91FF90EF90DF90CF9092
:10027000089580E090E00895FC01538D448D252F72
:1002800030E0842F90E0821B930B541710F0CF9630
:10029000089501970895FC01918D828D981761F062
:1002A000828DDF01A80FB11D5D968C91928D9F5FAD
:1002B0009F73928F90E008958FEF9FEF0895FC0158
:1002C000918D828D981731F0828DE80FF11D858D0B
:1002D00090E008958FEF9FEF0895FC01918D228D9E
:1002E000892F90E0805C9F4F821B91098F73992723
:1002F000089588E991E00E946D0121E0892B09F4BD
:1003000020E0822F0895FC01848DDF01A80FB11D2C
:10031000A35ABF4F2C91848D90E001968F7399273B
:10032000848FA689B7892C93A089B1898C91837019
:1003300080648C93938D848D981306C00288F38912
:10034000E02D80818F7D80830895EF92FF920F933F
:100350001F93CF93DF93EC0181E0888F9B8D8C8D71
:10036000981305C0E889F989808185FD26C0F62E9D
:100370000B8D10E00F5F1F4F0F731127E02E8C8D38
:10038000E8120CC00FB607FCFACFE889F989808122
:1003900085FFF5CFCE010E948301F1CF8B8DFE0149
:1003A000E80FF11DE35AFF4FF0829FB7F8940B8FCF
:1003B000EA89FB89808180620AC09FB7F894EE8940
:1003C000FF896083E889F9898081837080648083F4
:1003D0009FBF81E090E0DF91CF911F910F91FF903F
:1003E000EF900895CF93DF93EC01888D8823C9F0B7
:1003F000EA89FB89808185FD05C0A889B9898C912E
:1004000086FD0FC00FB607FCF5CF808185FFF2CFC8
:10041000A889B9898C9185FFEDCFCE010E94830117
:10042000E7CFDF91CF91089580E090E0892B29F00C
:100430000E94790181110C9400000895CF93DF93FD
:100440004770552766277727FA013197EC01A88175
:10045000B981E730F10520F4EC5CFF4F0C941216E3
:100460001496ED91FC91159761E029C01496ED91D9
:10047000FC91159765E023C01496ED91FC911597BA
:1004800064E01DC01496ED91FC91159766E017C0CD
:100490001496ED91FC91159762E011C01496ED91C0
:1004A000FC9115976AE00BC01496ED91FC9115979D
:1004B00068E005C01496ED91FC91159769E0DF9115
:1004C000CF910994CF93DF93EC01CB01BA0126E0E1
:1004D00030E040E050E00E94F31562307105810584
:1004E000910559F18CF46115710581059105F1F0C3
:1004F0006130710581059105C1F5E881F9810480BC
:10050000F581E02D65E02DC0643071058105910510
:1005100011F1D4F0653071058105910531F5E8815F
:10052000F9810480F581E02D66E01BC0E881F98146
:100530000480F581E02D64E014C0E881F981048035
:10054000F581E02D61E00DC0E881F9810480F5813D
:10055000E02D63E006C0E881F9810480F581E02D9B
:1005600062E0CE01DF91CF910994DF91CF910895A0
:100570004370552766277727DC01ED91FC910480B5
:10058000F581E02D423051056105710571F0433070
:1005900051056105710559F041305105610571053D
:1005A00011F065E005C066E003C06AE001C069E0E3
:1005B0000994CF93DF93EC01CB01BA0123E030E043
:1005C00040E050E00E94F31561307105810591050E
:1005D00081F0623071058105910591F0672B682BE0
:1005E000692BC1F4E881F9810480F581E02D64E094
:1005F0000DC0E881F9810480F581E02D61E006C03D
:10060000E881F9810480F581E02D62E0CE01DF917F
:10061000CF910994DF91CF910895437055276627B4
:100620007727DC01ED91FC910480F581E02D4230CB
:1006300051056105710571F0433051056105710582
:1006400059F0413051056105710511F062E005C0B6
:1006500063E003C061E001C060E00994CF93DF93E1
:10066000EC01E881F9810480F581E02D8A81811116
:1006700002C060E001C062E0CE010995E881F98125
:100680000480F581E02D8A81811102C061E001C002
:1006900063E0CE0109958CA59DA58230910538F0C7
:1006A000880F991F880F991F05970197F1F7E88127
:1006B000F9810480F581E02D8A81811102C060E01A
:1006C00001C062E0CE01DF91CF910994CF93DF9317
:1006D000EC0120E030E0A9016C897D898E899F8939
:1006E0000E946C1518161CF4E8A9F9A902C0EAA921
:1006F000FBA9DF91CF9109940F931F93DC0113960F
:10070000EC910E2F10E009301105C0F5F801E55C01
:10071000FF4F0C941216DC01ED91FC910084F185E1
:10072000E02D29C0DC01ED91FC910284F385E02DE0
:1007300022C0DC01ED91FC910484F585E02D1BC005
:10074000DC01ED91FC910684F785E02D14C0DC01FD
:10075000ED91FC910088F189E02D0DC0DC01ED9157
:10076000FC910288F389E02D06C0DC01ED91FC913B
:100770000488F589E02D1F910F9109941F910F9125
:100780000895CF92DF92EF92FF920F931F93CF9332
:10079000DF93EC019B81943041F0983031F093303D
:1007A00031F0963021F012E003C014E001C013E0F4
:1007B0002496E12CF12CC62ED12C01E0C6010E2C82
:1007C00002C0959587950A94E2F76C8180FD6027B9
:1007D00089910E94450C8FEFE81AF80AE11670F330
:1007E000DF91CF911F910F91FF90EF90DF90CF900D
:1007F0000895CF93DF93FC012381222359F1EC016B
:1008000061E084810E94740C61E08D810E94740C0F
:100810008B81843011F0883039F461E08E810E9440
:10082000740C61E08F8106C0833011F0863021F4B2
:1008300061E08E810E94740C8FA58F3F59F061E0BA
:100840000E94740C6EA581E068278FA5DF91CF917F
:100850000C94450CDF91CF910895CF93DF93FC0169
:1008600023812223A9F0EC010190F081E02D048086
:10087000F581E02D60E009958FA58F3F49F061E09B
:100880000E94740C6EA58FA5DF91CF910C94450C3E
:10089000DF91CF9108950F931F93CF93DF938C0136
:1008A000EB01FC0180819181009739F068817981A9
:1008B00061157105A1F40E94B01688819981F80133
:1008C000918380838A819B81938382838C819D81A4
:1008D00095838483198218821B821A820FC0F801C3
:1008E000428153812C813D814217530720F30E949E
:1008F00021188C819D81F801958384831D821C823F
:10090000DF91CF911F910F9108950F931F93CF9374
:10091000DF93EC0188819981009729F02A813B813E
:100920002617370788F48B016F5F7F4F0E943917B6
:10093000009761F0998388831B830A832C813D8112
:10094000232B11F4FC01108281E001C080E0DF91D3
:10095000CF911F910F910895EF92FF920F931F93E4
:10096000CF93DF93EC017B018A01BA010E948504D9
:100970002881398181110DC02115310519F0C90176
:100980000E94B016198218821D821C821B821A8254
:1009900006C01D830C83B701C9010E942118CE0136
:1009A000DF91CF911F910F91FF90EF9008951F92CB
:1009B0000F920FB60F9211242F933F934F935F9393
:1009C0006F937F938F939F93AF93BF93EF93FF9317
:1009D00088E991E00E948301FF91EF91BF91AF916F
:1009E0009F918F917F916F915F914F913F912F9147
:1009F0000F900FBE0F901F9018951F920F920FB679
:100A00000F9211242F938F939F93EF93FF93E09175
:100A1000A801F091A9018081E091AE01F091AF01B0
:100A200082FD12C090818091B1018F5F8F73209100
:100A3000B201821751F0E091B101F0E0E856FE4FAB
:100A4000958F8093B10101C08081FF91EF919F91BB
:100A50008F912F910F900FBE0F901F9018951F929E
:100A60000F920FB60F921124CF92DF92EF92FF9266
:100A70000F931F932F933F934F935F936F937F93A6
:100A80008F939F93AF93BF93EF93FF932091860033
:100A900030918700C9013091810020E42327209301
:100AA0008100B59A2091640130916501D901B09B14
:100AB00005C08F3F4FE7940708F4BFC02091810025
:100AC00026FFABC0209166013091670121153105E9
:100AD00009F44DC02130310509F052C0C090900199
:100AE000D0909101E0909201F090930100917501F6
:100AF000109176012091770130917801080F191F2C
:100B00002A1F3B1F0C191D092E093F09009375016F
:100B1000109376012093770130937801C09068019B
:100B2000D0906901E0906A01F0906B0100916D0135
:100B300010916E0120916F0130917001BC01CD01C7
:100B4000601B710B820B930B0E9401139B01AC0184
:100B5000C701B6010E94C4140E943D1560938C0128
:100B600070938D0180938E0190938F014CC0809380
:100B70006D0190936E01A0936F01B093700143C01B
:100B8000C0909001D0909101E0909201F09093017B
:100B900000917501109176012091770130917801D3
:100BA000080F191F2A1F3B1F0C191D092E093F0989
:100BB00000937501109376012093770130937801AB
:100BC000209166013091670127703327232BD9F4D8
:100BD000C0906D01D0906E01E0906F01F0907001B7
:100BE00000918C0110918D0120918E0130918F0127
:100BF000AC01BD014C195D096E097F094017510711
:100C000062077307E8F4809166019091670101968D
:100C1000909367018093660122C09C01205C33465B
:100C200030938900209388008093900190939101E4
:100C3000A0939201B093930112C0D90111963ECFB7
:100C40008093710190937201A0937301B09374012A
:100C500010926F0083E286BB81E080936C01FF916C
:100C6000EF91BF91AF919F918F917F916F915F9124
:100C70004F913F912F911F910F91FF90EF90DF9037
:100C8000CF900F900FBE0F901F9018951F920F924C
:100C90000FB60F9211248F9310926F0083E286BBE0
:100CA00082E080936C018F910F900FBE0F901F9088
:100CB00018951F920F920FB60F9211248F939F9346
:100CC00080916401909165010196909365018093F4
:100CD00064019F918F910F900FBE0F901F901895F8
:100CE0004F925F926F927F928F929F92AF92BF923C
:100CF000CF92DF92EF92FF920F931F93CF93DF93E8
:100D0000C0906F02D0907002E0907102F090720279
:100D100080916B0290916C02A0916D02B0916E0275
:100D2000C81AD90AEA0AFB0A609173027091740228
:100D300080917502909176029B01AC010E94621332
:100D40004B015C0160917B0270917C0280917D027D
:100D500090917E029B01AC010E9458149B01AC0152
:100D6000C501B4010E94C4140E943615C114D104F7
:100D7000E104F104F9F462307105810591050CF08C
:100D800092C01092830210928402109285021092F7
:100D900086021092730210927402109275021092E1
:100DA0007602109293021092940210929502109281
:100DB00096022AC10091930210919402209195020B
:100DC000309196021C141D041E041F040CF510160D
:100DD00011061206130654F46C157D058E059F0549
:100DE00064F52091610221115EC027C00115110533
:100DF0002105310509F457C06C157D058E059F0549
:100E00000CF051C080916102882309F44CC03CC0B1
:100E1000101611061206130614F500271127980163
:100E20000C191D092E093F096017710782079307E6
:100E300024F4209161022223B1F19B01AC018827A7
:100E40009927DC01821B930BA40BB50B80939302B3
:100E500090939402A0939502B093960224C001153A
:100E6000110521053105F9F08824992454018C18C5
:100E70009D08AE08BF08681579058A059B059CF496
:100E80008091610281110FC03095209510950195D8
:100E90001F4F2F4F3F4F00939302109394022093C4
:100EA0009502309396028090930290909402A090C5
:100EB0009502B090960281149104A104B104D1F47A
:100EC0008091970290919802A0919902B0919A0214
:100ED00080939B0290939C02A0939D02B0939E02EC
:100EE00081E01C141D041E041F040CF080E080939C
:100EF00061024AC0C0909B02D0909C02E0909D028B
:100F0000F0909E02A7019601C701B6010E945814F5
:100F10002B013C01C501B4010E94031320E030E025
:100F200040E850E40E94621320E030E040E85FE3D4
:100F30000E9458149B01AC01C301B2010E94C41469
:100F40009B01AC01C701B6010E945714D62FC72FD1
:100F50006C01E0909F02F090A0020091A10210911C
:100F6000A2029701A8010E946C1518161CF4ED2E20
:100F7000FC2E8601C701D80180939B0290939C02AE
:100F8000A0939D02B0939E023FEF831A930AA30A97
:100F9000B30A8092930290929402A0929502B0922A
:100FA0009602C0909B02D0909C02E0909D02F0902F
:100FB0009E02C701B6010E943D15609383027093A3
:100FC00084028093850290938602A701960160E0D7
:100FD00074E284E799E40E94C414609373027093EE
:100FE0007402809375029093760220916102211120
:100FF0000BC0DC01CB01B058809373029093740254
:10100000A0937502B0937602DF91CF911F910F915B
:10101000FF90EF90DF90CF90BF90AF909F908F9018
:101020007F906F905F904F900895833081F028F407
:10103000813099F08230A1F008958730A9F088308E
:10104000B9F08430D1F4809180008F7D03C080910D
:1010500080008F7780938000089584B58F7702C0D9
:1010600084B58F7D84BD08958091B0008F7703C0D3
:101070008091B0008F7D8093B0000895FC011182B3
:101080001082138212821582148240E050E062E4E2
:1010900071E00C94AC044F925F926F927F928F92AA
:1010A0009F92AF92BF92CF92DF92EF92FF926B012D
:1010B0007C0120E030E0A9010E94FC1287FF04C0FF
:1010C000F7FAF094F7F8F09480907B0290907C020D
:1010D000A0907D02B0907E02A7019601C501B401E7
:1010E0000E94FC12882309F456C06091930270910B
:1010F000940280919502909196020E9403132B0115
:101100003C01A7019601C501B4010E94C4149B01D2
:10111000AC01C301B2010E9462130E9436156093B4
:101120009302709394028093950290939602A70184
:10113000960160E070E080E090E40E94C4140E9498
:10114000771526E53EE04DE25FE30E94621320E062
:1011500034E244E759E40E9462136093970270936B
:1011600098028093990290939A02C0927B02D09247
:101170007C02E0927D02F0927E02FF90EF90DF9081
:10118000CF90BF90AF909F908F907F906F905F9027
:101190004F900C947006FF90EF90DF90CF90BF902F
:1011A000AF909F908F907F906F905F904F90089539
:1011B0000F931F9300916F021091700220917102A2
:1011C00030917202061717072807390761F06093FC
:1011D0006F027093700280937102909372021F915C
:1011E0000F910C9470061F910F9108958F929F920A
:1011F000AF92BF92CF92DF92EF92FF9280907302F4
:1012000090907402A0907502B090760220E030E0D9
:10121000A901C501B4010E94FC12882309F44BC046
:10122000A5019401C501B4010E9462136B017C0108
:1012300060917B0270917C0280917D0290917E0290
:101240009B01AC010E9458149B01AC01C701B6017F
:101250000E94C4140E9436156B017C012FEFC21A44
:10126000D20AE20AF20A20E030E0A901C501B40185
:101270000E946C1540916B0250916C0260916D025E
:1012800070916E0218163CF4CB01BA016C0D7D1DF5
:101290008E1D9F1D06C0CB01BA016C197D098E09F8
:1012A0009F09FF90EF90DF90CF90BF90AF909F90FD
:1012B0008F900C94D808FF90EF90DF90CF90BF9064
:1012C000AF909F908F900895CF92DF92EF92FF9210
:1012D0006B017C0120E030E0A9010E94FC1287FF35
:1012E00004C0F7FAF094F7F8F094A7019601609122
:1012F0007702709178028091790290917A020E942F
:10130000FC12882309F455C0C0927702D09278026B
:10131000E0927902F0927A02A701960160E074E20D
:1013200084E799E40E94C41460939F027093A00222
:101330008093A1029093A2028091930290919402D3
:10134000A0919502B0919602181619061A061B066E
:1013500084F560917302709174028091750290918E
:1013600076029B01AC010E9462136B017C016091CB
:101370007B0270917C0280917D0290917E029B01A4
:10138000AC010E9458149B01AC01C701B6010E9438
:10139000C4140E9436156093930270939402809354
:1013A000950290939602FF90EF90DF90CF900C946F
:1013B0007006FF90EF90DF90CF9008958F929F92EC
:1013C000AF92BF92CF92DF92EF92FF92CF93C090F5
:1013D0007702D0907802E0907902F0907A0246018C
:1013E0005701B7FAB094B7F8B09420E030E044E386
:1013F00053E4C501B4010E946C1518165CF020E09E
:1014000030E044E353E4C701B6010E94FC1287FDBB
:1014100003C014C07501640120E030E0A901C701D8
:10142000B6010E94FC1281110FC01092830210922B
:101430008402109285021092860226C0C12CD12C03
:1014400084E3E82E83E4F82EA701960160E074E2BD
:1014500084E799E40E94C4149F770E943D1560932D
:101460008302709384028093850290938602C1E088
:1014700020E030E0A901C701B6010E946C151816E2
:101480000CF0C0E0C0936102C0927302D09274026B
:10149000E0927502F0927602CF91FF90EF90DF908C
:1014A000CF90BF90AF909F908F900895CF92DF9292
:1014B000EF92FF928091830290918402A091850225
:1014C000B0918602892B8A2B8B2B09F450C00E9485
:1014D0009F006B017C018091870290918802A0910E
:1014E0008902B0918A02B701A601481B590B6A0B09
:1014F0007B0B8091830290918402A0918502B09130
:101500008602481759076A077B0788F12091610214
:1015100080916B0290916C02A0916D02B0916E026D
:10152000222321F00196A11DB11D03C00197A1093D
:10153000B10980936B0290936C02A0936D02B093FB
:101540006E0240916B0250916C0260916D0270913D
:101550006E028FE592E00E947C03C0928702D092D7
:101560008802E0928902F0928A020E94700620E0CE
:1015700030E0A9016091730270917402809175024C
:10158000909176020E94FC12811118C081E0C090F7
:101590006F02D0907002E0907102F0907202409160
:1015A0006B0250916C0260916D0270916E02C416D4
:1015B000D506E606F70619F480E001C081E0FF9049
:1015C000EF90DF90CF900895CF93DF93EC016115FA
:1015D000710559F0FB0101900020E9F73197AF0147
:1015E000461B570B0E94AC040CC088819981009760
:1015F00011F00E94B016198218821D821C821B8273
:101600001A82CE01DF91CF910895009769F0FC0115
:1016100001900020E9F73197AF01481B590BBC013D
:1016200088E991E00C940F0180E090E008958F929A
:101630009F92AF92BF920F931F93CF93DF93CDB73B
:10164000DEB7A1970FB6F894DEBF0FBECDBF19A2CB
:10165000423008F44AE08E010F5D1F4F842E912C1A
:10166000A12CB12CA50194010E94D115E62FB9013E
:10167000CA0101501109EA3014F4E05D01C0E95CCF
:10168000D801EC93232B242B252B61F7C8010E9452
:10169000050BA1960FB6F894DEBF0FBECDBFDF914C
:1016A000CF911F910F91BF90AF909F908F90089511
:1016B000CF92DF92EF92FF92CF93DF936C01990F5D
:1016C000EE08FF08F7FE13C06DE288E991E00E9482
:1016D000A501EC0166277727CB016C197D098E09DE
:1016E0009F094AE00E94170BC80FD91F06C04AE0A5
:1016F000C701B6010E94170BEC0180E491E00E9443
:10170000050B8C0F9D1FDF91CF91FF90EF90DF9025
:10171000CF900895CF93DF93E8EDF0E08491E4EC6F
:10172000F0E0D491E0EBF0E0C491CC2391F0811192
:101730000E941508EC2FF0E0EE0FFF1FE456FF4F5C
:10174000A591B491EC91ED2381E090E021F480E04B
:1017500002C080E090E0DF91CF9108958F929F9238
:10176000AF92BF92CF92DF92EF92FF920E949F00C2
:101770004B015C0185E0C82ED12CE12CF12C0E949C
:101780009F00DC01CB0188199909AA09BB09883E91
:101790009340A105B10598F321E0C21AD108E108F0
:1017A000F10888EE880E83E0981EA11CB11CC114BC
:1017B000D104E104F10419F7FF90EF90DF90CF908E
:1017C000BF90AF909F908F900895FC018091390257
:1017D00090913A02892B21F421E0309749F413C00B
:1017E0008091350290913602309731F421E0FC016E
:1017F0008081882341F006C0BF010E94181821E0B3
:10180000892B09F020E0822F08952FB7F89480915A
:10181000940190919501A0919601B09197012FBFED
:101820008093A0019093A101A093A201B093A30182
:1018300088E991E00E944B0197FF26C02FB7F894EA
:101840008091940190919501A0919601B09197019A
:101850002FBF4091A0015091A1016091A201709110
:10186000A301841B950BA60BB70B40919C015091D3
:101870009D0160919E0170919F0184179507A607B5
:10188000B707B0F28FEF9FEF08951F93CF93DF93C9
:10189000282F30E0F901E253FF4F8491F901E6541B
:1018A000FF4FD491F901EA55FF4FC491CC23C1F009
:1018B000162F81110E941508EC2FF0E0EE0FFF1F8C
:1018C000EE56FF4FA591B4919FB7F894111104C043
:1018D0008C91D095D82302C0EC91DE2BDC939FBF76
:1018E000DF91CF911F910895CF93DF9390E0FC019A
:1018F000E654FF4F2491FC01EA55FF4F8491882361
:1019000061F190E0880F991FFC01E857FF4FC591E6
:10191000D491FC01EE56FF4FA591B491611109C01D
:101920009FB7F8948881209582238883EC912E2399
:101930000BC0623061F49FB7F8948881322F3095E4
:1019400083238883EC912E2B2C939FBF06C08FB7E7
:10195000F894E8812E2B28838FBFDF91CF910895D3
:10196000CF93DF93CDB7DEB760970FB6F894DEBFA5
:101970000FBECDBF789484B5826084BD84B581608C
:1019800084BD85B5826085BD85B5816085BD80914A
:101990006E00816080936E001092810080918100C2
:1019A00082608093810080918100816080938100BA
:1019B000809180008160809380008091B10084607C
:1019C0008093B1008091B00081608093B0008091DD
:1019D0007A00846080937A0080917A00826080939C
:1019E0007A0080917A00816080937A0080917A00F9
:1019F000806880937A001092C100E091A801F09174
:101A0000A90182E08083E091A401F091A5011082F8
:101A1000E091A601F091A70180E180831092B001CE
:101A2000E091AC01F091AD0186E08083E091AA01E4
:101A3000F091AB01808180618083E091AA01F091F7
:101A4000AB01808188608083E091AA01F091AB01B5
:101A5000808180688083E091AA01F091AB01808150
:101A60008F7D808362E08AE00E94740C83E2282EDE
:101A7000CE0101962C0196E0392E2FB7F894809173
:101A8000940190919501A0919601B09197012FBF7B
:101A90008093830190938401A0938501B093860184
:101AA00040916F02509170026091710270917202C8
:101AB00080916B0290916C02A0916D02B0916E02C8
:101AC000481759076A077B0731F00E94560A91E0D0
:101AD0009093820102C010928201809183019091C3
:101AE0008401A0918501B091860140917E015091C1
:101AF0007F016091800170918101841B950BA60B81
:101B0000B70B883E9340A105B1050CF45CC18091F0
:101B10008201811158C18AE899EAA6ECBFE480935A
:101B2000680190936901A0936A01B0936B011092D0
:101B30006C0110926701109266011092750110926B
:101B4000760110927701109278011092650110923F
:101B50006401109280001092810010928500109212
:101B60008400A0E4BCE9B0938900A0938800B1E4AC
:101B7000B093810026BA20926F0080916C01813071
:101B800069F0D8F3823009F061C086E391E00E94E9
:101B9000050B80E491E00E94050B58C0609175012F
:101BA000709176018091770190917801C0907101D8
:101BB000D0907201E0907301F090740180906D01FB
:101BC00090906E01A0906F01B09070010E9401137F
:101BD0006D877E878F87988BC701B6016819790951
:101BE0008A099B090E9401139B01AC016D857E85CA
:101BF0008F8598890E94C4146B017C019B01AC0104
:101C00000E9462132DE33AE047EB5FEB0E94621300
:101C10004B015C012CE53FE846E553E4C701B60102
:101C20000E9462139B01AC01C501B4010E945814CB
:101C300023E333E349E852E40E94571460937A01A6
:101C400070937B0180937C0190937D01C0907A0119
:101C5000D0907B01E0907C01F0907D01A70196017E
:101C6000C701B6010E94B715882319F083E491E0FB
:101C70001AC046015701E894B7F82FEF3FEF4FE73E
:101C80005FE7C501B4010E94B71581110FC02FEFA6
:101C90003FEF4FE75FE7C501B4010E94FC12181641
:101CA0002CF487E491E00E94050B76C02FEF3FEF04
:101CB0004FE75FE4C701B6010E946C1518161CF4CB
:101CC0008BE491E0F0CF2FEF3FEF4FE75FECC701E0
:101CD000B6010E94FC1287FDF3CF20E030E0A9019D
:101CE000C701B6010E94FC1287FF09C06DE288E9B6
:101CF00091E00E94A501F7FAF094F7F8F0942AE039
:101D000037ED43EA5BE3C701B6010E9458144B016B
:101D10005C010E943D156B017C010E9401139B0137
:101D2000AC01C501B4010E9457144B015C014AE0AB
:101D3000C701B6010E94170B6EE288E991E00E948C
:101D4000A50120E030E040E251E4C501B4010E9469
:101D500062134B015C010E943D156B01E12CF12CDB
:101D60004AE0C701B6010E94170BC701B6010E94E5
:101D700001139B01AC01C501B4010E94571420E07E
:101D800030E040E251E40E9462130E943D1580E081
:101D900090E04AE00E94170B80E491E00E94050B5E
:101DA0002FB7F8948091940190919501A09196019C
:101DB000B09197012FBF80937E0190937F01A093F4
:101DC0008001B093810188E991E00E946D011816AD
:101DD00019060CF0CEC2C2010E943E080E94050CFA
:101DE00097FD1DC08A309105D1F08F8318860D8133
:101DF0001E810F5F1F4FB801C2010E948504882316
:101E000069F329813A818D819E81BE01695F7F4F8F
:101E1000820F931F0E9421181E830D83DFCFB20112
:101E200089E592E00E944B0489819A810E94B01654
:101E300018861F821A8619861C861B866091590295
:101E400070915A026115710541F040915D02509107
:101E50005E02CE0107960E94AC040E94560AC12C75
:101E6000D12C812C912C5601EB84FC84CE14DF0400
:101E700078F46F8078846AE370E0C3018C0D9D1D57
:101E80000E940D18009721F08C010619170902C055
:101E90000FEF1FEFC6010196801791070CF043C0AA
:101EA00078010C151D0510F076015801C2010E9441
:101EB0003E08CB84DC84EC14FD04B8F4AC14BD04FF
:101EC00008F46501EF81F885EC0DFD1DB0801082EE
:101ED0006F8178856E0D7F1DC2010E94E40A8F819B
:101EE0009885FC01EC0DFD1DB082389CC001399C29
:101EF000900D11248B5C9D4F4816590619F0B201C4
:101F00000E944B0489819A810E94B0162FEF821A99
:101F1000920A86E0881691040CF047C068019FEF92
:101F2000C91AD90AA0CF17FF9ECFA6E08A1691043E
:101F3000D4F5EC14FD0428F09E2D8F2D7601A92EEA
:101F4000B82EC2010E943E080B851C85E016F106E2
:101F5000B8F4A016B10608F48501EF81F885E00F0A
:101F6000F11FD08010826F8178856E0D7F1DC201B8
:101F70000E94E40A8F819885FC01E00FF11FD08256
:101F8000389CC001399C900D11248B5C9D4F4816E4
:101F9000590619F0B2010E944B0489819A810E946E
:101FA000B0160E94560A0E94560A8F8198850E9498
:101FB000B0160E94560A8FE491E00E94E50B882338
:101FC00051F082E591E00E94050B0E948A0B0E946D
:101FD000580B0E94560A0E94560A86E591E00E941C
:101FE000E50B882309F417C180913B0290913C02D4
:101FF000009719F00E94C01203C060E070E0CB01AE
:102000008B018091820181110E94F60860E070E0EE
:1020100088EC92E40E94640960E070E088EC92E44D
:102020000E944B080E948A0B892BF1F0C09000019E
:10203000D0900101E0900201F0900301C701B601C8
:102040000E94D808BFEFCB1ADB0AEB0AFB0AC0924A
:102050000001D0920101E0920201F09203010E947E
:10206000560A0E94AE0BDECF10926B0210926C02E9
:1020700010926D0210926E0210926F021092700216
:1020800010927102109272021092930210929402B6
:10209000109295021092960210928302109284027E
:1020A00010928502109286021092730210927402AE
:1020B000109275021092760260E070E088EC92E473
:1020C0000E94640960E070E088EC92E40E944B0892
:1020D00081E090E0A0E0B0E08093000190930101E6
:1020E000A0930201B09303010E948A0B892B11F582
:1020F00060910001709101018091020190910301B2
:102100000E94D8080E94560A809100019091010116
:10211000A0910201B09103010197A109B109809337
:10212000000190930101A0930201B09303010E946A
:10213000AE0BDACF10926B0210926C0210926D020D
:1021400010926E0210926F02109270021092710241
:1021500010927202109293021092940210929502C1
:1021600010929602109283021092840210928502BD
:1021700010928602109273021092740210927502ED
:1021800010927602B801110F880B990B0E94D808A3
:1021900040916F02509170026091710270917202D1
:1021A00080916B0290916C02A0916D02B0916E02D1
:1021B000481759076A077B0719F00E94560AE8CFAB
:1021C00010926B0210926C0210926D0210926E02CD
:1021D00010926F02109270021092710210927202AD
:1021E000109293021092940210929502109296020D
:1021F000109283021092840210928502109286023D
:10220000109273021092740210927502109276026C
:1022100091E0909379010E94560A8AE591E00E942C
:10222000E50B882309F44FC080913B0290913C025A
:10223000009719F00E94C01203C060E070E0CB016B
:10224000209179012223D9F1209182016B01770F2E
:10225000EE08FF0821110DC060E070E08AE794E409
:102260000E944B0860E070E084E393E40E946409FC
:102270000EC00E94F60860E070E084E393E40E94E0
:10228000640960E070E08AE794E40E944B0820E073
:1022900030E044E353E460917302709174028091E2
:1022A0007502909176020E94FC1281110E94DE0953
:1022B000C701B6010E94D8080E94560A04C084E6ED
:1022C00095E60E94580B0E94560A8FE591E00E9405
:1022D000E50B811103C00E94560A4BC080913B025E
:1022E00090913C02009729F00E94C0126B017C0182
:1022F00003C0C12CD12C760160E070E084E393E44C
:102300000E94640960E070E08AE794E40E944B0850
:1023100020E030E044E353E4609173027091740272
:1023200080917502909176020E94FC1281110E94A8
:10233000DE0980917901882371F2809182010D2C50
:10234000000CEE08FF08811109C0C701B6010E9408
:10235000D8080E94560A8111FCCFBDCF0E94F60812
:10236000C701B6010E94D8080E94560A8111FCCF0D
:10237000B2CF0E94560A0E9414027FCBCF93DF9304
:10238000C9E5D2E02697888199810E94B01682E043
:10239000C533D807B9F78091590290915A02DF915D
:1023A000CF910C94B016CF93DF9310929B011092B3
:1023B0009A0188EE93E0A0E0B0E080939C019093B6
:1023C0009D01A0939E01B0939F018EE091E09093B8
:1023D00099018093980185EC90E09093A5018093FA
:1023E000A40184EC90E09093A7018093A60180EC77
:1023F00090E09093A9018093A80181EC90E09093E4
:10240000AB018093AA0182EC90E09093AD018093A0
:10241000AC0186EC90E09093AF018093AE011092F6
:10242000B1011092B2011092B3011092B40180E296
:1024300091E09093600280935F0281E0809362025A
:1024400010926B0210926C0210926D0210926E024A
:1024500010926F021092700210927102109272022A
:10246000109273021092740210927502109276020A
:1024700080E090E0A0E8BFE3809377029093780239
:10248000A0937902B0937A0210927B0210927C02A0
:1024900010927D0210927E0280937F0290938002C0
:1024A000A0938102B0938202109283021092840260
:1024B000109285021092860221E030E030938C0267
:1024C00020938B022FEF20938E021092870210929E
:1024D00088021092890210928A022BE020936302F4
:1024E0002CE02093640224E02093650225E02093F1
:1024F000660210928D021092930210929402109232
:1025000095021092960210929702109298021092E1
:10251000990210929A0210929B0210929C021092C1
:102520009D0210929E0280939F029093A002A0931E
:10253000A102B093A202109261021092670210925F
:1025400068021092690210926A028FE592E00E947E
:10255000F90360E070E080E89FE30E944B0889E5A2
:1025600092E00E943E08C5E3D2E0CE010E943E0800
:10257000269682E0C935D807C1F7DF91CF9108953B
:102580001F93FC0199278827BC01E8941191103210
:10259000E9F3193010F01E30C8F31B3251F01D3230
:1025A00049F4689406C00E94E712610F711D811DF5
:1025B000911D119110531A30B0F33EF4909580950F
:1025C000709561957F4F8F4F9F4F1F910895592FA1
:1025D000482F372F262F660F771F881F991F660FEA
:1025E000771F881F991F620F731F841F951F660F27
:1025F000771F881F991F08950E943E1308F481E0F9
:102600000895E89409C097FB3EF4909580957095E5
:1026100061957F4F8F4F9F4F9923A9F0F92F96E92E
:10262000BB279395F695879577956795B795F111A3
:10263000F8CFFAF4BB0F11F460FF1BC06F5F7F4F40
:102640008F4F9F4F16C0882311F096E911C0772352
:1026500021F09EE8872F762F05C0662371F096E85B
:10266000862F70E060E02AF09A95660F771F881F2A
:10267000DAF7880F9695879597F90895990F0008CE
:10268000550FAA0BE0E8FEEF16161706E807F90744
:10269000C0F012161306E407F50798F0621B730BDF
:1026A000840B950B39F40A2661F0232B242B252B60
:1026B00021F408950A2609F4A140A6958FEF811D03
:1026C000811D08950E9475130C94E6130E94D8137F
:1026D00038F00E94DF1320F0952311F00C94CF13F3
:1026E0000C94D51311240C941A140E94F71370F350
:1026F000959FC1F3950F50E0551F629FF001729FA7
:10270000BB27F00DB11D639FAA27F00DB11DAA1FB5
:10271000649F6627B00DA11D661F829F2227B00D02
:10272000A11D621F739FB00DA11D621F839FA00D8D
:10273000611D221F749F3327A00D611D231F849FDD
:10274000600D211D822F762F6A2F11249F57504034
:102750009AF0F1F088234AF0EE0FFF1FBB1F661FAF
:10276000771F881F91505040A9F79E3F510580F078
:102770000C94CF130C941A145F3FE4F3983ED4F3F7
:10278000869577956795B795F795E7959F5FC1F71C
:10279000FE2B880F911D9695879597F9089597F9C7
:1027A0009F6780E870E060E008959FEF80EC0895F7
:1027B00000240A9416161706180609060895002420
:1027C0000A9412161306140605060895092E03949A
:1027D000000C11F4882352F0BB0F40F4BF2B11F40E
:1027E00060FF04C06F5F7F4F8F4F9F4F089557FD6D
:1027F0009058440F551F59F05F3F71F04795880F6F
:1028000097FB991F61F09F3F79F087950895121605
:1028100013061406551FF2CF4695F1DF08C01616B1
:1028200017061806991FF1CF869571056105089462
:102830000895E894BB2766277727CB0197F9089579
:102840002F923F924F925F926F927F928F929F92C0
:10285000AF92BF92CF92DF92EF92FF920F931F93AE
:10286000CF93DF93CDB7DEB7CA1BDB0B0FB6F8945F
:10287000DEBF0FBECDBF09942A88398848885F849F
:102880006E847D848C849B84AA84B984C884DF8010
:10289000EE80FD800C811B81AA81B981CE0FD11DF4
:1028A0000FB6F894DEBF0FBECDBFED0108955058AE
:1028B000BB27AA270E946F140C94E6130E94D8131A
:1028C00038F00E94DF1320F039F49F3F19F426F40A
:1028D0000C94D5130EF4E095E7FB0C94CF13E92F7D
:1028E0000E94F71358F3BA17620773078407950716
:1028F00020F079F4A6F50C9419140EF4E0950B2E43
:10290000BA2FA02D0B01B90190010C01CA01A00141
:102910001124FF27591B99F0593F50F4503E68F19C
:102920001A16F040A22F232F342F4427585FF3CFDD
:10293000469537952795A795F0405395C9F77EF4AE
:102940001F16BA0B620B730B840BBAF09150A1F0F7
:10295000FF0FBB1F661F771F881FC2F70EC0BA0F7D
:10296000621F731F841F48F4879577956795B79505
:10297000F7959E3F08F0B0CF9395880F08F0992700
:10298000EE0F9795879508950E94D8140C94E6133E
:102990000E94DF1358F00E94D81340F029F45F3FE3
:1029A00029F00C94CF1351110C941A140C94D513D4
:1029B0000E94F71368F39923B1F3552391F3951B04
:1029C000550BBB27AA2762177307840738F09F5F50
:1029D0005F4F220F331F441FAA1FA9F335D00E2EBD
:1029E0003AF0E0E832D091505040E695001CCAF72A
:1029F0002BD0FE2F29D0660F771F881FBB1F2617ED
:102A000037074807AB07B0E809F0BB0B802DBF01C3
:102A1000FF2793585F4F3AF09E3F510578F00C9492
:102A2000CF130C941A145F3FE4F3983ED4F38695C9
:102A300077956795B795F7959F5FC9F7880F911DB3
:102A40009695879597F90895E1E0660F771F881F9F
:102A5000BB1F621773078407BA0720F0621B730B52
:102A6000840BBA0BEE1F88F7E09508950E943D1580
:102A70006894B1110C941A1408950E94FF1388F001
:102A80009F5798F0B92F9927B751B0F0E1F0660F32
:102A9000771F881F991F1AF0BA95C9F714C0B13073
:102AA00091F00E941914B1E008950C941914672F45
:102AB000782F8827B85F39F0B93FCCF386957795A2
:102AC0006795B395D9F73EF490958095709561958B
:102AD0007F4F8F4F9F4F08950E943E1308F48FEF52
:102AE000089519F416F40C94D5130C94BC150E9497
:102AF000FF13B8F39923C9F3B6F39F57550B87FF1C
:102B00000E94CA150024A0E640EA9001805856951C
:102B1000979528F4805C660F771F881F20F0261792
:102B20003707480730F4621B730B840B20293129C7
:102B30004A2BA69517940794202531254A2758F744
:102B4000660F771F881F20F026173707480730F4D5
:102B5000620B730B840B200D311D411DA09581F775
:102B6000B901842F9158880F9695879508950E94F2
:102B70003E13880B990B08959F3F31F0915020F43C
:102B8000879577956795B795880F911D9695879549
:102B900097F9089591505040660F771F881FD2F71C
:102BA0000895A1E21A2EAA1BBB1BFD010DC0AA1F8E
:102BB000BB1FEE1FFF1FA217B307E407F50720F0A6
:102BC000A21BB30BE40BF50B661F771F881F991F21
:102BD0001A9469F760957095809590959B01AC016A
:102BE000BD01CF010895052E97FB1EF400940E94AD
:102BF0000A1657FD07D00E94D11507FC03D04EF4EA
:102C00000C940A1650954095309521953F4F4F4FA3
:102C10005F4F089590958095709561957F4F8F4F88
:102C20009F4F0895EE0FFF1F0590F491E02D09943A
:102C30000F931F93CF93DF938230910510F482E0BE
:102C400090E0E091A502F091A60220E030E0A0E043
:102C5000B0E0309719F1408151810281138148170A
:102C60005907C8F08417950769F4109731F0129648
:102C70000C93129713961C9327C00093A5021093F0
:102C8000A60222C02115310519F04217530718F486
:102C90009A01BD01EF01DF01F801DBCF21153105FC
:102CA000F9F0281B390B2430310580F48A819B818F
:102CB0006115710521F0FB019383828304C0909319
:102CC000A6028093A502FE01329644C0FE01E20FE7
:102CD000F31F8193919322503109398328833AC09D
:102CE0002091A3023091A402232B41F420910601EC
:102CF000309107013093A4022093A3022091040194
:102D0000309105012115310541F42DB73EB74091B1
:102D1000080150910901241B350BE091A302F091A9
:102D2000A402E217F307A0F42E1B3F0B2817390764
:102D300078F0AC014E5F5F4F2417350748F04E0F17
:102D40005F1F5093A4024093A3028193919302C00A
:102D5000E0E0F0E0CF01DF91CF911F910F91089556
:102D6000CF93DF93009709F481C0FC01329713825F
:102D70001282A091A502B091A602109781F4208141
:102D80003181820F931F2091A3023091A402281752
:102D9000390751F5F093A402E093A30267C0ED0157
:102DA00020E030E0CE17DF0740F44A815B819E01CE
:102DB00041155105F1F0EA01F5CFD383C28340817B
:102DC0005181840F951FC817D90759F488819981BB
:102DD000840F951F0296918380838A819B819383C0
:102DE00082832115310529F4F093A602E093A50210
:102DF0003DC0E901FB83EA8349915991C40FD51F76
:102E0000EC17FD0761F480819181840F951F029674
:102E1000E90199838883828193819B838A83E0E09F
:102E2000F0E012968D919C911397009719F0FD0197
:102E3000DC01F7CF8D919C9111979D012E5F3F4F43
:102E4000820F931F2091A3023091A4022817390703
:102E500069F4309729F41092A6021092A50202C0DC
:102E600013821282B093A402A093A302DF91CF91A8
:102E70000895A0E0B0E0EFE3F7E10C942414EC0136
:102E8000009721F4CB010E941816B4C0FC01E60F94
:102E9000F71F9C0122503109E217F30708F4A8C07C
:102EA000D9010D911C91119706171707B0F0053045
:102EB000110508F49BC0C80104978617970708F40A
:102EC00095C002501109061B170B019311936D93C6
:102ED0007C93CF010E94B01689C05B01A01AB10A91
:102EE0004C01800E911EA091A502B091A602612C0A
:102EF000712CE12CF12C109709F446C08D919C9116
:102F00001197A815B905B1F56C0142E0C40ED11CAA
:102F1000CA14DB0478F14C018A189B08640142E072
:102F2000C40ED11C1296BC9012971396AC91B5E0CA
:102F3000CB16D10440F0B282A38391828082D90162
:102F40006D937C9309C00E5F1F4F800F911FF90195
:102F500091838083EB2DFA2FE114F10431F0D70136
:102F60001396FC93EE93129741C0F093A602E09360
:102F7000A5023CC06816790608F43C017D01129652
:102F80000D90BC91A02DB7CF8091A3029091A40287
:102F900088169906E1F466167706C8F48091040154
:102FA00090910501009741F48DB79EB740910801BB
:102FB00050910901841B950BE817F907C8F4F093A9
:102FC000A402E093A302F901718360830FC0CB01D7
:102FD0000E9418167C01009759F0A801BE010E94BA
:102FE0000418CE010E94B016C70104C0CE0102C071
:102FF00080E090E0CDB7DEB7EEE00C94401481E0C5
:1030000090E0F8940C942818FB01DC0102C00190B8
:103010000D9241505040D8F70895FC0181918617D8
:1030200021F08823D9F7992708953197CF01089582
:10303000FB01DC018D91019080190110D9F3990BEE
:103040000895FB01DC0101900D920020E1F7089545
:1030500010E0C2E7D0E004C0FE010E9412162196E3
:0A306000C337D107C9F7F894FFCF7A
:10306A00FFFFFFFF0000A702800000000000A5018B
:10307A000F013C01F2016D014B015F0100000000EC
:10308A002D04F903C1037C0366032E030D03D90241
:10309A00B80262021E026E6F2073656E736F720051
:1030AA000D0A006E616E00696E66006F76660065D5
:1030BA00730065733A0063616C006D6F766500702A
:0430CA006F73000020
:00000001FF
