:100000000C9491000C94B9000C94B9000C94B900B4
:100010000C94B9000C94B9000C94B9000C94B9007C
:100020000C94B9000C94B9000C94E9040C940006EB
:100030000C94B9000C9413060C94B9000C94B900FC
:100040000C94790C0C94B9000C94B7040C949104A2
:100050000C94B9000C94B9000C94B9000C94B9003C
:100060000C94B9000C94B900E301E901EF01F5012A
:10007000FB010102070238033F0346034D0354030B
:100080006B035B036B0362034E414E494E49545967
:10009000494E46CDCCCC3D0AD7233C17B7D1387753
:1000A000CC2B329595E6241FB14F0A000020410069
:1000B00000C84200401C4620BCBE4CCA1B0E5AAEB3
:1000C000C59D7400000000240027002A00000000E5
:1000D00000250028002B0000000000230026002936
:1000E00000040404040404040402020202020203E1
:1000F00003030303030102040810204080010204EB
:10010000081020010204081020000000080002016D
:10011000000003040700000000000000000050126F
:100120003B1211241FBECFEFD8E0DEBFCDBF22E0CF
:10013000A2E8B1E001C01D92A13EB207E1F711E0D3
:10014000A0E0B1E0E4E8F4E302C005900D92A2382B
:10015000B107D9F710E0C0E9D0E004C02197FE0153
:100160000E941F18CF38D107C9F70E94C30C0C9406
:10017000351A0C9400000895CF92DF92EF92FF920F
:100180000F931F93CF93DF936C017A018B01C0E033
:10019000D0E0CE15DF0581F0D8016D918D01D6013B
:1001A000ED91FC910190F081E02DC6010995892B1C
:1001B00011F02196EECF7E01C701DF91CF911F9103
:1001C0000F91FF90EF90DF90CF90089580E090E046
:1001D0000895FC01538D448D252F30E0842F90E04D
:1001E000821B930B541710F0CF9608950197089532
:1001F000FC01918D828D981761F0828DDF01A80F2F
:10020000B11D5D968C91928D9F5F9F73928F90E050
:1002100008958FEF9FEF0895FC01918D828D9817BF
:1002200031F0828DE80FF11D858D90E008958FEFFC
:100230009FEF0895FC01918D228D892F90E0805CC5
:100240009F4F821B91098F739927089583EB91E04B
:100250000E941A0121E0892B09F420E0822F0895E1
:10026000FC01848DDF01A80FB11DA35ABF4F2C9153
:10027000848D90E001968F739927848FA689B78922
:100280002C93A089B1898C91837080648C93938D19
:10029000848D981306C00288F389E02D80818F7DBC
:1002A00080830895EF92FF920F931F93CF93DF9374
:1002B000EC0181E0888F9B8D8C8D981305C0E889B7
:1002C000F989808185FD26C0F62E0B8D10E00F5F29
:1002D0001F4F0F731127E02E8C8DE8120CC00FB644
:1002E00007FCFACFE889F989808185FFF5CFCE0137
:1002F0000E943001F1CF8B8DFE01E80FF11DE35A12
:10030000FF4FF0829FB7F8940B8FEA89FB898081B9
:1003100080620AC09FB7F894EE89FF896083E889FC
:10032000F98980818370806480839FBF81E090E041
:10033000DF91CF911F910F91FF90EF900895CF9390
:10034000DF93EC01888D8823C9F0EA89FB898081DD
:1003500085FD05C0A889B9898C9186FD0FC00FB6AF
:1003600007FCF5CF808185FFF2CFA889B9898C91F0
:1003700085FFEDCFCE010E943001E7CFDF91CF9115
:10038000089580E090E0892B29F00E9426018111D8
:100390000C9400000895CF93DF934770552766278C
:1003A0007727FA013197EC01A881B981E730F1058F
:1003B00020F4EC5CFF4F0C941F181496ED91FC9107
:1003C000159761E029C01496ED91FC91159765E0B1
:1003D00023C01496ED91FC91159764E01DC014960E
:1003E000ED91FC91159766E017C01496ED91FC9184
:1003F000159762E011C01496ED91FC9115976AE093
:100400000BC01496ED91FC91159768E005C0149609
:10041000ED91FC91159769E0DF91CF910994CF930D
:10042000DF93EC01CB01BA0126E030E040E050E080
:100430000E940018623071058105910559F18CF414
:100440006115710581059105F1F061307105810536
:100450009105C1F5E881F9810480F581E02D65E021
:100460002DC0643071058105910511F1D4F065301E
:1004700071058105910531F5E881F9810480F581E7
:10048000E02D66E01BC0E881F9810480F581E02D54
:1004900064E014C0E881F9810480F581E02D61E019
:1004A0000DC0E881F9810480F581E02D63E006C08C
:1004B000E881F9810480F581E02D62E0CE01DF91D1
:1004C000CF910994DF91CF91089543705527662706
:1004D0007727DC01ED91FC910480F581E02D42301D
:1004E00051056105710571F04330510561057105D4
:1004F00059F0413051056105710511F065E005C005
:1005000066E003C06AE001C069E00994CF93DF931D
:10051000EC01CB01BA0123E030E040E050E00E9462
:100520000018613071058105910581F06230710517
:100530008105910591F0672B682B692BC1F4E88147
:10054000F9810480F581E02D64E00DC0E881F98136
:100550000480F581E02D61E006C0E881F981048026
:10056000F581E02D62E0CE01DF91CF910994DF911A
:10057000CF9108954370552766277727DC01ED91C9
:10058000FC910480F581E02D423051056105710533
:1005900071F0433051056105710559F04130510545
:1005A0006105710511F062E005C063E003C061E020
:1005B00001C060E00994CF93DF93EC01E881F981F9
:1005C0000480F581E02D8A81811102C060E001C0C4
:1005D00062E0CE010995E881F9810480F581E02D82
:1005E0008A81811102C061E001C063E0CE010995FA
:1005F0008CA59DA58230910538F0880F991F880F32
:10060000991F05970197F1F7E881F9810480F58139
:10061000E02D8A81811102C060E001C062E0CE015C
:10062000DF91CF910994CF93DF93EC0120E030E08C
:10063000A9016C897D898E899F890E947917181676
:100640001CF4E8A9F9A902C0EAA9FBA9DF91CF919E
:1006500009940F931F93DC011396EC910E2F10E079
:1006600009301105C0F5F801E55CFF4F0C941F1827
:10067000DC01ED91FC910084F185E02D29C0DC01C5
:10068000ED91FC910284F385E02D22C0DC01ED9117
:10069000FC910484F585E02D1BC0DC01ED91FC91FB
:1006A0000684F785E02D14C0DC01ED91FC910088F3
:1006B000F189E02D0DC0DC01ED91FC910288F389F8
:1006C000E02D06C0DC01ED91FC910488F589E02D58
:1006D0001F910F9109941F910F9108950E940C1A78
:1006E000CF92DF92EF92FF920F931F93CF93DF93FE
:1006F000EC019B81943041F0983031F0933031F02F
:10070000963021F012E003C014E001C013E02496FB
:10071000E12CF12CC62ED12C01E0C6010E2C02C01A
:10072000959587950A94E2F76C8180FD6027899101
:100730000E94E90B8FEFE81AF80AE11670F3DF91D7
:10074000CF911F910F91FF90EF90DF90CF90089580
:10075000CF93DF93FC012381222359F1EC0161E067
:1007600084810E94180C61E08D810E94180C8B819D
:10077000843011F0883039F461E08E810E94180CC9
:1007800061E08F8106C0833011F0863021F461E092
:100790008E810E94180C8FA58F3F59F061E00E9456
:1007A000180C6EA581E068278FA5DF91CF910C947E
:1007B000E90BDF91CF910895CF93DF93FC01238163
:1007C0002223A9F0EC010190F081E02D0480F58155
:1007D000E02D60E009958FA58F3F49F061E00E9410
:1007E000180C6EA58FA5DF91CF910C94E90BDF91CA
:1007F000CF910895FC0180819181009711F00C94B4
:100800003D1360E070E0CB0108950F931F93CF93E9
:10081000DF938C01EB01FC0180819181009739F01D
:100820006881798161157105A1F40E94BD188881E4
:100830009981F801918380838A819B81938382834C
:100840008C819D8195838483198218821B821A82F0
:100850000FC0F801428153812C813D81421753071B
:1008600020F30E942E1A8C819D81F8019583848348
:100870001D821C82DF91CF911F910F9108950F93DC
:100880001F93CF93DF93EC0188819981009729F022
:100890002A813B812617370788F48B016F5F7F4FD2
:1008A0000E944619009761F0998388831B830A830D
:1008B0002C813D81232B11F4FC01108281E001C0C9
:1008C00080E0DF91CF911F910F910895EF92FF92F9
:1008D0000F931F93CF93DF93EC017B018A01BA0141
:1008E0000E943F042881398181110DC021153105F5
:1008F00019F0C9010E94BD18198218821D821C823C
:100900001B821A8206C01D830C83B701C9010E9495
:100910002E1ACE01DF91CF911F910F91FF90EF9092
:1009200008951F920F920FB60F9211242F933F93A9
:100930004F935F936F937F938F939F93AF93BF93E7
:10094000EF93FF9383EB91E00E943001FF91EF91D1
:10095000BF91AF919F918F917F916F915F914F91D7
:100960003F912F910F900FBE0F901F9018951F92DF
:100970000F920FB60F9211242F938F939F93EF93A3
:10098000FF93E091C301F091C4018081E091C9011E
:10099000F091CA0182FD12C090818091CC018F5FDD
:1009A0008F732091CD01821751F0E091CC01F0E0DE
:1009B000ED54FE4F958F8093CC0101C08081FF9153
:1009C000EF919F918F912F910F900FBE0F901F90DD
:1009D00018951F920F920FB60F921124CF92DF92AB
:1009E000EF92FF920F931F932F933F934F935F9339
:1009F0006F937F938F939F93AF93BF93EF93FF93E7
:100A00002091860030918700C9013091810020E457
:100A1000232720938100B59A209182013091830190
:100A2000D901B09B05C08F3F4FE7940708F4BFC0C2
:100A30002091810026FFABC0209184013091850177
:100A40002115310509F44DC02130310509F052C09E
:100A5000C090AB01D090AC01E090AD01F090AE0140
:100A6000009193011091940120919501309196018C
:100A7000080F191F2A1F3B1F0C191D092E093F09BA
:100A80000093930110939401209395013093960164
:100A9000C0908601D0908701E0908801F090890194
:100AA00000918B0110918C0120918D0130918E016C
:100AB000BC01CD01601B710B820B930B0E94F114E2
:100AC0009B01AC01C701B6010E94D1160E944A17D2
:100AD0006093A7017093A8018093A9019093AA0144
:100AE0004CC080938B0190938C01A0938D01B093A7
:100AF0008E0143C0C090AB01D090AC01E090AD013D
:100B0000F090AE0100919301109194012091950114
:100B100030919601080F191F2A1F3B1F0C191D0940
:100B20002E093F090093930110939401209395019E
:100B300030939601209184013091850127703327ED
:100B4000232BD9F4C0908B01D0908C01E0908D01C3
:100B5000F0908E010091A7011091A8012091A901A8
:100B60003091AA01AC01BD014C195D096E097F09E4
:100B70004017510762077307E8F480918401909150
:100B800085010196909385018093840122C09C0188
:100B9000205C334630938900209388008093AB011A
:100BA0009093AC01A093AD01B093AE0112C0D901F6
:100BB00011963ECF80938F0190939001A093910165
:100BC000B093920110926F0083E286BB81E0809324
:100BD0008A01FF91EF91BF91AF919F918F917F918A
:100BE0006F915F914F913F912F911F910F91FF90C6
:100BF000EF90DF90CF900F900FBE0F901F90189541
:100C00001F920F920FB60F9211248F9310926F00C4
:100C100083E286BB82E080938A018F910F900FBEA2
:100C20000F901F9018951F920F920FB60F921124DC
:100C30008F939F938091820190918301019690936D
:100C40008301809382019F918F910F900FBE0F902F
:100C50001F90189583E791E00E949A0888E491E03C
:100C60000C949A084F925F926F927F928F929F920C
:100C7000AF92BF92CF92DF92EF92FF920F931F93AA
:100C8000CF93DF93C090A202D090A302E090A40281
:100C9000F090A50280919E0290919F02A091A002E7
:100CA000B091A102C81AD90AEA0AFB0A6091A60209
:100CB0007091A7028091A8029091A9029B01AC01BA
:100CC0000E9452154B015C016091AE027091AF021F
:100CD0008091B0029091B1029B01AC010E94651617
:100CE0009B01AC01C501B4010E94D1160E944317BB
:100CF000C114D104E104F104F9F4623071058105F5
:100D000091050CF092C01092B6021092B7021092A8
:100D1000B8021092B9021092A6021092A702109285
:100D2000A8021092A9021092C6021092C702109255
:100D3000C8021092C9022AC10091C6021091C702CE
:100D40002091C8023091C9021C141D041E041F0406
:100D50000CF5101611061206130654F46C157D05D9
:100D60008E059F0564F52091940221115EC027C075
:100D7000011511052105310509F457C06C157D05D4
:100D80008E059F050CF051C080919402882309F4D0
:100D90004CC03CC0101611061206130614F50027AD
:100DA000112798010C191D092E093F0960177107B9
:100DB0008207930724F4209194022223B1F19B012E
:100DC000AC0188279927DC01821B930BA40BB50B80
:100DD0008093C6029093C702A093C802B093C90241
:100DE00024C00115110521053105F9F08824992445
:100DF00054018C189D08AE08BF08681579058A054E
:100E00009B059CF48091940281110FC03095209530
:100E1000109501951F4F2F4F3F4F0093C60210931F
:100E2000C7022093C8023093C9028090C6029090F6
:100E3000C702A090C802B090C90281149104A10415
:100E4000B104D1F48091CA029091CB02A091CC025E
:100E5000B091CD028093CE029093CF02A093D002A6
:100E6000B093D10281E01C141D041E041F040CF079
:100E700080E0809394024AC0C090CE02D090CF020E
:100E8000E090D002F090D102A7019601C701B6010F
:100E90000E9465162B013C01C501B4010E94F314A8
:100EA00020E030E040E850E40E94521520E030E0BD
:100EB00040E85FE30E9465169B01AC01C301B201EB
:100EC0000E94D1169B01AC01C701B6010E946416B5
:100ED000D62FC72F6C01E090D202F090D302009180
:100EE000D4021091D5029701A8010E947917181613
:100EF0001CF4ED2EFC2E8601C701D8018093CE0292
:100F00009093CF02A093D002B093D1023FEF831A07
:100F1000930AA30AB30A8092C6029092C702A092D3
:100F2000C802B092C902C090CE02D090CF02E09029
:100F3000D002F090D102C701B6010E944A17609317
:100F4000B6027093B7028093B8029093B902A701DA
:100F5000960160E074E284E799E40E94D116609300
:100F6000A6027093A7028093A8029093A9022091F1
:100F7000940221110BC0DC01CB01B0588093A60272
:100F80009093A702A093A802B093A902DF91CF91FA
:100F90001F910F91FF90EF90DF90CF90BF90AF9097
:100FA0009F908F907F906F905F904F9008958330C7
:100FB00081F028F4813099F08230A1F008958730D3
:100FC000A9F08830B9F08430D1F4809180008F7D11
:100FD00003C0809180008F7780938000089584B54E
:100FE0008F7702C084B58F7D84BD08958091B00055
:100FF0008F7703C08091B0008F7D8093B0000895FB
:10100000FC0111821082138212821582148240E048
:1010100050E06AE471E00C9466044F925F926F9224
:101020007F928F929F92AF92BF92CF92DF92EF9278
:10103000FF926B017C0120E030E0A9010E94EC14DA
:1010400087FF04C0F7FAF094F7F8F0948090AE02AE
:101050009090AF02A090B002B090B102A7019601AB
:10106000C501B4010E94EC14882309F456C06091B4
:10107000C6027091C7028091C8029091C9020E9475
:10108000F3142B013C01A7019601C501B4010E9494
:10109000D1169B01AC01C301B2010E9452150E94FE
:1010A00043176093C6027093C7028093C80290935F
:1010B000C902A701960160E070E080E090E40E9420
:1010C000D1160E94841726E53EE04DE25FE30E94C0
:1010D000521520E034E244E759E40E94521560932F
:1010E000CA027093CB028093CC029093CD02C0923F
:1010F000AE02D092AF02E092B002F092B102FF9045
:10110000EF90DF90CF90BF90AF909F908F907F90A7
:101110006F905F904F900C943206FF90EF90DF90AD
:10112000CF90BF90AF909F908F907F906F905F9087
:101130004F900895009769F0FC0101900020E9F7B5
:101140003197AF01481B590BBC0183EB91E00C9424
:10115000BC0080E090E00895CF93DF93EC0161152F
:10116000710559F0FB0101900020E9F73197AF01BB
:10117000461B570B0E9466040CC08881998100971A
:1011800011F00E94BD18198218821D821C821B82D8
:101190001A82CE01DF91CF910895CF92DF92EF9224
:1011A000FF928091B6029091B702A091B802B091DF
:1011B000B902892B8A2B8B2B09F450C00E94540C46
:1011C0006B017C018091BA029091BB02A091BC029C
:1011D000B091BD02B701A601481B590B6A0B7B0BEE
:1011E0008091B6029091B702A091B802B091B90275
:1011F000481759076A077B0788F12091940280916C
:101200009E0290919F02A091A002B091A102222380
:1012100021F00196A11DB11D03C00197A109B109DB
:1012200080939E0290939F02A093A002B093A1028C
:1012300040919E0250919F026091A0027091A10284
:1012400082E992E00E942903C092BA02D092BB02C6
:10125000E092BC02F092BD020E94320620E030E033
:10126000A9016091A6027091A7028091A8029091B5
:10127000A9020E94EC14811118C081E0C090A20262
:10128000D090A302E090A402F090A50240919E02AB
:1012900050919F026091A0027091A102C416D506E0
:1012A000E606F70619F480E001C081E0FF90EF90B8
:1012B000DF90CF9008950F931F930091A202109199
:1012C000A3022091A4023091A50206171707280750
:1012D000390761F06093A2027093A3028093A40285
:1012E0009093A5021F910F910C9432061F910F91BC
:1012F00008958F929F92AF92BF92CF92DF92EF921A
:10130000FF928090A6029090A702A090A802B090B1
:10131000A90220E030E0A901C501B4010E94EC144B
:10132000882309F44BC0A5019401C501B4010E94B2
:1013300052156B017C016091AE027091AF028091F9
:10134000B0029091B1029B01AC010E9465169B0115
:10135000AC01C701B6010E94D1160E9443176B0170
:101360007C012FEFC21AD20AE20AF20A20E030E032
:10137000A901C501B4010E94791740919E025091C4
:101380009F026091A0027091A10218163CF4CB015B
:10139000BA016C0D7D1D8E1D9F1D06C0CB01BA01CB
:1013A0006C197D098E099F09FF90EF90DF90CF9017
:1013B000BF90AF909F908F900C945B09FF90EF903F
:1013C000DF90CF90BF90AF909F908F9008958F92B5
:1013D0009F92AF92BF920F931F93CF93DF93CDB79E
:1013E000DEB7A1970FB6F894DEBF0FBECDBF19A22E
:1013F000423008F44AE08E010F5D1F4F842E912C7D
:10140000A12CB12CA50194010E94DE17E62FB90191
:10141000CA0101501109EA3014F4E05D01C0E95C31
:10142000D801EC93232B242B252B61F7C8010E94B4
:101430009A08A1960FB6F894DEBF0FBECDBFDF911C
:10144000CF911F910F91BF90AF909F908F90089573
:10145000CF93DF93E3E1F1E08491EFEFF0E0D491FB
:10146000EBEEF0E0C491CC2391F081110E94D707FC
:10147000EC2FF0E0EE0FFF1FE952FF4FA591B49162
:10148000EC91ED2381E090E021F480E002C080E067
:1014900090E0DF91CF9108958F929F92AF92BF928B
:1014A000CF92DF92EF92FF920F931F93CF93DF9330
:1014B0008B01D82FC92F9B01482F592F6091A6026D
:1014C0007091A7028091A8029091A9020E94EC1449
:1014D000882309F460C0C090AA02D090AB02E090CB
:1014E000AC02F090AD0246015701B7FAB094B7F8DC
:1014F000B094A5019401B8018D2F9C2F0E94EC148B
:1015000087FD0DC0A7019601B8018D2F9C2F0E9469
:101510007917181634F06801ED2EFC2E02C0750103
:10152000640120E030E0A901C701B6010E94EC147B
:10153000811109C01092B6021092B7021092B8023F
:101540001092B90220C0A701960160E074E284E71E
:1015500099E40E94D1169F770E944A176093B602C1
:101560007093B7028093B8029093B902C1E020E073
:1015700030E0A901C701B6010E94791718160CF0D6
:10158000C0E0C0939402C092A602D092A702E0925B
:10159000A802F092A902DF91CF911F910F91FF90C5
:1015A000EF90DF90CF90BF90AF909F908F90089575
:1015B000CF92DF92EF92FF926B017C0120E030E04E
:1015C000A9010E94EC1487FF04C0F7FAF094F7F821
:1015D000F094A70196016091AA027091AB028091EC
:1015E000AC029091AD020E94EC14882309F455C01E
:1015F000C092AA02D092AB02E092AC02F092AD028D
:10160000A701960160E074E284E799E40E94D11694
:101610006093D2027093D3028093D4029093D50248
:101620008091C6029091C702A091C802B091C902F0
:10163000181619061A061B0684F56091A602709109
:10164000A7028091A8029091A9029B01AC010E947F
:1016500052156B017C016091AE027091AF028091D6
:10166000B0029091B1029B01AC010E9465169B01F2
:10167000AC01C701B6010E94D1160E9443176093C6
:10168000C6027093C7028093C8029093C902FF906C
:10169000EF90DF90CF900C943206FF90EF90DF90A8
:1016A000CF9008958F929F92AF92BF92CF92DF9288
:1016B000EF92FF920E94540C4B015C0185E0C82E12
:1016C000D12CE12CF12C0E94540CDC01CB018819A7
:1016D0009909AA09BB09883E9340A105B10598F371
:1016E00021E0C21AD108E108F10888EE880E83E0F3
:1016F000981EA11CB11CC114D104E104F10419F716
:10170000FF90EF90DF90CF90BF90AF909F908F9021
:101710000895FC018091540290915502892B21F487
:1017200021E0309749F413C080915002909151020A
:10173000309731F421E0FC018081882341F006C01C
:10174000BF010E94251A21E0892B09F020E0822F99
:1017500008952FB7F8948091AF019091B001A091B6
:10176000B101B091B2012FBF8093BB019093BC0136
:10177000A093BD01B093BE0183EB91E00E94F800FD
:1017800097FF26C02FB7F8948091AF019091B001D8
:10179000A091B101B091B2012FBF4091BB01509116
:1017A000BC016091BD017091BE01841B950BA60B1D
:1017B000B70B4091B7015091B8016091B901709198
:1017C000BA0184179507A607B707B0F28FEF9FEF0E
:1017D00008951F93CF93DF93282F30E0F901E75F3F
:1017E000FE4F8491F901EB50FF4FD491F901EF5175
:1017F000FF4FC491CC23C1F0162F81110E94D7074F
:10180000EC2FF0E0EE0FFF1FE353FF4FA591B491D3
:101810009FB7F894111104C08C91D095D82302C0C1
:10182000EC91DE2BDC939FBFDF91CF911F91089548
:10183000CF93DF9390E0FC01EB50FF4F2491FC012C
:10184000EF51FF4F8491882361F190E0880F991F39
:10185000FC01ED53FF4FC591D491FC01E353FF4FC1
:10186000A591B491611109C09FB7F8948881209522
:1018700082238883EC912E230BC0623061F49FB7E2
:10188000F8948881322F309583238883EC912E2B16
:101890002C939FBF06C08FB7F894E8812E2B288326
:1018A0008FBFDF91CF9108953FB7F8948091D70211
:1018B0009091D802A091D902B091DA0226B5A89BE6
:1018C00005C02F3F19F00196A11DB11D3FBFBA2FD2
:1018D000A92F982F8827820F911DA11DB11DBC0132
:1018E000CD0142E0660F771F881F991F4A95D1F7F7
:1018F00008951F920F920FB60F9211242F933F93CA
:101900008F939F93AF93BF938091AF019091B0015C
:10191000A091B101B091B2013091D60223E0230F22
:101920002D3720F40196A11DB11D05C026E8230F17
:101930000296A11DB11D2093D6028093AF01909312
:10194000B001A093B101B093B2018091D702909100
:10195000D802A091D902B091DA020196A11DB11D61
:101960008093D7029093D802A093D902B093DA0261
:10197000BF91AF919F918F913F912F910F900FBE8B
:101980000F901F901895CF93DF93CDB7DEB7609778
:101990000FB6F894DEBF0FBECDBF789484B58260D9
:1019A00084BD84B5816084BD85B5826085BD85B503
:1019B000816085BD80916E00816080936E00109281
:1019C00081008091810082608093810080918100FC
:1019D000816080938100809180008160809380008D
:1019E0008091B10084608093B1008091B0008160EB
:1019F0008093B00080917A00846080937A00809117
:101A00007A00826080937A0080917A00816080936E
:101A10007A0080917A00806880937A001092C100E9
:101A2000E091C301F091C40182E08083E091BF01A5
:101A3000F091C0011082E091C101F091C20180E1FA
:101A400080831092CB01E091C701F091C80186E03C
:101A50008083E091C501F091C6018081806180831F
:101A6000E091C501F091C601808188608083E0919A
:101A7000C501F091C601808180688083E091C50135
:101A8000F091C60180818F7D808382E390E0A0E0A9
:101A9000B0E08093B7019093B801A093B901B093DF
:101AA000BA0162E08AE00E94180C83E2282ECE017F
:101AB00001962C0196E0392E2FB7F8948091AF0152
:101AC0009091B001A091B101B091B2012FBF80936C
:101AD000A3019093A401A093A501B093A601009146
:101AE000A2021091A3022091A4023091A50240917C
:101AF0009E0250919F026091A0027091A102041772
:101B000015072607370721F021E02093A20102C024
:101B10001092A20140919E0150919F016091A001FD
:101B20007091A101841B950BA60BB70B883E9340C7
:101B3000A105B1050CF45CC18091A201811158C1CD
:101B40008AE899EAA6ECBFE4809386019093870126
:101B5000A0938801B093890110928A0110928501A7
:101B600010928401109293011092940110929501A9
:101B700010929601109283011092820110928000BF
:101B8000109281001092850010928400A0E4BCE9BC
:101B9000B0938900A0938800B1E4B093810026BA85
:101BA00020926F0080918A01813069F0D8F38230F1
:101BB00009F061C08EE391E00E949A0888E491E008
:101BC0000E949A0858C0609193017091940180918D
:101BD000950190919601C0908F01D0909001E09076
:101BE0009101F090920180908B0190908C01A090D7
:101BF0008D01B0908E010E94F1146D877E878F87D2
:101C0000988BC701B601681979098A099B090E9456
:101C1000F1149B01AC016D857E858F8598890E94AA
:101C2000D1166B017C019B01AC010E9452152DE382
:101C30003AE047EB5FEB0E9452154B015C012CE54B
:101C40003FE846E553E4C701B6010E9452159B01E7
:101C5000AC01C501B4010E94651623E333E349E8F2
:101C600052E40E94641660939A0170939B018093E2
:101C70009C0190939D01C0909A01D0909B01E090AF
:101C80009C01F0909D01A7019601C701B6010E9439
:101C9000C417882319F08BE491E01AC0460157015C
:101CA000E894B7F82FEF3FEF4FE75FE7C501B401C6
:101CB0000E94C41781110FC02FEF3FEF4FE75FE77E
:101CC000C501B4010E94EC1418162CF48FE491E0C5
:101CD0000E949A0876C02FEF3FEF4FE75FE4C701FD
:101CE000B6010E94791718161CF483E591E0F0CF35
:101CF0002FEF3FEF4FE75FECC701B6010E94EC14F6
:101D000087FDF3CF20E030E0A901C701B6010E94B2
:101D1000EC1487FF09C06DE283EB91E00E94520151
:101D2000F7FAF094F7F8F0942AE037ED43EA5BE332
:101D3000C701B6010E9465164B015C010E944A175B
:101D40006B017C010E94F1149B01AC01C501B4013F
:101D50000E9464164B015C014AE0C701B6010E9473
:101D6000E7096EE283EB91E00E94520120E030E04F
:101D700040E251E4C501B4010E9452154B015C01DF
:101D80000E944A176B01E12CF12C4AE0C701B60111
:101D90000E94E709C701B6010E94F1149B01AC0142
:101DA000C501B4010E94641620E030E040E251E435
:101DB0000E9452150E944A1780E090E04AE00E947B
:101DC000E70988E491E00E949A082FB7F89480917F
:101DD000AF019091B001A091B101B091B2012FBFBC
:101DE00080939E0190939F01A093A001B093A101C5
:101DF00083EB91E00E941A01892B09F4FBC1C20117
:101E00000E9400080E94A90B97FD1DC08A30910511
:101E1000D1F08F8318860D811E810F5F1F4FB8018F
:101E2000C2010E943F04882369F329813A818D8190
:101E30009E81BE01695F7F4F820F931F0E942E1A01
:101E40001E830D83DFCFB2018CE892E00E9405046F
:101E500089819A810E94BD1818861F821A86198668
:101E60001C861B8660918C0270918D026115710534
:101E700041F04091900250919102CE0107960E944C
:101E80006604A12CB12CE12CF12C4501CB84DC841F
:101E9000AC14BD0478F46F8078846AE370E0C30109
:101EA0008A0D9B1D0E941A1A009721F08C010619B9
:101EB000170902C00FEF1FEFC501019680179107A8
:101EC0000CF043C068010A151B0510F065014801BC
:101ED000C2010E940008AB84BC84CA14DB04B8F4BD
:101EE0008A149B0408F45401EF81F885EA0DFB1D68
:101EF000908010826F8178856C0D7D1DC2010E94DB
:101F0000AC088F819885FC01EA0DFB1D90823E9CF8
:101F1000C0013F9C900D1124805B9D4F48165906CF
:101F200019F0B2010E94050489819A810E94BD18AE
:101F30002FEFE21AF20A86E0E816F1040CF046C030
:101F400058019FEFA91AB90AA0CF17FF9ECFA6E0AC
:101F5000EA16F104DCF5CA14DB0428F09C2D8D2D63
:101F60006501892E982EC2010E9400080B851C85F0
:101F7000C016D106B8F48016910608F48401EF81EA
:101F8000F885E00FF11FB08010826F8178856C0DAD
:101F90007D1DC2010E94AC088F819885FC01E00F75
:101FA000F11FB0823E9CC0013F9C900D1124805BCC
:101FB0009D4F4816590619F0B2010E940504898107
:101FC0009A810E94BD18BFEFEB1AFB0AF0929901AB
:101FD000E09298018F8198850E94BD1887E591E075
:101FE0000E94890B882311F1EA94EF28F9F48FE617
:101FF00091E00E949A080E94280A6C01990FEE084D
:10200000FF08F7FEFCC06DE283EB91E00E945201F5
:1020100066277727CB016C197D098E099F094AE055
:102020000E94E70988E491E00E949A088AE591E01D
:102030000E94890B882309F458C0809198019091DF
:102040009901049709F051C0DEC010929E021092CF
:102050009F021092A0021092A1021092A20210926E
:10206000A3021092A4021092A5021092C60210922E
:10207000C7021092C8021092C9021092B6021092C2
:10208000B7021092B8021092B9021092A6021092F2
:10209000A7021092A8021092A902C0900801D09045
:1020A0000901E0900A01F0900B01C701B6010E94FE
:1020B000D80AC701B6010E944C0AC0900401D09012
:1020C0000501E0900601F090070120E030E0A90151
:1020D000C701B6010E94EC14882321F0C701B601A4
:1020E0000E940D0891E0909397018EE591E00E9487
:1020F000890B882319F18091980190919901029799
:10210000E9F48091560290915702009709F488C132
:102110000E9441136B017C0180919701882309F48F
:102120007CC18091A20181110E947909B601DD0C68
:10213000880B990B0E945B090E94CD0883E691E011
:102140000E94890B882321F1809198019091990137
:102150000297F1F48091560290915702009709F48A
:1021600071C10E94411320919701222309F467C194
:102170002091A2016B01770FEE08FF08211154C1D5
:10218000C701B6010E945B090E94CD088111FCCFF6
:1021900087E691E00E94890B882339F080919801AD
:1021A00090919901029709F451C18BE691E00E9448
:1021B000890B8823F9F080919801909199010297F9
:1021C000C9F486E592E00E94FA036B017C016093FA
:1021D000040170930501809306019093070120E0AC
:1021E00030E0A9010E94EC14882321F0C701B60158
:1021F0000E940D080E94CD080E94C1015DCC4AE0FA
:10220000C701B6010DCF82E692E00E94FA036D8706
:102210007E878F87988B8CE592E00E94FA036B0192
:102220007C018091560290915702009709F4F1C009
:102230000E9441138B018091A20181110E947909B2
:102240006D857E858F8598890E94D80A20E030E0D0
:10225000A901C701B6010E94EC14882321F0C7012F
:10226000B6010E940D080E94280A892BF1F0809087
:10227000000190900101A0900201B0900301C501FE
:10228000B4010E945B098FEF881A980AA80AB80A5D
:102290008092000190920101A0920201B09203018C
:1022A0000E94CD080E94520BDECF10929E02109227
:1022B0009F021092A0021092A1021092A20210920C
:1022C000A3021092A4021092A5021092C6021092CC
:1022D000C7021092C8021092C9021092B602109260
:1022E000B7021092B8021092B9021092A602109290
:1022F000A7021092A8021092A9026D857E858F8593
:1023000098890E94D80A20E030E0A901C701B601EF
:102310000E94EC14882321F0C701B6010E940D0829
:1023200081E090E0A0E0B0E0809300019093010193
:10233000A0930201B09303010E94280A892B11F592
:10234000609100017091010180910201909103015F
:102350000E945B090E94CD088091000190910101CB
:10236000A0910201B09103010197A109B1098093E5
:10237000000190930101A0930201B09303010E9418
:10238000520BDACF10929E0210929F021092A0027E
:102390001092A1021092A2021092A3021092A40223
:1023A0001092A5021092C6021092C7021092C802A3
:1023B0001092C9021092B6021092B7021092B8029F
:1023C0001092B9021092A6021092A7021092A802CF
:1023D0001092A902B801110F880B990B0E945B099A
:1023E0004091A2025091A3026091A4027091A502B3
:1023F00080919E0290919F02A091A002B091A102B3
:10240000481759076A077B0709F41FCE0E94CD08B9
:10241000E7CF60E070E0CB010DCF0E942A068ECEA0
:10242000C12CD12C760178CE0E947909C701B60162
:102430000E945B090E94CD088111FCCFA9CE0E94A9
:102440002A06A6CE60E070E0CB018DCE86E592E054
:102450000E94FA036B017C016093080170930901EB
:1024600080930A0190930B010E94D80AC701B6011C
:102470000E944C0A9ACECF93DF93CCE8D2E0269705
:10248000888199810E94BD1882E0C035D807B9F7CC
:1024900080918C0290918D02DF91CF910C94BD18A8
:1024A000CF93DF931092B6011092B50188EE93E0BE
:1024B000A0E0B0E08093B7019093B801A093B90178
:1024C000B093BA0186E191E09093B4018093B30197
:1024D00085EC90E09093C0018093BF0184EC90E084
:1024E0009093C2018093C10180EC90E09093C4016D
:1024F0008093C30181EC90E09093C6018093C50165
:1025000082EC90E09093C8018093C70186EC90E044
:102510009093CA018093C9011092CC011092CD0111
:102520001092CE011092CF0188E291E09093930235
:102530008093920281E08093950210929E02109205
:102540009F021092A0021092A1021092A202109279
:10255000A3021092A4021092A5021092A602109259
:10256000A7021092A8021092A90280E090E0A0E8D1
:10257000BFE38093AA029093AB02A093AC02B09306
:10258000AD021092AE021092AF021092B002109201
:10259000B1028093B2029093B302A093B402B093BD
:1025A000B5021092B6021092B7021092B8021092C1
:1025B000B90221E030E03093BF022093BE022FEF3A
:1025C0002093C1021092BA021092BB021092BC0278
:1025D0001092BD022BE0209396022CE020939702EC
:1025E00024E02093980225E0209399021092C002E3
:1025F0001092C6021092C7021092C8021092C9022D
:102600001092CA021092CB021092CC021092CD020C
:102610001092CE021092CF021092D0021092D102EC
:102620008093D2029093D302A093D402B093D502A8
:102630001092940210929A0210929B0210929C02A5
:1026400010929D0282E992E00E94A80360E070E08F
:1026500080E89FE30E940D088CE892E00E94000849
:10266000C0E5D2E0CE010E940008269682E0CC3878
:10267000D807C1F7DF91CF910895662777270C948B
:102680007D131F93FC0199278827BC01E8941191C1
:102690001032E9F3193010F01E30C8F31B3251F03C
:1026A0001D3249F4689406C00E946813610F711DC1
:1026B000811D911D119110531A30B0F33EF4909585
:1026C0008095709561957F4F8F4F9F4F1F91089513
:1026D000592F482F372F262F660F771F881F991FD6
:1026E000660F771F881F991F620F731F841F951F26
:1026F000660F771F881F991F0895A0E0B0E0E3E8F8
:10270000F3E10C942416EC016B016115710519F0CD
:10271000FB01918380837E01FFEFEF1AFF0A08819E
:10272000802F90E00E94CB14892B11F0E701F3CFAA
:102730000D3239F47E0182E0E80EF11C098111E0CE
:1027400008C00B3229F47E0192E0E90EF11C0981E8
:1027500010E0E701219743E050E060E970E0CE012E
:102760000E94D414892BC1F4239645E050E06BE815
:1027700070E0CE010E94D414892B09F42596C1146F
:10278000D10419F0F601D183C0831111F6C060E0C5
:1027900070E080E89FE7FAC043E050E068E870E04E
:1027A000CE010E94D414892B59F4C114D10409F428
:1027B000E9C0F2E0EF0EF11CF601F182E082E2C026
:1027C00020E030E0A901C0E0D0E0F70180EDA82EC4
:1027D000A00E89E08A1530F1912F9260B92E812FD9
:1027E000887012FF04C0811124C0219622C081117B
:1027F0002197A5E0B0E00E941316DC01CB01880F01
:10280000991FAA1FBB1F9C01AD012A0D311D411D3F
:10281000511D283989E93807480789E1580748F0E8
:10282000166006C09EEFA9120AC013FD40C01860D2
:10283000B12E8FEFE81AF80A00811B2DC6CF802F2A
:102840008F7D8534A1F580818D3211F4106106C031
:102850008B3221F0319661E070E004C081813296C4
:1028600062E070E080538A3018F0E61BF70B1FC05F
:1028700060E070E060389CE079075CF4DB01AA0F4F
:10288000BB1FAA0FBB1F6A0F7B1F660F771F680F46
:10289000711D3196DF0111978C9180538A3050F36E
:1028A00014FF03C0719561957109C60FD71F11FF01
:1028B00008C0C114D10429F0CF010197F60191831A
:1028C0008083CA01B9010E94F114212F23702330A3
:1028D00019F04B015C0106C04B015C01B7FAB094E2
:1028E000B7F8B09420E030E0A901C501B4010E941E
:1028F000EC14882309F43EC0D7FF06C0D195C195DA
:10290000D10907EA10E002C00FEB10E06801F8E11E
:10291000CF1AD10890E2E92EF12CCE15DF0574F024
:10292000F8012591359145915491C501B4010E945A
:1029300052154B015C01CE19DF09EFCF045011098C
:10294000F594E7940C151D0541F78A2D880F8B2D02
:10295000881F8F3F49F020E030E0A901C501B40194
:102960000E94EC14811106C082E290E09093DC0298
:102970008093DB02C501B40109C060E070E080E82B
:102980009FEF04C060E070E080EC9FE7CDB7DEB75A
:10299000ECE00C94401691110C94BF15803219F0A4
:1029A00089508550C8F70895FB01DC014150504023
:1029B00088F08D9181341CF08B350CF4805E65912C
:1029C00061341CF06B350CF4605E861B611171F391
:1029D000990B0895881BFCCF0E942E1508F481E006
:1029E0000895E89409C097FB3EF490958095709502
:1029F00061957F4F8F4F9F4F9923A9F0F92F96E94B
:102A0000BB279395F695879577956795B795F111BF
:102A1000F8CFFAF4BB0F11F460FF1BC06F5F7F4F5C
:102A20008F4F9F4F16C0882311F096E911C077236E
:102A300021F09EE8872F762F05C0662371F096E877
:102A4000862F70E060E02AF09A95660F771F881F46
:102A5000DAF7880F9695879597F90895990F0008EA
:102A6000550FAA0BE0E8FEEF16161706E807F90760
:102A7000C0F012161306E407F50798F0621B730BFB
:102A8000840B950B39F40A2661F0232B242B252B7C
:102A900021F408950A2609F4A140A6958FEF811D1F
:102AA000811D08950E9465150C94D9150E94CB15BF
:102AB00038F00E94D21520F0952311F00C94C21525
:102AC0000C94C81511240C940D160E94EA1570F38D
:102AD000959FC1F3950F50E0551F629FF001729FC3
:102AE000BB27F00DB11D639FAA27F00DB11DAA1FD2
:102AF000649F6627B00DA11D661F829F2227B00D1F
:102B0000A11D621F739FB00DA11D621F839FA00DA9
:102B1000611D221F749F3327A00D611D231F849FF9
:102B2000600D211D822F762F6A2F11249F57504050
:102B30009AF0F1F088234AF0EE0FFF1FBB1F661FCB
:102B4000771F881F91505040A9F79E3F510580F094
:102B50000C94C2150C940D165F3FE4F3983ED4F329
:102B6000869577956795B795F795E7959F5FC1F738
:102B7000FE2B880F911D9695879597F908959927B3
:102B80008827089597F99F6780E870E060E00895CE
:102B90009FEF80EC089500240A9416161706180675
:102BA0000906089500240A94121613061406050651
:102BB0000895092E0394000C11F4882352F0BB0FE2
:102BC00040F4BF2B11F460FF04C06F5F7F4F8F4F45
:102BD0009F4F089557FD9058440F551F59F05F3F80
:102BE00071F04795880F97FB991F61F09F3F79F02F
:102BF00087950895121613061406551FF2CF4695B1
:102C0000F1DF08C0161617061806991FF1CF869532
:102C10007105610508940895E894BB276627772716
:102C2000CB0197F908950E945516A59F900DB49F6A
:102C3000900DA49F800D911D112408952F923F9215
:102C40004F925F926F927F928F929F92AF92BF92BC
:102C5000CF92DF92EF92FF920F931F93CF93DF9368
:102C6000CDB7DEB7CA1BDB0B0FB6F894DEBF0FBEC5
:102C7000CDBF09942A88398848885F846E847D8412
:102C80008C849B84AA84B984C884DF80EE80FD8014
:102C90000C811B81AA81B981CE0FD11D0FB6F8948A
:102CA000DEBF0FBECDBFED010895A29FB001B39F5F
:102CB000C001A39F700D811D1124911DB29F700D45
:102CC000811D1124911D08955058BB27AA270E94E9
:102CD0007C160C94D9150E94CB1538F00E94D215A1
:102CE00020F039F49F3F19F426F40C94C8150EF423
:102CF000E095E7FB0C94C215E92F0E94EA1558F302
:102D0000BA17620773078407950720F079F4A6F5D0
:102D10000C940C160EF4E0950B2EBA2FA02D0B017F
:102D2000B90190010C01CA01A0011124FF27591B10
:102D300099F0593F50F4503E68F11A16F040A22F16
:102D4000232F342F4427585FF3CF46953795279587
:102D5000A795F0405395C9F77EF41F16BA0B620B86
:102D6000730B840BBAF09150A1F0FF0FBB1F661FCD
:102D7000771F881FC2F70EC0BA0F621F731F841F10
:102D800048F4879577956795B795F7959E3F08F036
:102D9000B0CF9395880F08F09927EE0F97958795F8
:102DA00008950E94E5160C94D9150E94D21558F08A
:102DB0000E94CB1540F029F45F3F29F00C94C21516
:102DC00051110C940D160C94C8150E94EA1568F365
:102DD0009923B1F3552391F3951B550BBB27AA27D4
:102DE00062177307840738F09F5F5F4F220F331F0E
:102DF000441FAA1FA9F335D00E2E3AF0E0E832D0D6
:102E000091505040E695001CCAF72BD0FE2F29D0D8
:102E1000660F771F881FBB1F261737074807AB07AA
:102E2000B0E809F0BB0B802DBF01FF2793585F4F1F
:102E30003AF09E3F510578F00C94C2150C940D1693
:102E40005F3FE4F3983ED4F3869577956795B79501
:102E5000F7959F5FC9F7880F911D9695879597F90C
:102E60000895E1E0660F771F881FBB1F6217730785
:102E70008407BA0720F0621B730B840BBA0BEE1F9A
:102E800088F7E09508950E944A176894B1110C9450
:102E90000D1608950E94F21588F09F5798F0B92FEB
:102EA0009927B751B0F0E1F0660F771F881F991F7F
:102EB0001AF0BA95C9F714C0B13091F00E940C16FF
:102EC000B1E008950C940C16672F782F8827B85F0F
:102ED00039F0B93FCCF3869577956795B395D9F7D7
:102EE0003EF490958095709561957F4F8F4F9F4FE1
:102EF00008950E942E1508F48FEF089519F416F422
:102F00000C94C8150C94C9170E94F215B8F39923B4
:102F1000C9F3B6F39F57550B87FF0E94D7170024BC
:102F2000A0E640EA900180585695979528F4805C79
:102F3000660F771F881F20F026173707480730F4E1
:102F4000621B730B840B202931294A2BA6951794F9
:102F50000794202531254A2758F7660F771F881FC9
:102F600020F026173707480730F4620B730B840BE9
:102F7000200D311D411DA09581F7B901842F915875
:102F8000880F9695879508950E942E15880B990BAA
:102F900008959F3F31F0915020F48795779567957C
:102FA000B795880F911D9695879597F9089591503B
:102FB0005040660F771F881FD2F70895A1E21A2E9E
:102FC000AA1BBB1BFD010DC0AA1FBB1FEE1FFF1FCD
:102FD000A217B307E407F50720F0A21BB30BE40B1D
:102FE000F50B661F771F881F991F1A9469F7609564
:102FF0007095809590959B01AC01BD01CF0108951E
:10300000052E97FB1EF400940E94171857FD07D059
:103010000E94DE1707FC03D04EF40C94171850954D
:103020004095309521953F4F4F4F5F4F08959095B4
:103030008095709561957F4F8F4F9F4F0895EE0F4C
:10304000FF1F0590F491E02D09940F931F93CF93E8
:10305000DF938230910510F482E090E0E091DF028E
:10306000F091E00220E030E0A0E0B0E0309719F10C
:10307000408151810281138148175907C8F0841794
:10308000950769F4109731F012960C9312971396E6
:103090001C9327C00093DF021093E00222C0211589
:1030A000310519F04217530718F49A01BD01EF01D9
:1030B000DF01F801DBCF21153105F9F0281B390BB1
:1030C0002430310580F48A819B816115710521F0DE
:1030D000FB019383828304C09093E0028093DF021C
:1030E000FE01329644C0FE01E20FF31F81939193DB
:1030F00022503109398328833AC02091DD02309172
:10310000DE02232B41F420910E0130910F01309308
:10311000DE022093DD0220910C0130910D0121157A
:10312000310541F42DB73EB7409110015091110186
:10313000241B350BE091DD02F091DE02E217F3076C
:10314000A0F42E1B3F0B2817390778F0AC014E5F17
:103150005F4F2417350748F04E0F5F1F5093DE0274
:103160004093DD028193919302C0E0E0F0E0CF0153
:10317000DF91CF911F910F910895CF93DF93009727
:1031800009F481C0FC01329713821282A091DF0200
:10319000B091E002109781F420813181820F931F5A
:1031A0002091DD023091DE022817390751F5F093A6
:1031B000DE02E093DD0267C0ED0120E030E0CE17D3
:1031C000DF0740F44A815B819E0141155105F1F012
:1031D000EA01F5CFD383C28340815181840F951FCB
:1031E000C817D90759F488819981840F951F0296D1
:1031F000918380838A819B8193838283211531050A
:1032000029F4F093E002E093DF023DC0E901FB8383
:10321000EA8349915991C40FD51FEC17FD0761F45A
:1032200080819181840F951F0296E901998388839B
:10323000828193819B838A83E0E0F0E012968D91F6
:103240009C911397009719F0FD01DC01F7CF8D9148
:103250009C9111979D012E5F3F4F820F931F2091EC
:10326000DD023091DE022817390769F4309729F41E
:103270001092E0021092DF0202C013821282B09319
:10328000DE02A093DD02DF91CF910895A0E0B0E0CF
:10329000ECE4F9E10C942216EC01009721F4CB0147
:1032A0000E942518B4C0FC01E60FF71F9C012250B4
:1032B0003109E217F30708F4A8C0D9010D911C9158
:1032C000119706171707B0F00530110508F49BC0D9
:1032D000C80104978617970708F495C00250110992
:1032E000061B170B019311936D937C93CF010E94E2
:1032F000BD1889C05B01A01AB10A4C01800E911E55
:10330000A091DF02B091E002612C712CE12CF12C34
:10331000109709F446C08D919C911197A815B90595
:10332000B1F56C0142E0C40ED11CCA14DB0478F183
:103330004C018A189B08640142E0C40ED11C12960D
:10334000BC9012971396AC91B5E0CB16D10440F027
:10335000B282A38391828082D9016D937C9309C04C
:103360000E5F1F4F800F911FF90191838083EB2D1A
:10337000FA2FE114F10431F0D7011396FC93EE9388
:10338000129741C0F093E002E093DF023CC0681660
:10339000790608F43C017D0112960D90BC91A02D98
:1033A000B7CF8091DD029091DE0288169906E1F494
:1033B00066167706C8F480910C0190910D01009774
:1033C00041F48DB79EB74091100150911101841BBB
:1033D000950BE817F907C8F4F093DE02E093DD02DD
:1033E000F901718360830FC0CB010E9425187C0115
:1033F000009759F0A801BE010E94111ACE010E9447
:10340000BD18C70104C0CE0102C080E090E0CDB776
:10341000DEB7EEE00C943E1681E090E0F8940C9458
:10342000351AFB01DC0102C001900D924150504061
:10343000D8F70895FC018191861721F08823D9F7E8
:10344000992708953197CF010895FB01DC018D91F3
:10345000019080190110D9F3990B0895FB01DC014B
:1034600001900D920020E1F7089510E0C0E9D0E04E
:1034700004C0FE010E941F182196C139D107C9F767
:04348000F894FFCFEE
:10348400FFFFFFFF00803B45000096430000E10280
:103494008000000000005201BC00E9009F011A01F5
:1034A400F8000C0100000000DC03A80370032903EA
:1034B4001303DB02BA02860265020F02CB016E6FB0
:1034C4002073656E736F72000D0A006E616E006981
:1034D4006E66006F76660065730063616C006D6FE5
:1034E400766500706F7300737064006163630065D8
:1034F400733A006E6F742063616C69627261746503
:02350400640061
:00000001FF
