:100000000C9491000C94B9000C94B9000C94B900B4
:100010000C94B9000C94B9000C94B9000C94B9007C
:100020000C94B9000C94B9000C94E9040C940006EB
:100030000C94B9000C9413060C94B9000C94B900FC
:100040000C94690C0C94B9000C94B7040C949104B2
:100050000C94B9000C94B9000C94B9000C94B9003C
:100060000C94B9000C94B900E301E901EF01F5012A
:10007000FB010102070238033F0346034D0354030B
:100080006B035B036B0362034E414E494E49545967
:10009000494E46CDCCCC3D0AD7233C17B7D1387753
:1000A000CC2B329595E6241FB14F0A000020410069
:1000B00000C84200401C4620BCBE4CCA1B0E5AAEB3
:1000C000C59D7400000000250028002B00000000E2
:1000D000002300260029000404040404040404028C
:1000E00002020202020303030303030102040810D5
:1000F00020408001020408102001020408102000A2
:1001000000000800020100000304070000000000D6
:1001100000000000000000240027002A00006812F0
:10012000531211241FBECFEFD8E0DEBFCDBF22E0B7
:10013000AEE7B1E001C01D92A53CB207E1F711E0C6
:10014000A0E0B1E0E4EBF4E302C005900D92AE371D
:10015000B107D9F710E0C0E9D0E004C02197FE0153
:100160000E943718CF38D107C9F70E94B30C0C94FE
:100170004D1A0C9400000895CF92DF92EF92FF92F7
:100180000F931F93CF93DF936C017A018B01C0E033
:10019000D0E0CE15DF0581F0D8016D918D01D6013B
:1001A000ED91FC910190F081E02DC6010995892B1C
:1001B00011F02196EECF7E01C701DF91CF911F9103
:1001C0000F91FF90EF90DF90CF90089580E090E046
:1001D0000895FC01538D448D252F30E0842F90E04D
:1001E000821B930B541710F0CF9608950197089532
:1001F000FC01918D828D981761F0828DDF01A80F2F
:10020000B11D5D968C91928D9F5F9F73928F90E050
:1002100008958FEF9FEF0895FC01918D828D9817BF
:1002200031F0828DE80FF11D858D90E008958FEFFC
:100230009FEF0895FC01918D228D892F90E0805CC5
:100240009F4F821B91098F73992708958FEA91E040
:100250000E941A0121E0892B09F420E0822F0895E1
:10026000FC01848DDF01A80FB11DA35ABF4F2C9153
:10027000848D90E001968F739927848FA689B78922
:100280002C93A089B1898C91837080648C93938D19
:10029000848D981306C00288F389E02D80818F7DBC
:1002A00080830895EF92FF920F931F93CF93DF9374
:1002B000EC0181E0888F9B8D8C8D981305C0E889B7
:1002C000F989808185FD26C0F62E0B8D10E00F5F29
:1002D0001F4F0F731127E02E8C8DE8120CC00FB644
:1002E00007FCFACFE889F989808185FFF5CFCE0137
:1002F0000E943001F1CF8B8DFE01E80FF11DE35A12
:10030000FF4FF0829FB7F8940B8FEA89FB898081B9
:1003100080620AC09FB7F894EE89FF896083E889FC
:10032000F98980818370806480839FBF81E090E041
:10033000DF91CF911F910F91FF90EF900895CF9390
:10034000DF93EC01888D8823C9F0EA89FB898081DD
:1003500085FD05C0A889B9898C9186FD0FC00FB6AF
:1003600007FCF5CF808185FFF2CFA889B9898C91F0
:1003700085FFEDCFCE010E943001E7CFDF91CF9115
:10038000089580E090E0892B29F00E9426018111D8
:100390000C9400000895CF93DF934770552766278C
:1003A0007727FA013197EC01A881B981E730F1058F
:1003B00020F4EC5CFF4F0C9437181496ED91FC91EF
:1003C000159761E029C01496ED91FC91159765E0B1
:1003D00023C01496ED91FC91159764E01DC014960E
:1003E000ED91FC91159766E017C01496ED91FC9184
:1003F000159762E011C01496ED91FC9115976AE093
:100400000BC01496ED91FC91159768E005C0149609
:10041000ED91FC91159769E0DF91CF910994CF930D
:10042000DF93EC01CB01BA0126E030E040E050E080
:100430000E941818623071058105910559F18CF4FC
:100440006115710581059105F1F061307105810536
:100450009105C1F5E881F9810480F581E02D65E021
:100460002DC0643071058105910511F1D4F065301E
:1004700071058105910531F5E881F9810480F581E7
:10048000E02D66E01BC0E881F9810480F581E02D54
:1004900064E014C0E881F9810480F581E02D61E019
:1004A0000DC0E881F9810480F581E02D63E006C08C
:1004B000E881F9810480F581E02D62E0CE01DF91D1
:1004C000CF910994DF91CF91089543705527662706
:1004D0007727DC01ED91FC910480F581E02D42301D
:1004E00051056105710571F04330510561057105D4
:1004F00059F0413051056105710511F065E005C005
:1005000066E003C06AE001C069E00994CF93DF931D
:10051000EC01CB01BA0123E030E040E050E00E9462
:100520001818613071058105910581F062307105FF
:100530008105910591F0672B682B692BC1F4E88147
:10054000F9810480F581E02D64E00DC0E881F98136
:100550000480F581E02D61E006C0E881F981048026
:10056000F581E02D62E0CE01DF91CF910994DF911A
:10057000CF9108954370552766277727DC01ED91C9
:10058000FC910480F581E02D423051056105710533
:1005900071F0433051056105710559F04130510545
:1005A0006105710511F062E005C063E003C061E020
:1005B00001C060E00994CF93DF93EC01E881F981F9
:1005C0000480F581E02D8A81811102C060E001C0C4
:1005D00062E0CE010995E881F9810480F581E02D82
:1005E0008A81811102C061E001C063E0CE010995FA
:1005F0008CA59DA58230910538F0880F991F880F32
:10060000991F05970197F1F7E881F9810480F58139
:10061000E02D8A81811102C060E001C062E0CE015C
:10062000DF91CF910994CF93DF93EC0120E030E08C
:10063000A9016C897D898E899F890E94911718165E
:100640001CF4E8A9F9A902C0EAA9FBA9DF91CF919E
:1006500009940F931F93DC011396EC910E2F10E079
:1006600009301105C0F5F801E55CFF4F0C9437180F
:10067000DC01ED91FC910084F185E02D29C0DC01C5
:10068000ED91FC910284F385E02D22C0DC01ED9117
:10069000FC910484F585E02D1BC0DC01ED91FC91FB
:1006A0000684F785E02D14C0DC01ED91FC910088F3
:1006B000F189E02D0DC0DC01ED91FC910288F389F8
:1006C000E02D06C0DC01ED91FC910488F589E02D58
:1006D0001F910F9109941F910F9108950E94241A60
:1006E000CF92DF92EF92FF920F931F93CF93DF93FE
:1006F000EC019B81943041F0983031F0933031F02F
:10070000963021F012E003C014E001C013E02496FB
:10071000E12CF12CC62ED12C01E0C6010E2C02C01A
:10072000959587950A94E2F76C8180FD6027899101
:100730000E94D90B8FEFE81AF80AE11670F3DF91E7
:10074000CF911F910F91FF90EF90DF90CF90089580
:10075000CF93DF93FC012381222359F1EC0161E067
:1007600084810E94080C61E08D810E94080C8B81BD
:10077000843011F0883039F461E08E810E94080CD9
:1007800061E08F8106C0833011F0863021F461E092
:100790008E810E94080C8FA58F3F59F061E00E9466
:1007A000080C6EA581E068278FA5DF91CF910C948E
:1007B000D90BDF91CF910895CF93DF93FC01238173
:1007C0002223A9F0EC010190F081E02D0480F58155
:1007D000E02D60E009958FA58F3F49F061E00E9410
:1007E000080C6EA58FA5DF91CF910C94D90BDF91EA
:1007F000CF910895FC0180819181009711F00C94B4
:10080000551360E070E0CB0108950F931F93CF93D1
:10081000DF938C01EB01FC0180819181009739F01D
:100820006881798161157105A1F40E94D5188881CC
:100830009981F801918380838A819B81938382834C
:100840008C819D8195838483198218821B821A82F0
:100850000FC0F801428153812C813D81421753071B
:1008600020F30E94461A8C819D81F8019583848330
:100870001D821C82DF91CF911F910F9108950F93DC
:100880001F93CF93DF93EC0188819981009729F022
:100890002A813B812617370788F48B016F5F7F4FD2
:1008A0000E945E19009761F0998388831B830A83F5
:1008B0002C813D81232B11F4FC01108281E001C0C9
:1008C00080E0DF91CF911F910F910895EF92FF92F9
:1008D0000F931F93CF93DF93EC017B018A01BA0141
:1008E0000E943F042881398181110DC021153105F5
:1008F00019F0C9010E94D518198218821D821C8224
:100900001B821A8206C01D830C83B701C9010E9495
:10091000461ACE01DF91CF911F910F91FF90EF907A
:1009200008951F920F920FB60F9211242F933F93A9
:100930004F935F936F937F938F939F93AF93BF93E7
:10094000EF93FF938FEA91E00E943001FF91EF91C6
:10095000BF91AF919F918F917F916F915F914F91D7
:100960003F912F910F900FBE0F901F9018951F92DF
:100970000F920FB60F9211242F938F939F93EF93A3
:10098000FF93E091BF01F091C0018081E091C5012A
:10099000F091C60182FD12C090818091C8018F5FE5
:1009A0008F732091C901821751F0E091C801F0E0E6
:1009B000E155FE4F958F8093C80101C08081FF9162
:1009C000EF919F918F912F910F900FBE0F901F90DD
:1009D00018951F920F920FB60F921124CF92DF92AB
:1009E000EF92FF920F931F932F933F934F935F9339
:1009F0006F937F938F939F93AF93BF93EF93FF93E7
:100A00002091860030918700C9013091810020E457
:100A1000232720938100B59A20917E0130917F0198
:100A2000D901B09B05C08F3F4FE7940708F4BFC0C2
:100A30002091810026FFABC020918001309181017F
:100A40002115310509F44DC02130310509F052C09E
:100A5000C090A701D090A801E090A901F090AA0150
:100A600000918F011091900120919101309192019C
:100A7000080F191F2A1F3B1F0C191D092E093F09BA
:100A800000938F0110939001209391013093920174
:100A9000C0908201D0908301E0908401F0908501A4
:100AA00000918701109188012091890130918A017C
:100AB000BC01CD01601B710B820B930B0E940915C9
:100AC0009B01AC01C701B6010E94E9160E946217A2
:100AD0006093A3017093A4018093A5019093A60154
:100AE0004CC08093870190938801A0938901B093B3
:100AF0008A0143C0C090A701D090A801E090A9014D
:100B0000F090AA0100918F01109190012091910124
:100B100030919201080F191F2A1F3B1F0C191D0944
:100B20002E093F0900938F011093900120939101AA
:100B300030939201209180013091810127703327F9
:100B4000232BD9F4C0908701D0908801E0908901CF
:100B5000F0908A010091A3011091A4012091A501B8
:100B60003091A601AC01BD014C195D096E097F09E8
:100B70004017510762077307E8F480918001909154
:100B800081010196909381018093800122C09C0194
:100B9000205C334630938900209388008093A7011E
:100BA0009093A801A093A901B093AA0112C0D90102
:100BB00011963ECF80938B0190938C01A0938D0171
:100BC000B0938E0110926F0083E286BB81E0809328
:100BD0008601FF91EF91BF91AF919F918F917F918E
:100BE0006F915F914F913F912F911F910F91FF90C6
:100BF000EF90DF90CF900F900FBE0F901F90189541
:100C00001F920F920FB60F9211248F9310926F00C4
:100C100083E286BB82E0809386018F910F900FBEA6
:100C20000F901F9018951F920F920FB60F921124DC
:100C30008F939F9380917E0190917F010196909375
:100C40007F0180937E019F918F910F900FBE0F9037
:100C50001F9018958FE691E00E949A0884E491E035
:100C60000C949A084F925F926F927F928F929F920C
:100C7000AF92BF92CF92DF92EF92FF920F931F93AA
:100C8000CF93DF93C0908602D0908702E0908802D5
:100C9000F09089028091820290918302A091840257
:100CA000B0918502C81AD90AEA0AFB0A60918A0241
:100CB00070918B0280918C0290918D029B01AC010E
:100CC0000E946A154B015C0160919202709193023F
:100CD00080919402909195029B01AC010E947D1637
:100CE0009B01AC01C501B4010E94E9160E945B178B
:100CF000C114D104E104F104F9F4623071058105F5
:100D000091050CF092C010929A0210929B021092E0
:100D10009C0210929D0210928A0210928B021092F5
:100D20008C0210928D021092AA021092AB021092C5
:100D3000AC021092AD022AC10091AA021091AB023E
:100D40002091AC023091AD021C141D041E041F043E
:100D50000CF5101611061206130654F46C157D05D9
:100D60008E059F0564F52091780221115EC027C091
:100D7000011511052105310509F457C06C157D05D4
:100D80008E059F050CF051C080917802882309F4EC
:100D90004CC03CC0101611061206130614F50027AD
:100DA000112798010C191D092E093F0960177107B9
:100DB0008207930724F4209178022223B1F19B014A
:100DC000AC0188279927DC01821B930BA40BB50B80
:100DD0008093AA029093AB02A093AC02B093AD02B1
:100DE00024C00115110521053105F9F08824992445
:100DF00054018C189D08AE08BF08681579058A054E
:100E00009B059CF48091780281110FC0309520954C
:100E1000109501951F4F2F4F3F4F0093AA0210933B
:100E2000AB022093AC023093AD028090AA02909066
:100E3000AB02A090AC02B090AD0281149104A10469
:100E4000B104D1F48091AE029091AF02A091B002B2
:100E5000B091B1028093B2029093B302A093B40216
:100E6000B093B50281E01C141D041E041F040CF095
:100E700080E0809378024AC0C090B202D090B30262
:100E8000E090B402F090B502A7019601C701B60147
:100E90000E947D162B013C01C501B4010E940B1577
:100EA00020E030E040E850E40E946A1520E030E0A5
:100EB00040E85FE30E947D169B01AC01C301B201D3
:100EC0000E94E9169B01AC01C701B6010E947C1685
:100ED000D62FC72F6C01E090B602F090B7020091B8
:100EE000B8021091B9029701A8010E949117181633
:100EF0001CF4ED2EFC2E8601C701D8018093B202AE
:100F00009093B302A093B402B093B5023FEF831A5B
:100F1000930AA30AB30A8092AA029092AB02A0920B
:100F2000AC02B092AD02C090B202D090B302E09099
:100F3000B402F090B502C701B6010E946217609337
:100F40009A0270939B0280939C0290939D02A7014A
:100F5000960160E074E284E799E40E94E9166093E8
:100F60008A0270938B0280938C0290938D02209161
:100F7000780221110BC0DC01CB01B05880938A02AA
:100F800090938B02A0938C02B0938D02DF91CF914E
:100F90001F910F91FF90EF90DF90CF90BF90AF9097
:100FA0009F908F907F906F905F904F9008958330C7
:100FB00081F028F4813099F08230A1F008958730D3
:100FC000A9F08830B9F08430D1F4809180008F7D11
:100FD00003C0809180008F7780938000089584B54E
:100FE0008F7702C084B58F7D84BD08958091B00055
:100FF0008F7703C08091B0008F7D8093B0000895FB
:10100000FC0111821082138212821582148240E048
:1010100050E066E471E00C9466044F925F926F9228
:101020007F928F929F92AF92BF92CF92DF92EF9278
:10103000FF926B017C0120E030E0A9010E940415C1
:1010400087FF04C0F7FAF094F7F8F09480909202CA
:1010500090909302A0909402B0909502A7019601FF
:10106000C501B4010E940415882309F456C060919B
:10107000AA027091AB028091AC029091AD020E94E5
:101080000B152B013C01A7019601C501B4010E947B
:10109000E9169B01AC01C301B2010E946A150E94CE
:1010A0005B176093AA027093AB028093AC0290939B
:1010B000AD02A701960160E070E080E090E40E943C
:1010C000E9160E949C1726E53EE04DE25FE30E9490
:1010D0006A1520E034E244E759E40E946A156093FF
:1010E000AE027093AF028093B0029093B102C092AF
:1010F0009202D0929302E0929402F0929502FF90B5
:10110000EF90DF90CF90BF90AF909F908F907F90A7
:101110006F905F904F900C943206FF90EF90DF90AD
:10112000CF90BF90AF909F908F907F906F905F9087
:101130004F900895009769F0FC0101900020E9F7B5
:101140003197AF01481B590BBC018FEA91E00C9419
:10115000BC0080E090E00895CF93DF93EC0161152F
:10116000710559F0FB0101900020E9F73197AF01BB
:10117000461B570B0E9466040CC08881998100971A
:1011800011F00E94D518198218821D821C821B82C0
:101190001A82CE01DF91CF910895CF92DF92EF9224
:1011A000FF9280919A0290919B02A0919C02B09133
:1011B0009D02892B8A2B8B2B09F450C00E94440C72
:1011C0006B017C0180919E0290919F02A091A002F0
:1011D000B091A102B701A601481B590B6A0B7B0B0A
:1011E00080919A0290919B02A0919C02B0919D02E5
:1011F000481759076A077B0788F120917802809188
:10120000820290918302A0918402B09185022223F0
:1012100021F00196A11DB11D03C00197A109B109DB
:101220008093820290938302A0938402B0938502FC
:1012300040918202509183026091840270918502F4
:1012400086E792E00E942903C0929E02D0929F02FC
:10125000E092A002F092A1020E94320620E030E06B
:10126000A90160918A0270918B0280918C02909109
:101270008D020E940415811118C081E0C090860281
:10128000D0908702E0908802F0908902409182021B
:10129000509183026091840270918502C416D50634
:1012A000E606F70619F480E001C081E0FF90EF90B8
:1012B000DF90CF9008950F931F93009186021091B5
:1012C00087022091880230918902061717072807A4
:1012D000390761F0609386027093870280938802D9
:1012E000909389021F910F910C9432061F910F91D8
:1012F00008958F929F92AF92BF92CF92DF92EF921A
:10130000FF920F931F93CF93DF938B01D82FC92F99
:10131000C0908E02D0908F02E0909002F0909102E7
:1013200046015701B7FAB094B7F8B0949B01482F23
:10133000592FC501B4010E94911718166CF098013D
:101340004D2F5C2FC701B6010E94041587FD06C012
:101350006801ED2EFC2E02C07501640120E030E032
:10136000A901C701B6010E940415811109C010929C
:101370009A0210929B0210929C0210929D0220C031
:10138000A701960160E074E284E799E40E94E916FF
:101390009F770E94621760939A0270939B028093DA
:1013A0009C0290939D02C1E020E030E0A901C701BA
:1013B000B6010E94911718160CF0C0E0C093780295
:1013C000C0928A02D0928B02E0928C02F0928D023F
:1013D000DF91CF911F910F91FF90EF90DF90CF9011
:1013E000BF90AF909F908F900895CF92DF92EF9231
:1013F000FF926B017C0120E030E0A9010E940415FE
:1014000087FF04C0F7FAF094F7F8F094A70196016B
:1014100060918E0270918F02809190029091910262
:101420000E940415882309F455C0C0928E02D09200
:101430008F02E0929002F0929102A701960160E083
:1014400074E284E799E40E94E9166093B60270930F
:10145000B7028093B8029093B9028091AA0290914A
:10146000AB02A091AC02B091AD02181619061A0693
:101470001B0684F560918A0270918B0280918C0228
:1014800090918D029B01AC010E946A156B017C0159
:1014900060919202709193028091940290919502D2
:1014A0009B01AC010E947D169B01AC01C701B601F6
:1014B0000E94E9160E945B176093AA027093AB0228
:1014C0008093AC029093AD02FF90EF90DF90CF90AD
:1014D0000C943206FF90EF90DF90CF9008958F929A
:1014E0009F92AF92BF92CF92DF92EF92FF92809045
:1014F0008A0290908B02A0908C02B0908D0220E026
:1015000030E0A901C501B4010E940415882309F443
:101510004BC0A5019401C501B4010E946A156B017D
:101520007C0160919202709193028091940290915B
:1015300095029B01AC010E947D169B01AC01C70185
:10154000B6010E94E9160E945B176B017C012FEF28
:10155000C21AD20AE20AF20A20E030E0A901C5016B
:10156000B4010E94911740918202509183026091D0
:1015700084027091850218163CF4CB01BA016C0DFF
:101580007D1D8E1D9F1D06C0CB01BA016C197D0902
:101590008E099F09FF90EF90DF90CF90BF90AF90A2
:1015A0009F908F900C945B09FF90EF90DF90CF900D
:1015B000BF90AF909F908F9008958F929F92AF921F
:1015C000BF920F931F93CF93DF93CDB7DEB7A19751
:1015D0000FB6F894DEBF0FBECDBF19A2423008F49B
:1015E0004AE08E010F5D1F4F842E912CA12CB12C4F
:1015F000A50194010E94F617E62FB901CA01015016
:101600001109EA3014F4E05D01C0E95CD801EC9303
:10161000232B242B252B61F7C8010E949A08A19641
:101620000FB6F894DEBF0FBECDBFDF91CF911F91F3
:101630000F91BF90AF909F908F900895CF93DF93BD
:10164000E9E0F1E08491E5EFF0E0D491E1EEF0E043
:10165000C491CC2391F081110E94D707EC2FF0E0C8
:10166000EE0FFF1FE353FF4FA591B491EC91ED23D3
:1016700081E090E021F480E002C080E090E0DF9122
:10168000CF9108958F929F92AF92BF92CF92DF92A7
:10169000EF92FF920E94440C4B015C0185E0C82E42
:1016A000D12CE12CF12C0E94440CDC01CB018819D7
:1016B0009909AA09BB09883E9340A105B10598F391
:1016C00021E0C21AD108E108F10888EE880E83E013
:1016D000981EA11CB11CC114D104E104F10419F736
:1016E000FF90EF90DF90CF90BF90AF909F908F9042
:1016F0000895FC018091500290915102892B21F4B0
:1017000021E0309749F413C080914C0290914D0232
:10171000309731F421E0FC018081882341F006C03C
:10172000BF010E943D1A21E0892B09F020E0822FA1
:1017300008952FB7F8948091AB019091AC01A091DE
:10174000AD01B091AE012FBF8093B7019093B80166
:10175000A093B901B093BA018FEA91E00E94F8001A
:1017600097FF26C02FB7F8948091AB019091AC0100
:10177000A091AD01B091AE012FBF4091B701509142
:10178000B8016091B9017091BA01841B950BA60B49
:10179000B70B4091B3015091B4016091B5017091C4
:1017A000B60184179507A607B707B0F28FEF9FEF32
:1017B00008951F93CF93DF93282F30E0F901E15074
:1017C000FF4F8491F901E551FF4FD491F901E9529E
:1017D000FF4FC491CC23C1F0162F81110E94D7076F
:1017E000EC2FF0E0EE0FFF1FED53FF4FA591B491EA
:1017F0009FB7F894111104C08C91D095D82302C0E2
:10180000EC91DE2BDC939FBFDF91CF911F91089568
:10181000CF93DF9390E0FC01E551FF4F2491FC0151
:10182000E952FF4F8491882361F190E0880F991F5E
:10183000FC01ED5EFE4FC591D491FC01ED53FF4FCD
:10184000A591B491611109C09FB7F8948881209542
:1018500082238883EC912E230BC0623061F49FB702
:10186000F8948881322F309583238883EC912E2B36
:101870002C939FBF06C08FB7F894E8812E2B288346
:101880008FBFDF91CF9108953FB7F8948091BB024D
:101890009091BC02A091BD02B091BE0226B5A89B5A
:1018A00005C02F3F19F00196A11DB11D3FBFBA2FF2
:1018B000A92F982F8827820F911DA11DB11DBC0152
:1018C000CD0142E0660F771F881F991F4A95D1F717
:1018D00008951F920F920FB60F9211242F933F93EA
:1018E0008F939F93AF93BF938091AB019091AC0185
:1018F000A091AD01B091AE013091BA0223E0230F67
:101900002D3720F40196A11DB11D05C026E8230F37
:101910000296A11DB11D2093BA028093AB01909352
:10192000AC01A093AD01B093AE018091BB02909148
:10193000BC02A091BD02B091BE020196A11DB11DD5
:101940008093BB029093BC02A093BD02B093BE02F1
:10195000BF91AF919F918F913F912F910F900FBEAB
:101960000F901F901895CF93DF93CDB7DEB7609798
:101970000FB6F894DEBF0FBECDBF789484B58260F9
:1019800084BD84B5816084BD85B5826085BD85B523
:10199000816085BD80916E00816080936E001092A1
:1019A000810080918100826080938100809181001C
:1019B00081608093810080918000816080938000AD
:1019C0008091B10084608093B1008091B00081600B
:1019D0008093B00080917A00846080937A00809137
:1019E0007A00826080937A0080917A00816080938F
:1019F0007A0080917A00806880937A001092C1000A
:101A0000E091BF01F091C00182E08083E091BB01D1
:101A1000F091BC011082E091BD01F091BE0180E126
:101A200080831092C701E091C301F091C40186E068
:101A30008083E091C101F091C20180818061808347
:101A4000E091C101F091C201808188608083E091C2
:101A5000C101F091C201808180688083E091C10161
:101A6000F091C20180818F7D808362E08AE00E94D4
:101A7000080C83E2282ECE0101962C0196E0392E27
:101A80002FB7F8948091AB019091AC01A091AD017A
:101A9000B091AE012FBF80939F019093A001A093BE
:101AA000A101B093A20140918602509187026091FA
:101AB0008802709189028091820290918302A091A4
:101AC0008402B0918502481759076A077B0731F0F5
:101AD0000E94CD0891E090939E0102C010929E0159
:101AE00080919F019091A001A091A101B091A201CC
:101AF00040919A0150919B0160919C0170919D01D0
:101B0000841B950BA60BB70B883E9340A105B1052E
:101B10000CF458C18AE899EAA6ECBFE480938201EC
:101B200090938301A0938401B09385011092860164
:101B3000109281011092800110928F0110929001F9
:101B4000109291011092920110927F0110927E01E9
:101B500010928000109281001092850010928400F3
:101B6000A0E4BCE9B0938900A0938800B1E4B093ED
:101B7000810026BA20926F0080918601813069F041
:101B8000D8F3823009F061C08AE391E00E949A089C
:101B900084E491E00E949A0858C060918F0170918E
:101BA00090018091910190919201C0908B01D09011
:101BB0008C01E0908D01F0908E01809087019090D3
:101BC0008801A0908901B0908A010E9409156D8753
:101BD0007E878F87988BC701B601681979098A09B2
:101BE0009B090E9409159B01AC016D857E858F853F
:101BF00098890E94E9166B017C019B01AC010E944F
:101C00006A152DE33AE047EB5FEB0E946A154B0142
:101C10005C012CE53FE846E553E4C701B6010E94AC
:101C20006A159B01AC01C501B4010E947D1623E336
:101C300033E349E852E40E947C1660939601709366
:101C400097018093980190939901C0909601D0904C
:101C50009701E0909801F0909901A7019601C701C2
:101C6000B6010E94DC17882319F087E491E01AC0BE
:101C700046015701E894B7F82FEF3FEF4FE75FE7D2
:101C8000C501B4010E94DC1781110FC02FEF3FEF97
:101C90004FE75FE7C501B4010E94041518162CF444
:101CA0008BE491E00E949A0876C02FEF3FEF4FE758
:101CB0005FE4C701B6010E94911718161CF48FE467
:101CC00091E0F0CF2FEF3FEF4FE75FECC701B60198
:101CD0000E94041587FDF3CF20E030E0A901C70181
:101CE000B6010E94041587FF09C06DE28FEA91E0FA
:101CF0000E945201F7FAF094F7F8F0942AE037EDD9
:101D000043EA5BE3C701B6010E947D164B015C010B
:101D10000E9462176B017C010E9409159B01AC01B6
:101D2000C501B4010E947C164B015C014AE0C70169
:101D3000B6010E94DD0A6EE28FEA91E00E94520134
:101D400020E030E040E251E4C501B4010E946A1590
:101D50004B015C010E9462176B01E12CF12C4AE0FF
:101D6000C701B6010E94DD0AC701B6010E9409152C
:101D70009B01AC01C501B4010E947C1620E030E05B
:101D800040E251E40E946A150E94621780E090E0F0
:101D90004AE00E94DD0A84E491E00E949A082FB78D
:101DA000F8948091AB019091AC01A091AD01B091FC
:101DB000AE012FBF80939A0190939B01A0939C0149
:101DC000B0939D018FEA91E00E941A01181619063E
:101DD0000CF023C2C2010E9400080E94990B97FDDB
:101DE0001DC08A309105D1F08F8318860D811E8128
:101DF0000F5F1F4FB801C2010E943F04882369F39F
:101E000029813A818D819E81BE01695F7F4F820F5A
:101E1000931F0E94461A1E830D83DFCFB20180E715
:101E200092E00E94050489819A810E94D518188643
:101E30001F821A8619861C861B866091700270911B
:101E400071026115710541F0409174025091750263
:101E5000CE0107960E9466040E94CD08A12CB12CE9
:101E6000E12CF12C4501CB84DC84AC14BD0478F466
:101E70006F8078846AE370E0C3018A0D9B1D0E9425
:101E8000321A009721F08C010619170902C00FEFD2
:101E90001FEFC5010196801791070CF043C0680140
:101EA0000A151B0510F065014801C2010E940008D7
:101EB000AB84BC84CA14DB04B8F48A149B0408F411
:101EC0005401EF81F885EA0DFB1D908010826F812F
:101ED00078856C0D7D1DC2010E94AC088F819885AC
:101EE000FC01EA0DFB1D90823E9CC0013F9C900DC1
:101EF0001124845B9D4F4816590619F0B2010E94C7
:101F0000050489819A810E94D5182FEFE21AF20AFE
:101F100086E0E816F1040CF04AC058019FEFA91AB8
:101F2000B90AA0CF17FF9ECFA6E0EA16F104ECF5A0
:101F3000CA14DB0428F09C2D8D2D6501892E982E66
:101F4000C2010E9400080B851C85C016D106B8F49A
:101F50008016910608F48401EF81F885E00FF11FE7
:101F6000B08010826F8178856C0D7D1DC2010E944A
:101F7000AC088F819885FC01E00FF11FB0823E9C78
:101F8000C0013F9C900D1124845B9D4F481659065B
:101F900019F0B2010E94050489819A810E94D51826
:101FA000BFEFEB1AFB0A0E94CD080E94CD08F09209
:101FB0009501E09294018F8198850E94D5180E9426
:101FC000CD0883E591E00E94790B882339F1809157
:101FD000940190919501019709F58BE691E00E949B
:101FE0009A080E941E0B6C01990FEE08FF08F7FE7D
:101FF00019C16DE28FEA91E00E94520166277727AE
:10200000CB016C197D098E099F094AE00E94DD0A07
:1020100084E491E00E949A080E94CD080E94CD08B5
:1020200086E591E00E94790B882391F180919401DB
:1020300090919501049761F5F9C010928202109277
:1020400083021092840210928502109286021092EE
:10205000870210928802109289021092AA021092AE
:10206000AB021092AC021092AD0210929A02109242
:102070009B0210929C0210929D0210928A02109272
:102080008B0210928C0210928D0291E0909393013A
:102090000E94CD088AE591E00E94790B882309F41B
:1020A00048C08091940190919501029709F041C038
:1020B0008091520290915302009709F4C4C10E948A
:1020C00059136B017C0180919301882309F4B8C1F5
:1020D00080919E0181110E946F0A8090040190906E
:1020E0000501A0900601B0900701C501B4010E944E
:1020F000F50960E070E88BE395E40E940D082091FB
:102100008A0230918B0240918C0250918D02C50160
:10211000B4010E940415882321F0C501B4010E9476
:102120007909B601DD0C880B990B0E945B090E94AE
:10213000CD080E94CD088FE591E00E94790B88239D
:1021400009F44BC08091940190919501029709F098
:1021500044C08091520290915302009709F485C1C6
:102160000E9459136B017C0180900401909005013D
:10217000A0900601B0900701C501B4010E94F509C5
:1021800060E070E88BE395E40E940D0820918A02DC
:1021900030918B0240918C0250918D02C501B401A7
:1021A0000E940415882321F0C501B4010E94790919
:1021B00080919301882309F455C180919E010D2CD3
:1021C000000CEE08FF08811142C1C701B6010E9450
:1021D0005B090E94CD088111FCCF0E94CD0883E6E7
:1021E00091E00E94790B882339F0809194019091BD
:1021F0009501029709F43DC10E94CD0887E691E060
:102200000E94790B882339F0809194019091950177
:10221000029709F43BC10E94CD080E94CD080E949C
:10222000C1012ECC4AE0C701B601F0CE8EE592E0A6
:102230000E94FA036D877E878F87988B88E592E0EE
:102240000E94FA036B017C0180915202909153022B
:10225000009709F4F1C00E9459138B0180919E01EF
:1022600081110E946F0A6D857E858F8598890E94F5
:10227000F50920E030E0A901C701B6010E9404156C
:10228000882321F0C701B6010E940D080E941E0B91
:10229000892BF1F08090000190900101A090020143
:1022A000B0900301C501B4010E945B092FEF821AAF
:1022B000920AA20AB20A8092000190920101A092B1
:1022C0000201B09203010E94CD080E94420BDECFB2
:1022D0001092820210928302109284021092850260
:1022E0001092860210928702109288021092890240
:1022F0001092AA021092AB021092AC021092AD02A0
:1023000010929A0210929B0210929C0210929D02CF
:1023100010928A0210928B0210928C0210928D02FF
:102320006D857E858F8598890E94F50920E030E0D3
:10233000A901C701B6010E940415882321F0C70135
:10234000B6010E940D0881E090E0A0E0B0E080932B
:10235000000190930101A0930201B09303010E9438
:102360001E0B892B11F56091000170910101809184
:102370000201909103010E945B090E94CD088091A7
:10238000000190910101A0910201B0910301019718
:10239000A109B1098093000190930101A09302016A
:1023A000B09303010E94420BDACF10928202109286
:1023B000830210928402109285021092860210927B
:1023C000870210928802109289021092AA0210923B
:1023D000AB021092AC021092AD0210929A021092CF
:1023E0009B0210929C0210929D0210928A021092FF
:1023F0008B0210928C0210928D02B801110F880B83
:10240000990B0E945B09409186025091870260916E
:102410008802709189028091820290918302A0913A
:102420008402B0918502481759076A077B0709F4AF
:1024300004CE0E94CD08E7CF60E070E0CB010DCF65
:102440000E942A0676CEC12CD12C76013CCE0E9469
:102450006F0AC701B6010E945B090E94CD08811175
:10246000FCCFBBCE0E942A06B8CEC12CD12C76015F
:102470007BCE82E592E00E94FA03609304017093A0
:1024800005018093060190930701B6CE82E592E0A4
:102490000E94FA0360930401709305018093060182
:1024A00090930701B8CECF93DF93C0E7D2E0269791
:1024B000888199810E94D51882E0CC34D807B9F779
:1024C0008091700290917102DF91CF910C94D51898
:1024D000CF93DF931092B2011092B10188EE93E096
:1024E000A0E0B0E08093B3019093B401A093B50154
:1024F000B093B60182E191E09093B0018093AF0177
:1025000085EC90E09093BC018093BB0184EC90E05B
:102510009093BE018093BD0180EC90E09093C00148
:102520008093BF0181EC90E09093C2018093C10140
:1025300082EC90E09093C4018093C30186EC90E01C
:102540009093C6018093C5011092C8011092C901F1
:102550001092CA011092CB0184E291E0909377022D
:102560008093760281E08093790210928202109229
:1025700083021092840210928502109286021092B9
:102580008702109288021092890210928A02109299
:102590008B0210928C0210928D0280E090E0A0E8F5
:1025A000BFE380938E0290938F02A0939002B0932A
:1025B0009102109292021092930210929402109241
:1025C00095028093960290939702A0939802B093FD
:1025D000990210929A0210929B0210929C02109201
:1025E0009D0221E030E03093A3022093A2022FEF5E
:1025F0002093A50210929E0210929F021092A002B8
:102600001092A1022BE020937A022CE020937B020F
:1026100024E020937C0225E020937D021092A40206
:102620001092AA021092AB021092AC021092AD026C
:102630001092AE021092AF021092B0021092B1024C
:102640001092B2021092B3021092B4021092B5022C
:102650008093B6029093B702A093B802B093B902E8
:102660001092780210927E0210927F0210928002E5
:102670001092810286E792E00E94A80360E070E079
:1026800080E89FE30E940D0880E792E00E94000826
:10269000CCE4D2E0CE010E940008269682E0C0374A
:1026A000D807C1F7DF91CF910895662777270C945B
:1026B00095131F93FC0199278827BC01E894119179
:1026C0001032E9F3193010F01E30C8F31B3251F00C
:1026D0001D3249F4689406C00E948013610F711D79
:1026E000811D911D119110531A30B0F33EF4909555
:1026F0008095709561957F4F8F4F9F4F1F910895E3
:10270000592F482F372F262F660F771F881F991FA5
:10271000660F771F881F991F620F731F841F951FF5
:10272000660F771F881F991F0895A0E0B0E0EBE9BE
:10273000F3E10C943C16EC016B016115710519F085
:10274000FB01918380837E01FFEFEF1AFF0A08816E
:10275000802F90E00E94E314892B11F0E701F3CF62
:102760000D3239F47E0182E0E80EF11C098111E09E
:1027700008C00B3229F47E0192E0E90EF11C0981B8
:1027800010E0E701219743E050E060E970E0CE01FE
:102790000E94EC14892BC1F4239645E050E06BE8CD
:1027A00070E0CE010E94EC14892B09F42596C11427
:1027B000D10419F0F601D183C0831111F6C060E095
:1027C00070E080E89FE7FAC043E050E068E870E01E
:1027D000CE010E94EC14892B59F4C114D10409F4E0
:1027E000E9C0F2E0EF0EF11CF601F182E082E2C0F6
:1027F00020E030E0A901C0E0D0E0F70180EDA82E94
:10280000A00E89E08A1530F1912F9260B92E812FA8
:10281000887012FF04C0811124C0219622C081114A
:102820002197A5E0B0E00E942B16DC01CB01880FB8
:10283000991FAA1FBB1F9C01AD012A0D311D411D0F
:10284000511D283989E93807480789E1580748F0B8
:10285000166006C09EEFA9120AC013FD40C01860A2
:10286000B12E8FEFE81AF80A00811B2DC6CF802FFA
:102870008F7D8534A1F580818D3211F4106106C001
:102880008B3221F0319661E070E004C08181329694
:1028900062E070E080538A3018F0E61BF70B1FC02F
:1028A00060E070E060389CE079075CF4DB01AA0F1F
:1028B000BB1FAA0FBB1F6A0F7B1F660F771F680F16
:1028C000711D3196DF0111978C9180538A3050F33E
:1028D00014FF03C0719561957109C60FD71F11FFD1
:1028E00008C0C114D10429F0CF010197F6019183EA
:1028F0008083CA01B9010E940915212F237023305A
:1029000019F04B015C0106C04B015C01B7FAB094B1
:10291000B7F8B09420E030E0A901C501B4010E94ED
:102920000415882309F43EC0D7FF06C0D195C19590
:10293000D10907EA10E002C00FEB10E06801F8E1EE
:10294000CF1AD10890E2E92EF12CCE15DF0574F0F4
:10295000F8012591359145915491C501B4010E942A
:102960006A154B015C01CE19DF09EFCF0450110944
:10297000F594E7940C151D0541F78A2D880F8B2DD2
:10298000881F8F3F49F020E030E0A901C501B40164
:102990000E940415811106C082E290E09093C0026B
:1029A0008093BF02C501B40109C060E070E080E817
:1029B0009FEF04C060E070E080EC9FE7CDB7DEB72A
:1029C000ECE00C94581691110C94D715803219F044
:1029D00089508550C8F70895FB01DC0141505040F3
:1029E00088F08D9181341CF08B350CF4805E6591FC
:1029F00061341CF06B350CF4605E861B611171F361
:102A0000990B0895881BFCCF0E94461508F481E0BD
:102A10000895E89409C097FB3EF4909580957095D1
:102A200061957F4F8F4F9F4F9923A9F0F92F96E91A
:102A3000BB279395F695879577956795B795F1118F
:102A4000F8CFFAF4BB0F11F460FF1BC06F5F7F4F2C
:102A50008F4F9F4F16C0882311F096E911C077233E
:102A600021F09EE8872F762F05C0662371F096E847
:102A7000862F70E060E02AF09A95660F771F881F16
:102A8000DAF7880F9695879597F90895990F0008BA
:102A9000550FAA0BE0E8FEEF16161706E807F90730
:102AA000C0F012161306E407F50798F0621B730BCB
:102AB000840B950B39F40A2661F0232B242B252B4C
:102AC00021F408950A2609F4A140A6958FEF811DEF
:102AD000811D08950E947D150C94F1150E94E31547
:102AE00038F00E94EA1520F0952311F00C94DA15C5
:102AF0000C94E01511240C9425160E94021670F314
:102B0000959FC1F3950F50E0551F629FF001729F92
:102B1000BB27F00DB11D639FAA27F00DB11DAA1FA1
:102B2000649F6627B00DA11D661F829F2227B00DEE
:102B3000A11D621F739FB00DA11D621F839FA00D79
:102B4000611D221F749F3327A00D611D231F849FC9
:102B5000600D211D822F762F6A2F11249F57504020
:102B60009AF0F1F088234AF0EE0FFF1FBB1F661F9B
:102B7000771F881F91505040A9F79E3F510580F064
:102B80000C94DA150C9425165F3FE4F3983ED4F3C9
:102B9000869577956795B795F795E7959F5FC1F708
:102BA000FE2B880F911D9695879597F90895992783
:102BB0008827089597F99F6780E870E060E008959E
:102BC0009FEF80EC089500240A9416161706180645
:102BD0000906089500240A94121613061406050621
:102BE0000895092E0394000C11F4882352F0BB0FB2
:102BF00040F4BF2B11F460FF04C06F5F7F4F8F4F15
:102C00009F4F089557FD9058440F551F59F05F3F4F
:102C100071F04795880F97FB991F61F09F3F79F0FE
:102C200087950895121613061406551FF2CF469580
:102C3000F1DF08C0161617061806991FF1CF869502
:102C40007105610508940895E894BB2766277727E6
:102C5000CB0197F908950E946D16A59F900DB49F22
:102C6000900DA49F800D911D112408952F923F92E5
:102C70004F925F926F927F928F929F92AF92BF928C
:102C8000CF92DF92EF92FF920F931F93CF93DF9338
:102C9000CDB7DEB7CA1BDB0B0FB6F894DEBF0FBE95
:102CA000CDBF09942A88398848885F846E847D84E2
:102CB0008C849B84AA84B984C884DF80EE80FD80E4
:102CC0000C811B81AA81B981CE0FD11D0FB6F8945A
:102CD000DEBF0FBECDBFED010895A29FB001B39F2F
:102CE000C001A39F700D811D1124911DB29F700D15
:102CF000811D1124911D08955058BB27AA270E94B9
:102D000094160C94F1150E94E31538F00E94EA1510
:102D100020F039F49F3F19F426F40C94E0150EF4DA
:102D2000E095E7FB0C94DA15E92F0E94021658F3A0
:102D3000BA17620773078407950720F079F4A6F5A0
:102D40000C9424160EF4E0950B2EBA2FA02D0B0137
:102D5000B90190010C01CA01A0011124FF27591BE0
:102D600099F0593F50F4503E68F11A16F040A22FE6
:102D7000232F342F4427585FF3CF46953795279557
:102D8000A795F0405395C9F77EF41F16BA0B620B56
:102D9000730B840BBAF09150A1F0FF0FBB1F661F9D
:102DA000771F881FC2F70EC0BA0F621F731F841FE0
:102DB00048F4879577956795B795F7959E3F08F006
:102DC000B0CF9395880F08F09927EE0F97958795C8
:102DD00008950E94FD160C94F1150E94EA1558F012
:102DE0000E94E31540F029F45F3F29F00C94DA15B6
:102DF00051110C9425160C94E0150E94021668F3EC
:102E00009923B1F3552391F3951B550BBB27AA27A3
:102E100062177307840738F09F5F5F4F220F331FDD
:102E2000441FAA1FA9F335D00E2E3AF0E0E832D0A5
:102E300091505040E695001CCAF72BD0FE2F29D0A8
:102E4000660F771F881FBB1F261737074807AB077A
:102E5000B0E809F0BB0B802DBF01FF2793585F4FEF
:102E60003AF09E3F510578F00C94DA150C94251633
:102E70005F3FE4F3983ED4F3869577956795B795D1
:102E8000F7959F5FC9F7880F911D9695879597F9DC
:102E90000895E1E0660F771F881FBB1F6217730755
:102EA0008407BA0720F0621B730B840BBA0BEE1F6A
:102EB00088F7E09508950E9462176894B1110C9408
:102EC000251608950E940A1688F09F5798F0B92F8A
:102ED0009927B751B0F0E1F0660F771F881F991F4F
:102EE0001AF0BA95C9F714C0B13091F00E942416B7
:102EF000B1E008950C942416672F782F8827B85FC7
:102F000039F0B93FCCF3869577956795B395D9F7A6
:102F10003EF490958095709561957F4F8F4F9F4FB0
:102F200008950E94461508F48FEF089519F416F4D9
:102F30000C94E0150C94E1170E940A16B8F399233B
:102F4000C9F3B6F39F57550B87FF0E94EF17002474
:102F5000A0E640EA900180585695979528F4805C49
:102F6000660F771F881F20F026173707480730F4B1
:102F7000621B730B840B202931294A2BA6951794C9
:102F80000794202531254A2758F7660F771F881F99
:102F900020F026173707480730F4620B730B840BB9
:102FA000200D311D411DA09581F7B901842F915845
:102FB000880F9695879508950E944615880B990B62
:102FC00008959F3F31F0915020F48795779567954C
:102FD000B795880F911D9695879597F9089591500B
:102FE0005040660F771F881FD2F70895A1E21A2E6E
:102FF000AA1BBB1BFD010DC0AA1FBB1FEE1FFF1F9D
:10300000A217B307E407F50720F0A21BB30BE40BEC
:10301000F50B661F771F881F991F1A9469F7609533
:103020007095809590959B01AC01BD01CF010895ED
:10303000052E97FB1EF400940E942F1857FD07D011
:103040000E94F61707FC03D04EF40C942F185095ED
:103050004095309521953F4F4F4F5F4F0895909584
:103060008095709561957F4F8F4F9F4F0895EE0F1C
:10307000FF1F0590F491E02D09940F931F93CF93B8
:10308000DF938230910510F482E090E0E091C3027A
:10309000F091C40220E030E0A0E0B0E0309719F1F8
:1030A000408151810281138148175907C8F0841764
:1030B000950769F4109731F012960C9312971396B6
:1030C0001C9327C00093C3021093C40222C0211591
:1030D000310519F04217530718F49A01BD01EF01A9
:1030E000DF01F801DBCF21153105F9F0281B390B81
:1030F0002430310580F48A819B816115710521F0AE
:10310000FB019383828304C09093C4028093C30223
:10311000FE01329644C0FE01E20FF31F81939193AA
:1031200022503109398328833AC02091C10230915D
:10313000C202232B41F420910A0130910B013093FC
:10314000C2022093C102209108013091090121158A
:10315000310541F42DB73EB740910C0150910D015E
:10316000241B350BE091C102F091C202E217F30774
:10317000A0F42E1B3F0B2817390778F0AC014E5FE7
:103180005F4F2417350748F04E0F5F1F5093C20260
:103190004093C1028193919302C0E0E0F0E0CF013F
:1031A000DF91CF911F910F910895CF93DF930097F7
:1031B00009F481C0FC01329713821282A091C302EC
:1031C000B091C402109781F420813181820F931F46
:1031D0002091C1023091C2022817390751F5F093AE
:1031E000C202E093C10267C0ED0120E030E0CE17DB
:1031F000DF0740F44A815B819E0141155105F1F0E2
:10320000EA01F5CFD383C28340815181840F951F9A
:10321000C817D90759F488819981840F951F0296A0
:10322000918380838A819B819383828321153105D9
:1032300029F4F093C402E093C3023DC0E901FB838B
:10324000EA8349915991C40FD51FEC17FD0761F42A
:1032500080819181840F951F0296E901998388836B
:10326000828193819B838A83E0E0F0E012968D91C6
:103270009C911397009719F0FD01DC01F7CF8D9118
:103280009C9111979D012E5F3F4F820F931F2091BC
:10329000C1023091C2022817390769F4309729F426
:1032A0001092C4021092C30202C013821282B09321
:1032B000C202A093C102DF91CF910895A0E0B0E0D7
:1032C000E4E6F9E10C943A16EC01009721F4CB0105
:1032D0000E943D18B4C0FC01E60FF71F9C0122506C
:1032E0003109E217F30708F4A8C0D9010D911C9128
:1032F000119706171707B0F00530110508F49BC0A9
:10330000C80104978617970708F495C00250110961
:10331000061B170B019311936D937C93CF010E94B1
:10332000D51889C05B01A01AB10A4C01800E911E0C
:10333000A091C302B091C402612C712CE12CF12C3C
:10334000109709F446C08D919C911197A815B90565
:10335000B1F56C0142E0C40ED11CCA14DB0478F153
:103360004C018A189B08640142E0C40ED11C1296DD
:10337000BC9012971396AC91B5E0CB16D10440F0F7
:10338000B282A38391828082D9016D937C9309C01C
:103390000E5F1F4F800F911FF90191838083EB2DEA
:1033A000FA2FE114F10431F0D7011396FC93EE9358
:1033B000129741C0F093C402E093C3023CC0681668
:1033C000790608F43C017D0112960D90BC91A02D68
:1033D000B7CF8091C1029091C20288169906E1F49C
:1033E00066167706C8F4809108019091090100974C
:1033F00041F48DB79EB740910C0150910D01841B93
:10340000950BE817F907C8F4F093C202E093C102E4
:10341000F901718360830FC0CB010E943D187C01CC
:10342000009759F0A801BE010E94291ACE010E94FE
:10343000D518C70104C0CE0102C080E090E0CDB72E
:10344000DEB7EEE00C94561681E090E0F8940C9410
:103450004D1AFB01DC0102C001900D924150504019
:10346000D8F70895FC018191861721F08823D9F7B8
:10347000992708953197CF010895FB01DC018D91C3
:10348000019080190110D9F3990B0895FB01DC011B
:1034900001900D920020E1F7089510E0C0E9D0E01E
:1034A00004C0FE010E9437182196C139D107C9F71F
:0434B000F894FFCFBE
:1034B400FFFFFFFF000096430000C50280000000EC
:1034C40000005201BC00E9009F011A01F8000C0140
:1034D40000000000DC03A803700329031303DB02CC
:1034E400BA02860265020F02CB016E6F2073656E0D
:1034F400736F72000D0A006E616E00696E66006F74
:1035040076660065730063616C006D6F76650070AC
:103514006F7300737064006163630065733A006ED7
:0E3524006F742063616C69627261746564008B
:00000001FF
