:100000000C9491000C94B9000C94B9000C94B900B4
:100010000C94B9000C94B9000C94B9000C94B9007C
:100020000C94B9000C94B9000C94E9040C940006EB
:100030000C94B9000C9413060C94B9000C94B900FC
:100040000C94690C0C94B9000C94B7040C949104B2
:100050000C94B9000C94B9000C94B9000C94B9003C
:100060000C94B9000C94B900E301E901EF01F5012A
:10007000FB010102070238033F0346034D0354030B
:100080006B035B036B0362034E414E494E49545967
:10009000494E46CDCCCC3D0AD7233C17B7D1387753
:1000A000CC2B329595E6241FB14F0A000020410069
:1000B00000C84200401C4620BCBE4CCA1B0E5AAEB3
:1000C000C59D7400000000240027002A00000000E5
:1000D00000250028002B0000000000230026002936
:1000E00000040404040404040402020202020203E1
:1000F00003030303030102040810204080010204EB
:10010000081020010204081020000000080002016D
:10011000000003040700000000000000000051126E
:100120003C1211241FBECFEFD8E0DEBFCDBF22E0CE
:10013000A2E7B1E001C01D92A93BB207E1F711E0CF
:10014000A0E0B1E0E6E8F4E302C005900D92A2372A
:10015000B107D9F710E0C0E9D0E004C02197FE0153
:100160000E942018CF38D107C9F70E94B30C0C9415
:10017000361A0C9400000895CF92DF92EF92FF920E
:100180000F931F93CF93DF936C017A018B01C0E033
:10019000D0E0CE15DF0581F0D8016D918D01D6013B
:1001A000ED91FC910190F081E02DC6010995892B1C
:1001B00011F02196EECF7E01C701DF91CF911F9103
:1001C0000F91FF90EF90DF90CF90089580E090E046
:1001D0000895FC01538D448D252F30E0842F90E04D
:1001E000821B930B541710F0CF9608950197089532
:1001F000FC01918D828D981761F0828DDF01A80F2F
:10020000B11D5D968C91928D9F5F9F73928F90E050
:1002100008958FEF9FEF0895FC01918D828D9817BF
:1002200031F0828DE80FF11D858D90E008958FEFFC
:100230009FEF0895FC01918D228D892F90E0805CC5
:100240009F4F821B91098F739927089583EA91E04C
:100250000E941A0121E0892B09F420E0822F0895E1
:10026000FC01848DDF01A80FB11DA35ABF4F2C9153
:10027000848D90E001968F739927848FA689B78922
:100280002C93A089B1898C91837080648C93938D19
:10029000848D981306C00288F389E02D80818F7DBC
:1002A00080830895EF92FF920F931F93CF93DF9374
:1002B000EC0181E0888F9B8D8C8D981305C0E889B7
:1002C000F989808185FD26C0F62E0B8D10E00F5F29
:1002D0001F4F0F731127E02E8C8DE8120CC00FB644
:1002E00007FCFACFE889F989808185FFF5CFCE0137
:1002F0000E943001F1CF8B8DFE01E80FF11DE35A12
:10030000FF4FF0829FB7F8940B8FEA89FB898081B9
:1003100080620AC09FB7F894EE89FF896083E889FC
:10032000F98980818370806480839FBF81E090E041
:10033000DF91CF911F910F91FF90EF900895CF9390
:10034000DF93EC01888D8823C9F0EA89FB898081DD
:1003500085FD05C0A889B9898C9186FD0FC00FB6AF
:1003600007FCF5CF808185FFF2CFA889B9898C91F0
:1003700085FFEDCFCE010E943001E7CFDF91CF9115
:10038000089580E090E0892B29F00E9426018111D8
:100390000C9400000895CF93DF934770552766278C
:1003A0007727FA013197EC01A881B981E730F1058F
:1003B00020F4EC5CFF4F0C9420181496ED91FC9106
:1003C000159761E029C01496ED91FC91159765E0B1
:1003D00023C01496ED91FC91159764E01DC014960E
:1003E000ED91FC91159766E017C01496ED91FC9184
:1003F000159762E011C01496ED91FC9115976AE093
:100400000BC01496ED91FC91159768E005C0149609
:10041000ED91FC91159769E0DF91CF910994CF930D
:10042000DF93EC01CB01BA0126E030E040E050E080
:100430000E940118623071058105910559F18CF413
:100440006115710581059105F1F061307105810536
:100450009105C1F5E881F9810480F581E02D65E021
:100460002DC0643071058105910511F1D4F065301E
:1004700071058105910531F5E881F9810480F581E7
:10048000E02D66E01BC0E881F9810480F581E02D54
:1004900064E014C0E881F9810480F581E02D61E019
:1004A0000DC0E881F9810480F581E02D63E006C08C
:1004B000E881F9810480F581E02D62E0CE01DF91D1
:1004C000CF910994DF91CF91089543705527662706
:1004D0007727DC01ED91FC910480F581E02D42301D
:1004E00051056105710571F04330510561057105D4
:1004F00059F0413051056105710511F065E005C005
:1005000066E003C06AE001C069E00994CF93DF931D
:10051000EC01CB01BA0123E030E040E050E00E9462
:100520000118613071058105910581F06230710516
:100530008105910591F0672B682B692BC1F4E88147
:10054000F9810480F581E02D64E00DC0E881F98136
:100550000480F581E02D61E006C0E881F981048026
:10056000F581E02D62E0CE01DF91CF910994DF911A
:10057000CF9108954370552766277727DC01ED91C9
:10058000FC910480F581E02D423051056105710533
:1005900071F0433051056105710559F04130510545
:1005A0006105710511F062E005C063E003C061E020
:1005B00001C060E00994CF93DF93EC01E881F981F9
:1005C0000480F581E02D8A81811102C060E001C0C4
:1005D00062E0CE010995E881F9810480F581E02D82
:1005E0008A81811102C061E001C063E0CE010995FA
:1005F0008CA59DA58230910538F0880F991F880F32
:10060000991F05970197F1F7E881F9810480F58139
:10061000E02D8A81811102C060E001C062E0CE015C
:10062000DF91CF910994CF93DF93EC0120E030E08C
:10063000A9016C897D898E899F890E947A17181675
:100640001CF4E8A9F9A902C0EAA9FBA9DF91CF919E
:1006500009940F931F93DC011396EC910E2F10E079
:1006600009301105C0F5F801E55CFF4F0C94201826
:10067000DC01ED91FC910084F185E02D29C0DC01C5
:10068000ED91FC910284F385E02D22C0DC01ED9117
:10069000FC910484F585E02D1BC0DC01ED91FC91FB
:1006A0000684F785E02D14C0DC01ED91FC910088F3
:1006B000F189E02D0DC0DC01ED91FC910288F389F8
:1006C000E02D06C0DC01ED91FC910488F589E02D58
:1006D0001F910F9109941F910F9108950E940D1A77
:1006E000CF92DF92EF92FF920F931F93CF93DF93FE
:1006F000EC019B81943041F0983031F0933031F02F
:10070000963021F012E003C014E001C013E02496FB
:10071000E12CF12CC62ED12C01E0C6010E2C02C01A
:10072000959587950A94E2F76C8180FD6027899101
:100730000E94D90B8FEFE81AF80AE11670F3DF91E7
:10074000CF911F910F91FF90EF90DF90CF90089580
:10075000CF93DF93FC012381222359F1EC0161E067
:1007600084810E94080C61E08D810E94080C8B81BD
:10077000843011F0883039F461E08E810E94080CD9
:1007800061E08F8106C0833011F0863021F461E092
:100790008E810E94080C8FA58F3F59F061E00E9466
:1007A000080C6EA581E068278FA5DF91CF910C948E
:1007B000D90BDF91CF910895CF93DF93FC01238173
:1007C0002223A9F0EC010190F081E02D0480F58155
:1007D000E02D60E009958FA58F3F49F061E00E9410
:1007E000080C6EA58FA5DF91CF910C94D90BDF91EA
:1007F000CF910895FC0180819181009711F00C94B4
:100800003E1360E070E0CB0108950F931F93CF93E8
:10081000DF938C01EB01FC0180819181009739F01D
:100820006881798161157105A1F40E94BE188881E3
:100830009981F801918380838A819B81938382834C
:100840008C819D8195838483198218821B821A82F0
:100850000FC0F801428153812C813D81421753071B
:1008600020F30E942F1A8C819D81F8019583848347
:100870001D821C82DF91CF911F910F9108950F93DC
:100880001F93CF93DF93EC0188819981009729F022
:100890002A813B812617370788F48B016F5F7F4FD2
:1008A0000E944719009761F0998388831B830A830C
:1008B0002C813D81232B11F4FC01108281E001C0C9
:1008C00080E0DF91CF911F910F910895EF92FF92F9
:1008D0000F931F93CF93DF93EC017B018A01BA0141
:1008E0000E943F042881398181110DC021153105F5
:1008F00019F0C9010E94BE18198218821D821C823B
:100900001B821A8206C01D830C83B701C9010E9495
:100910002F1ACE01DF91CF911F910F91FF90EF9091
:1009200008951F920F920FB60F9211242F933F93A9
:100930004F935F936F937F938F939F93AF93BF93E7
:10094000EF93FF9383EA91E00E943001FF91EF91D2
:10095000BF91AF919F918F917F916F915F914F91D7
:100960003F912F910F900FBE0F901F9018951F92DF
:100970000F920FB60F9211242F938F939F93EF93A3
:10098000FF93E091B301F091B4018081E091B9014E
:10099000F091BA0182FD12C090818091BC018F5FFD
:1009A0008F732091BD01821751F0E091BC01F0E0FE
:1009B000ED55FE4F958F8093BC0101C08081FF9162
:1009C000EF919F918F912F910F900FBE0F901F90DD
:1009D00018951F920F920FB60F921124CF92DF92AB
:1009E000EF92FF920F931F932F933F934F935F9339
:1009F0006F937F938F939F93AF93BF93EF93FF93E7
:100A00002091860030918700C9013091810020E457
:100A1000232720938100B59A2091720130917301B0
:100A2000D901B09B05C08F3F4FE7940708F4BFC0C2
:100A30002091810026FFABC0209174013091750197
:100A40002115310509F44DC02130310509F052C09E
:100A5000C0909B01D0909C01E0909D01F0909E0180
:100A600000918301109184012091850130918601CC
:100A7000080F191F2A1F3B1F0C191D092E093F09BA
:100A800000938301109384012093850130938601A4
:100A9000C0907601D0907701E0907801F0907901D4
:100AA00000917B0110917C0120917D0130917E01AC
:100AB000BC01CD01601B710B820B930B0E94F214E1
:100AC0009B01AC01C701B6010E94D2160E944B17D0
:100AD00060939701709398018093990190939A0184
:100AE0004CC080937B0190937C01A0937D01B093D7
:100AF0007E0143C0C0909B01D0909C01E0909D017D
:100B0000F0909E0100918301109184012091850154
:100B100030918601080F191F2A1F3B1F0C191D0950
:100B20002E093F09009383011093840120938501CE
:100B3000309386012091740130917501277033271D
:100B4000232BD9F4C0907B01D0907C01E0907D01F3
:100B5000F0907E01009197011091980120919901E8
:100B600030919A01AC01BD014C195D096E097F09F4
:100B70004017510762077307E8F480917401909160
:100B800075010196909375018093740122C09C01B8
:100B9000205C3346309389002093880080939B012A
:100BA00090939C01A0939D01B0939E0112C0D90126
:100BB00011963ECF80937F0190938001A093810195
:100BC000B093820110926F0083E286BB81E0809334
:100BD0007A01FF91EF91BF91AF919F918F917F919A
:100BE0006F915F914F913F912F911F910F91FF90C6
:100BF000EF90DF90CF900F900FBE0F901F90189541
:100C00001F920F920FB60F9211248F9310926F00C4
:100C100083E286BB82E080937A018F910F900FBEB2
:100C20000F901F9018951F920F920FB60F921124DC
:100C30008F939F938091720190917301019690938D
:100C40007301809372019F918F910F900FBE0F904F
:100C50001F90189583E691E00E949A0880E491E045
:100C60000C949A084F925F926F927F928F929F920C
:100C7000AF92BF92CF92DF92EF92FF920F931F93AA
:100C8000CF93DF93C0907A02D0907B02E0907C02F9
:100C9000F0907D028091760290917702A091780287
:100CA000B0917902C81AD90AEA0AFB0A60917E0259
:100CB00070917F0280918002909181029B01AC0132
:100CC0000E9453154B015C0160918602709187026E
:100CD00080918802909189029B01AC010E94661666
:100CE0009B01AC01C501B4010E94D2160E944417B9
:100CF000C114D104E104F104F9F4623071058105F5
:100D000091050CF092C010928E0210928F021092F8
:100D100090021092910210927E0210927F02109225
:100D200080021092810210929E0210929F021092F5
:100D3000A0021092A1022AC100919E0210919F026E
:100D40002091A0023091A1021C141D041E041F0456
:100D50000CF5101611061206130654F46C157D05D9
:100D60008E059F0564F520916C0221115EC027C09D
:100D7000011511052105310509F457C06C157D05D4
:100D80008E059F050CF051C080916C02882309F4F8
:100D90004CC03CC0101611061206130614F50027AD
:100DA000112798010C191D092E093F0960177107B9
:100DB0008207930724F420916C022223B1F19B0156
:100DC000AC0188279927DC01821B930BA40BB50B80
:100DD00080939E0290939F02A093A002B093A102E1
:100DE00024C00115110521053105F9F08824992445
:100DF00054018C189D08AE08BF08681579058A054E
:100E00009B059CF480916C0281110FC03095209558
:100E1000109501951F4F2F4F3F4F00939E02109347
:100E20009F022093A0023093A10280909E02909096
:100E30009F02A090A002B090A10281149104A1048D
:100E4000B104D1F48091A2029091A302A091A402D6
:100E5000B091A5028093A6029093A702A093A80246
:100E6000B093A90281E01C141D041E041F040CF0A1
:100E700080E080936C024AC0C090A602D090A70286
:100E8000E090A802F090A902A7019601C701B6015F
:100E90000E9466162B013C01C501B4010E94F414A6
:100EA00020E030E040E850E40E94531520E030E0BC
:100EB00040E85FE30E9466169B01AC01C301B201EA
:100EC0000E94D2169B01AC01C701B6010E946516B3
:100ED000D62FC72F6C01E090AA02F090AB020091D0
:100EE000AC021091AD029701A8010E947A17181662
:100EF0001CF4ED2EFC2E8601C701D8018093A602BA
:100F00009093A702A093A802B093A9023FEF831A7F
:100F1000930AA30AB30A80929E0290929F02A09223
:100F2000A002B092A102C090A602D090A702E090C9
:100F3000A802F090A902C701B6010E944B17609366
:100F40008E0270938F028093900290939102A7017A
:100F5000960160E074E284E799E40E94D2166093FF
:100F60007E0270937F028093800290938102209191
:100F70006C0221110BC0DC01CB01B05880937E02C2
:100F800090937F02A0938002B0938102DF91CF9172
:100F90001F910F91FF90EF90DF90CF90BF90AF9097
:100FA0009F908F907F906F905F904F9008958330C7
:100FB00081F028F4813099F08230A1F008958730D3
:100FC000A9F08830B9F08430D1F4809180008F7D11
:100FD00003C0809180008F7780938000089584B54E
:100FE0008F7702C084B58F7D84BD08958091B00055
:100FF0008F7703C08091B0008F7D8093B0000895FB
:10100000FC0111821082138212821582148240E048
:1010100050E062E471E00C9466044F925F926F922C
:101020007F928F929F92AF92BF92CF92DF92EF9278
:10103000FF926B017C0120E030E0A9010E94ED14D9
:1010400087FF04C0F7FAF094F7F8F09480908602D6
:1010500090908702A0908802B0908902A701960123
:10106000C501B4010E94ED14882309F456C06091B3
:101070009E0270919F028091A0029091A1020E9415
:10108000F4142B013C01A7019601C501B4010E9493
:10109000D2169B01AC01C301B2010E9453150E94FC
:1010A000441760939E0270939F028093A0029093D6
:1010B000A102A701960160E070E080E090E40E9448
:1010C000D2160E94851726E53EE04DE25FE30E94BE
:1010D000531520E034E244E759E40E94531560932D
:1010E000A2027093A3028093A4029093A502C092DF
:1010F0008602D0928702E0928802F0928902FF90E5
:10110000EF90DF90CF90BF90AF909F908F907F90A7
:101110006F905F904F900C943206FF90EF90DF90AD
:10112000CF90BF90AF909F908F907F906F905F9087
:101130004F900895009769F0FC0101900020E9F7B5
:101140003197AF01481B590BBC0183EA91E00C9425
:10115000BC0080E090E00895CF93DF93EC0161152F
:10116000710559F0FB0101900020E9F73197AF01BB
:10117000461B570B0E9466040CC08881998100971A
:1011800011F00E94BE18198218821D821C821B82D7
:101190001A82CE01DF91CF910895CF92DF92EF9224
:1011A000FF9280918E0290918F02A0919002B09157
:1011B0009102892B8A2B8B2B09F450C00E94440C7E
:1011C0006B017C018091920290919302A091940214
:1011D000B0919502B701A601481B590B6A0B7B0B16
:1011E00080918E0290918F02A0919002B091910215
:1011F000481759076A077B0788F120916C02809194
:10120000760290917702A0917802B0917902222320
:1012100021F00196A11DB11D03C00197A109B109DB
:101220008093760290937702A0937802B09379022C
:101230004091760250917702609178027091790224
:101240008AE692E00E942903C0929202D092930211
:10125000E0929402F09295020E94320620E030E083
:10126000A90160917E0270917F028091800290912D
:1012700081020E94ED14811118C081E0C0907A02B1
:10128000D0907B02E0907C02F0907D02409176024B
:10129000509177026091780270917902C416D50658
:1012A000E606F70619F480E001C081E0FF90EF90B8
:1012B000DF90CF9008950F931F9300917A021091C1
:1012C0007B0220917C0230917D02061717072807C8
:1012D000390761F060937A0270937B0280937C02FD
:1012E00090937D021F910F910C9432061F910F91E4
:1012F00008958F929F92AF92BF92CF92DF92EF921A
:10130000FF920F931F93CF93DF938B01D82FC92F99
:10131000C0908202D0908302E0908402F090850217
:1013200046015701B7FAB094B7F8B0949B01482F23
:10133000592FC501B4010E947A1718166CF0980154
:101340004D2F5C2FC701B6010E94ED1487FD06C02A
:101350006801ED2EFC2E02C07501640120E030E032
:10136000A901C701B6010E94ED14811109C01092B4
:101370008E0210928F02109290021092910220C061
:10138000A701960160E074E284E799E40E94D21616
:101390009F770E944B1760938E0270938F02809309
:1013A000900290939102C1E020E030E0A901C701D2
:1013B000B6010E947A1718160CF0C0E0C0936C02B8
:1013C000C0927E02D0927F02E0928002F09281026F
:1013D000DF91CF911F910F91FF90EF90DF90CF9011
:1013E000BF90AF909F908F900895CF92DF92EF9231
:1013F000FF926B017C0120E030E0A9010E94ED1416
:1014000087FF04C0F7FAF094F7F8F094A70196016B
:101410006091820270918302809184029091850292
:101420000E94ED14882309F455C0C0928202D09224
:101430008302E0928402F0928502A701960160E0A7
:1014400074E284E799E40E94D2166093AA02709332
:10145000AB028093AC029093AD0280919E0290917A
:101460009F02A091A002B091A102181619061A06B7
:101470001B0684F560917E0270917F02809180024C
:10148000909181029B01AC010E9453156B017C017C
:101490006091860270918702809188029091890202
:1014A0009B01AC010E9466169B01AC01C701B6010D
:1014B0000E94D2160E94441760939E0270939F026E
:1014C0008093A0029093A102FF90EF90DF90CF90C5
:1014D0000C943206FF90EF90DF90CF9008958F929A
:1014E0009F92AF92BF92CF92DF92EF92FF92809045
:1014F0007E0290907F02A0908002B090810220E056
:1015000030E0A901C501B4010E94ED14882309F45B
:101510004BC0A5019401C501B4010E9453156B0194
:101520007C0160918602709187028091880290917F
:1015300089029B01AC010E9466169B01AC01C701A8
:10154000B6010E94D2160E9444176B017C012FEF56
:10155000C21AD20AE20AF20A20E030E0A901C5016B
:10156000B4010E947A1740917602509177026091FF
:1015700078027091790218163CF4CB01BA016C0D17
:101580007D1D8E1D9F1D06C0CB01BA016C197D0902
:101590008E099F09FF90EF90DF90CF90BF90AF90A2
:1015A0009F908F900C945B09FF90EF90DF90CF900D
:1015B000BF90AF909F908F9008958F929F92AF921F
:1015C000BF920F931F93CF93DF93CDB7DEB7A19751
:1015D0000FB6F894DEBF0FBECDBF19A2423008F49B
:1015E0004AE08E010F5D1F4F842E912CA12CB12C4F
:1015F000A50194010E94DF17E62FB901CA0101502D
:101600001109EA3014F4E05D01C0E95CD801EC9303
:10161000232B242B252B61F7C8010E949A08A19641
:101620000FB6F894DEBF0FBECDBFDF91CF911F91F3
:101630000F91BF90AF909F908F900895CF93DF93BD
:10164000E3E1F1E08491EFEFF0E0D491EBEEF0E034
:10165000C491CC2391F081110E94D707EC2FF0E0C8
:10166000EE0FFF1FE952FF4FA591B491EC91ED23CE
:1016700081E090E021F480E002C080E090E0DF9122
:10168000CF9108958F929F92AF92BF92CF92DF92A7
:10169000EF92FF920E94440C4B015C0185E0C82E42
:1016A000D12CE12CF12C0E94440CDC01CB018819D7
:1016B0009909AA09BB09883E9340A105B10598F391
:1016C00021E0C21AD108E108F10888EE880E83E013
:1016D000981EA11CB11CC114D104E104F10419F736
:1016E000FF90EF90DF90CF90BF90AF909F908F9042
:1016F0000895FC018091440290914502892B21F4C8
:1017000021E0309749F413C080914002909141024A
:10171000309731F421E0FC018081882341F006C03C
:10172000BF010E94261A21E0892B09F020E0822FB8
:1017300008952FB7F89480919F019091A001A091F6
:10174000A101B091A2012FBF8093AB019093AC0196
:10175000A093AD01B093AE0183EA91E00E94F8003E
:1017600097FF26C02FB7F89480919F019091A00118
:10177000A091A101B091A2012FBF4091AB01509166
:10178000AC016091AD017091AE01841B950BA60B6D
:10179000B70B4091A7015091A8016091A9017091E8
:1017A000AA0184179507A607B707B0F28FEF9FEF3E
:1017B00008951F93CF93DF93282F30E0F901E75F5F
:1017C000FE4F8491F901EB50FF4FD491F901EF5195
:1017D000FF4FC491CC23C1F0162F81110E94D7076F
:1017E000EC2FF0E0EE0FFF1FE353FF4FA591B491F4
:1017F0009FB7F894111104C08C91D095D82302C0E2
:10180000EC91DE2BDC939FBFDF91CF911F91089568
:10181000CF93DF9390E0FC01EB50FF4F2491FC014C
:10182000EF51FF4F8491882361F190E0880F991F59
:10183000FC01ED53FF4FC591D491FC01E353FF4FE1
:10184000A591B491611109C09FB7F8948881209542
:1018500082238883EC912E230BC0623061F49FB702
:10186000F8948881322F309583238883EC912E2B36
:101870002C939FBF06C08FB7F894E8812E2B288346
:101880008FBFDF91CF9108953FB7F8948091AF0259
:101890009091B002A091B102B091B20226B5A89B7E
:1018A00005C02F3F19F00196A11DB11D3FBFBA2FF2
:1018B000A92F982F8827820F911DA11DB11DBC0152
:1018C000CD0142E0660F771F881F991F4A95D1F717
:1018D00008951F920F920FB60F9211242F933F93EA
:1018E0008F939F93AF93BF9380919F019091A0019D
:1018F000A091A101B091A2013091AE0223E0230F8B
:101900002D3720F40196A11DB11D05C026E8230F37
:101910000296A11DB11D2093AE0280939F0190936A
:10192000A001A093A101B093A2018091AF02909178
:10193000B002A091B102B091B2020196A11DB11DF9
:101940008093AF029093B002A093B102B093B20221
:10195000BF91AF919F918F913F912F910F900FBEAB
:101960000F901F901895CF93DF93CDB7DEB7609798
:101970000FB6F894DEBF0FBECDBF789484B58260F9
:1019800084BD84B5816084BD85B5826085BD85B523
:10199000816085BD80916E00816080936E001092A1
:1019A000810080918100826080938100809181001C
:1019B00081608093810080918000816080938000AD
:1019C0008091B10084608093B1008091B00081600B
:1019D0008093B00080917A00846080937A00809137
:1019E0007A00826080937A0080917A00816080938F
:1019F0007A0080917A00806880937A001092C1000A
:101A0000E091B301F091B40182E08083E091AF01F5
:101A1000F091B0011082E091B101F091B20180E14A
:101A200080831092BB01E091B701F091B80186E08C
:101A30008083E091B501F091B6018081806180835F
:101A4000E091B501F091B601808188608083E091DA
:101A5000B501F091B601808180688083E091B50185
:101A6000F091B60180818F7D808362E08AE00E94E0
:101A7000080C83E2282E9E012F5F3F4F290196E03C
:101A8000392E2FB7F89480919F019091A001A091D9
:101A9000A101B091A2012FBF809393019093940173
:101AA000A0939501B093960140917A0250917B02E8
:101AB00060917C0270917D02809176029091770214
:101AC000A0917802B0917902481759076A077B07FD
:101AD00031F00E94CD0831E03093920102C01092A3
:101AE00092018091930190919401A0919501B09100
:101AF000960140918E0150918F01609190017091FB
:101B00009101841B950BA60BB70B883E9340A10552
:101B1000B1050CF458C18AE899EAA6ECBFE48093B9
:101B2000760190937701A0937801B0937901109298
:101B30007A01109275011092740110928301109233
:101B40008401109285011092860110927301109207
:101B50007201109280001092810010928500109204
:101B60008400A0E4BCE9B0938900A0938800B1E4AC
:101B7000B093810026BA20926F0080917A01813063
:101B800069F0D8F3823009F061C086E391E00E94E9
:101B90009A0880E491E00E949A0858C060918301FD
:101BA000709184018091850190918601C0907F01A0
:101BB000D0908001E0908101F090820180907B01C3
:101BC00090907C01A0907D01B0907E010E94F21463
:101BD0006D877E878F87988BC701B6016819790951
:101BE0008A099B090E94F2149B01AC016D857E85D8
:101BF0008F8598890E94D2166B017C019B01AC01F4
:101C00000E9453152DE33AE047EB5FEB0E9453151A
:101C10004B015C012CE53FE846E553E4C701B60102
:101C20000E9453159B01AC01C501B4010E946616C8
:101C300023E333E349E852E40E94651660938A0186
:101C400070938B0180938C0190938D01C0908A01D9
:101C5000D0908B01E0908C01F0908D01A70196014E
:101C6000C701B6010E94C517882319F083E491E0EB
:101C70001AC046015701E894B7F82FEF3FEF4FE73E
:101C80005FE7C501B4010E94C51781110FC02FEF96
:101C90003FEF4FE75FE7C501B4010E94ED1418164E
:101CA0002CF487E491E00E949A0876C02FEF3FEF72
:101CB0004FE75FE4C701B6010E947A1718161CF4BB
:101CC0008BE491E0F0CF2FEF3FEF4FE75FECC701E0
:101CD000B6010E94ED1487FDF3CF20E030E0A901AA
:101CE000C701B6010E94ED1487FF09C06DE283EAC7
:101CF00091E00E945201F7FAF094F7F8F0942AE08C
:101D000037ED43EA5BE3C701B6010E9466164B015B
:101D10005C010E944B176B017C010E94F2149B0135
:101D2000AC01C501B4010E9465164B015C014AE09B
:101D3000C701B6010E94DD0A6EE283EA91E00E94CB
:101D4000520120E030E040E251E4C501B4010E94BC
:101D500053154B015C010E944B176B01E12CF12CD8
:101D60004AE0C701B6010E94DD0AC701B6010E9420
:101D7000F2149B01AC01C501B4010E94651620E07C
:101D800030E040E251E40E9453150E944B1780E07E
:101D900090E04AE00E94DD0A80E491E00E949A0807
:101DA0002FB7F89480919F019091A001A091A1017B
:101DB000B091A2012FBF80938E0190938F01A093C9
:101DC0009001B093910183EA91E00E941A011816E4
:101DD00019060CF023C2C2010E9400080E94990B50
:101DE00097FD1DC08A309105D1F08F8318860D8133
:101DF0001E810F5F1F4FB801C2010E943F0488235C
:101E000069F329813A818D819E81BE01695F7F4F8F
:101E1000820F931F0E942F1A1E830D83DFCFB20102
:101E200084E692E00E94050489819A810E94BE188E
:101E300018861F821A8619861C861B86609164028A
:101E4000709165026115710541F0409168025091F1
:101E50006902CE0107960E9466040E94CD08A12C5B
:101E6000B12CE12CF12C4501CB84DC84AC14BD04F5
:101E700078F46F8078846AE370E0C3018A0D9B1D5B
:101E80000E941B1A009721F08C010619170902C045
:101E90000FEF1FEFC5010196801791070CF043C0AB
:101EA00068010A151B0510F065014801C2010E9476
:101EB0000008AB84BC84CA14DB04B8F48A149B0405
:101EC00008F45401EF81F885EA0DFB1D9080108223
:101ED0006F8178856C0D7D1DC2010E94AC088F81D9
:101EE0009885FC01EA0DFB1D90823E9CC0013F9C41
:101EF000900D1124805C9D4F4816590619F0B201CF
:101F00000E94050489819A810E94BE182FEFE21A6F
:101F1000F20A36E0E316F1040CF04AC058018FEFE4
:101F2000A81AB80AA0CF17FF9ECF96E0E916F104D1
:101F3000ECF5CA14DB0428F09C2D8D2D6501892E4B
:101F4000982EC2010E9400080B851C85C016D10680
:101F5000B8F48016910608F48401EF81F885E00F4B
:101F6000F11FB08010826F8178856C0D7D1DC201DC
:101F70000E94AC088F819885FC01E00FF11FB082B0
:101F80003E9CC0013F9C900D1124805C9D4F4816E3
:101F9000590619F0B2010E94050489819A810E94B4
:101FA000BE18AFEFEA1AFA0A0E94CD080E94CD08C7
:101FB000F0928901E09288018F8198850E94BE1875
:101FC0000E94CD088FE491E00E94790B882339F1BB
:101FD0008091880190918901019709F58FE591E041
:101FE0000E949A080E941E0B6C01990FEE08FF08D0
:101FF000F7FE19C16DE283EA91E00E945201662763
:102000007727CB016C197D098E099F094AE00E9450
:10201000DD0A80E491E00E949A080E94CD080E94A7
:10202000CD0882E591E00E94790B882391F180919F
:10203000880190918901049761F5F9C010927602A8
:1020400010927702109278021092790210927A021E
:1020500010927B0210927C0210927D0210929E02DE
:1020600010929F021092A0021092A10210928E0272
:1020700010928F02109290021092910210927E02A2
:1020800010927F02109280021092810291E0909350
:1020900087010E94CD0886E591E00E94790B882394
:1020A00009F457C08091880190918901049709F043
:1020B00050C082E592E00E94FA034B015C018CE47F
:1020C00092E00E94FA036B017C018091460290919C
:1020D0004702009709F4B8C10E9442136D877E87BA
:1020E0008F87988B80918701882309F4AAC18091FA
:1020F000920181110E946F0AC501B4010E94F50985
:1021000020E030E0A901C701B6010E94ED14882348
:1021100021F0C701B6010E940D0820917E02309186
:102120007F024091800250918102C501B4010E945A
:10213000ED14882321F0C501B4010E947909AD8511
:10214000BE85BD01BB0F880B990B0E945B090E94E5
:10215000CD080E94CD088BE591E00E94790B882381
:1021600009F45AC08091880190918901049709F07F
:1021700053C082E592E00E94FA034B015C018CE4BB
:1021800092E00E94FA036B017C01809146029091DB
:102190004702009709F46BC10E9442136D877E8746
:1021A0008F87988BC501B4010E94F50920E030E0CB
:1021B000A901C701B6010E94ED14882321F0C701CF
:1021C000B6010E940D0820917E0230917F0240915D
:1021D000800250918102C501B4010E94ED14882350
:1021E00021F0C501B4010E947909809187018823FB
:1021F00009F43AC1809192012D853E856901330F22
:10220000EE08FF08811125C1C701B6010E945B09D4
:102210000E94CD088111FCCF0E94CD080E94CD08FC
:102220000E94C1012ECC4AE0C701B601F0CE82E582
:1022300092E00E94FA036D877E878F87988B8CE4EB
:1022400092E00E94FA036B017C018091460290911A
:102250004702009709F4F1C00E9442138B0180915C
:10226000920181110E946F0A6D857E858F85988904
:102270000E94F50920E030E0A901C701B6010E94E3
:10228000ED14882321F0C701B6010E940D080E94B9
:102290001E0B892BF1F08090000190900101A0901D
:1022A0000201B0900301C501B4010E945B09BFEFB8
:1022B0008B1A9B0AAB0ABB0A809200019092010123
:1022C000A0920201B09203010E94CD080E94420B2D
:1022D000DECF10927602109277021092780210925E
:1022E000790210927A0210927B0210927C02109274
:1022F0007D0210929E0210929F021092A0021092F4
:10230000A10210928E0210928F02109290021092EF
:10231000910210927E0210927F021092800210921F
:1023200081026D857E858F8598890E94F50920E060
:1023300030E0A901C701B6010E94ED14882321F005
:10234000C701B6010E940D0881E090E0A0E0B0E076
:102350008093000190930101A0930201B0930301C7
:102360000E941E0B892B11F56091000170910101F3
:1023700080910201909103010E945B090E94CD08A7
:102380008091000190910101A0910201B09103019F
:102390000197A109B1098093000190930101A093D5
:1023A0000201B09303010E94420BDACF1092760231
:1023B00010927702109278021092790210927A02AB
:1023C00010927B0210927C0210927D0210929E026B
:1023D00010929F021092A0021092A10210928E02FF
:1023E00010928F02109290021092910210927E022F
:1023F00010927F021092800210928102B801110F98
:10240000880B990B0E945B0940917A0250917B02E4
:1024100060917C0270917D028091760290917702AA
:10242000A0917802B0917902481759076A077B0793
:1024300009F404CE0E94CD08E7CF60E070E0CB0144
:102440000DCF0E942A0685CE1D861E861F86188AFD
:1024500049CE0E946F0AC701B6010E945B090E9423
:10246000CD088111FCCFD8CE0E942A06D5CE1D867C
:102470001E861F86188A96CECF93DF93C4E6D2E0DD
:102480002697888199810E94BE1882E0C034D807BF
:10249000B9F78091640290916502DF91CF910C941D
:1024A000BE18CF93DF931092A6011092A50188EE7B
:1024B00093E0A0E0B0E08093A7019093A801A093DF
:1024C000A901B093AA018EE091E09093A4018093BA
:1024D000A30185EC90E09093B0018093AF0184EC70
:1024E00090E09093B2018093B10180EC90E09093E2
:1024F000B4018093B30181EC90E09093B601809396
:10250000B50182EC90E09093B8018093B70186EC1E
:1025100090E09093BA018093B9011092BC0110929F
:10252000BD011092BE011092BF0180E291E0909334
:102530006B0280936A0281E080936D0210927602B2
:1025400010927702109278021092790210927A0219
:1025500010927B0210927C0210927D0210927E02F9
:1025600010927F02109280021092810280E090E02F
:10257000A0E8BFE38093820290938302A093840239
:10258000B093850210928602109287021092880200
:102590001092890280938A0290938B02A0938C02FE
:1025A000B0938D0210928E0210928F0210929002C0
:1025B0001092910221E030E030939702209396022E
:1025C0002FEF209399021092920210929302109290
:1025D0009402109295022BE020936E022CE020933F
:1025E0006F0224E02093700225E020937102109284
:1025F000980210929E0210929F021092A0021092D6
:10260000A1021092A2021092A3021092A4021092B0
:10261000A5021092A6021092A7021092A802109290
:10262000A9028093AA029093AB02A093AC02B0934C
:10263000AD0210926C02109272021092730210920C
:102640007402109275028AE692E00E94A80360E08C
:1026500070E080E89FE30E940D0884E692E00E940B
:102660000008C0E4D2E0CE010E940008269682E075
:10267000C436D807C1F7DF91CF9108956627772731
:102680000C947E131F93FC0199278827BC01E894C2
:1026900011911032E9F3193010F01E30C8F31B32DB
:1026A00051F01D3249F4689406C00E946913610F0D
:1026B000711D811D911D119110531A30B0F33EF41C
:1026C00090958095709561957F4F8F4F9F4F1F918B
:1026D0000895592F482F372F262F660F771F881FF1
:1026E000991F660F771F881F991F620F731F841F22
:1026F000951F660F771F881F991F0895A0E0B0E00F
:10270000E4E8F3E10C942516EC016B016115710509
:1027100019F0FB01918380837E01FFEFEF1AFF0A1E
:102720000881802F90E00E94CC14892B11F0E701E2
:10273000F3CF0D3239F47E0182E0E80EF11C0981FD
:1027400011E008C00B3229F47E0192E0E90EF11C81
:10275000098110E0E701219743E050E060E970E073
:10276000CE010E94D514892BC1F4239645E050E098
:102770006BE870E0CE010E94D514892B09F42596F0
:10278000C114D10419F0F601D183C0831111F6C030
:1027900060E070E080E89FE7FAC043E050E068E85E
:1027A00070E0CE010E94D514892B59F4C114D104D4
:1027B00009F4E9C0F2E0EF0EF11CF601F182E082CB
:1027C000E2C020E030E0A901C0E0D0E0F70180EDF8
:1027D000A82EA00E89E08A1530F1912F9260B92EB3
:1027E000812F887012FF04C0811124C0219622C05D
:1027F00081112197A5E0B0E00E941416DC01CB0105
:10280000880F991FAA1FBB1F9C01AD012A0D311D06
:10281000411D511D283989E93807480789E15807C2
:1028200048F0166006C09EEFA9120AC013FD40C012
:102830001860B12E8FEFE81AF80A00811B2DC6CF61
:10284000802F8F7D8534A1F580818D3211F4106148
:1028500006C08B3221F0319661E070E004C08181C6
:10286000329662E070E080538A3018F0E61BF70B76
:102870001FC060E070E060389CE079075CF4DB0129
:10288000AA0FBB1FAA0FBB1F6A0F7B1F660F771F04
:10289000680F711D3196DF0111978C9180538A303A
:1028A00050F314FF03C0719561957109C60FD71FCE
:1028B00011FF08C0C114D10429F0CF010197F6011E
:1028C00091838083CA01B9010E94F214212F2370E1
:1028D000233019F04B015C0106C04B015C01B7FAD3
:1028E000B094B7F8B09420E030E0A901C501B4017C
:1028F0000E94ED14882309F43EC0D7FF06C0D1958D
:10290000C195D10907EA10E002C00FEB10E06801A1
:10291000F8E1CF1AD10890E2E92EF12CCE15DF05AF
:1029200074F0F8012591359145915491C501B40198
:102930000E9453154B015C01CE19DF09EFCF045003
:102940001109F594E7940C151D0541F78A2D880FA0
:102950008B2D881F8F3F49F020E030E0A901C50191
:10296000B4010E94ED14811106C082E290E09093C0
:10297000B4028093B302C501B40109C060E070E005
:1029800080E89FEF04C060E070E080EC9FE7CDB787
:10299000DEB7ECE00C94411691110C94C015803216
:1029A00019F089508550C8F70895FB01DC014150AA
:1029B000504088F08D9181341CF08B350CF4805E92
:1029C000659161341CF06B350CF4605E861B6111FF
:1029D00071F3990B0895881BFCCF0E942F1508F402
:1029E00081E00895E89409C097FB3EF490958095A6
:1029F000709561957F4F8F4F9F4F9923A9F0F92FC5
:102A000096E9BB279395F695879577956795B79542
:102A1000F111F8CFFAF4BB0F11F460FF1BC06F5F28
:102A20007F4F8F4F9F4F16C0882311F096E911C03A
:102A3000772321F09EE8872F762F05C0662371F05B
:102A400096E8862F70E060E02AF09A95660F771F6F
:102A5000881FDAF7880F9695879597F90895990F4B
:102A60000008550FAA0BE0E8FEEF16161706E80758
:102A7000F907C0F012161306E407F50798F0621B79
:102A8000730B840B950B39F40A2661F0232B242B4E
:102A9000252B21F408950A2609F4A140A6958FEF6D
:102AA000811D811D08950E9466150C94DA150E94FF
:102AB000CC1538F00E94D31520F0952311F00C941A
:102AC000C3150C94C91511240C940E160E94EB1515
:102AD00070F3959FC1F3950F50E0551F629FF00171
:102AE000729FBB27F00DB11D639FAA27F00DB11D8A
:102AF000AA1F649F6627B00DA11D661F829F222713
:102B0000B00DA11D621F739FB00DA11D621F839F99
:102B1000A00D611D221F749F3327A00D611D231F6F
:102B2000849F600D211D822F762F6A2F11249F57BD
:102B300050409AF0F1F088234AF0EE0FFF1FBB1FC0
:102B4000661F771F881F91505040A9F79E3F51057F
:102B500080F00C94C3150C940E165F3FE4F3983E7E
:102B6000D4F3869577956795B795F795E7959F5F29
:102B7000C1F7FE2B880F911D9695879597F90895BB
:102B800099278827089597F99F6780E870E060E0AB
:102B900008959FEF80EC089500240A9416161706F6
:102BA00018060906089500240A941216130614063E
:102BB00005060895092E0394000C11F4882352F0A1
:102BC000BB0F40F4BF2B11F460FF04C06F5F7F4F59
:102BD0008F4F9F4F089557FD9058440F551F59F040
:102BE0005F3F71F04795880F97FB991F61F09F3FFA
:102BF00079F087950895121613061406551FF2CF23
:102C00004695F1DF08C0161617061806991FF1CF72
:102C100086957105610508940895E894BB27662799
:102C20007727CB0197F908950E945616A59F900D1E
:102C3000B49F900DA49F800D911D112408952F9293
:102C40003F924F925F926F927F928F929F92AF923C
:102C5000BF92CF92DF92EF92FF920F931F93CF9389
:102C6000DF93CDB7DEB7CA1BDB0B0FB6F894DEBF20
:102C70000FBECDBF09942A88398848885F846E8446
:102C80007D848C849B84AA84B984C884DF80EE8090
:102C9000FD800C811B81AA81B981CE0FD11D0FB699
:102CA000F894DEBF0FBECDBFED010895A29FB00125
:102CB000B39FC001A39F700D811D1124911DB29F70
:102CC000700D811D1124911D08955058BB27AA270E
:102CD0000E947D160C94DA150E94CC1538F00E94E3
:102CE000D31520F039F49F3F19F426F40C94C9153C
:102CF0000EF4E095E7FB0C94C315E92F0E94EB1549
:102D000058F3BA17620773078407950720F079F420
:102D1000A6F50C940D160EF4E0950B2EBA2FA02DEF
:102D20000B01B90190010C01CA01A0011124FF2778
:102D3000591B99F0593F50F4503E68F11A16F04073
:102D4000A22F232F342F4427585FF3CF4695379572
:102D50002795A795F0405395C9F77EF41F16BA0B37
:102D6000620B730B840BBAF09150A1F0FF0FBB1FE5
:102D7000661F771F881FC2F70EC0BA0F621F731F2E
:102D8000841F48F4879577956795B795F7959E3F8B
:102D900008F0B0CF9395880F08F09927EE0F97951C
:102DA000879508950E94E6160C94DA150E94D315B3
:102DB00058F00E94CC1540F029F45F3F29F00C94A4
:102DC000C31551110C940E160C94C9150E94EB15E5
:102DD00068F39923B1F3552391F3951B550BBB274A
:102DE000AA2762177307840738F09F5F5F4F220F8F
:102DF000331F441FAA1FA9F335D00E2E3AF0E0E886
:102E000032D091505040E695001CCAF72BD0FE2FCF
:102E100029D0660F771F881FBB1F26173707480763
:102E2000AB07B0E809F0BB0B802DBF01FF2793581B
:102E30005F4F3AF09E3F510578F00C94C3150C9407
:102E40000E165F3FE4F3983ED4F386957795679529
:102E5000B795F7959F5FC9F7880F911D9695879550
:102E600097F90895E1E0660F771F881FBB1F62176F
:102E700073078407BA0720F0621B730B840BBA0B2D
:102E8000EE1F88F7E09508950E944B176894B111E2
:102E90000C940E1608950E94F31588F09F5798F031
:102EA000B92F9927B751B0F0E1F0660F771F881F4F
:102EB000991F1AF0BA95C9F714C0B13091F00E9469
:102EC0000D16B1E008950C940D16672F782F882702
:102ED000B85F39F0B93FCCF3869577956795B39590
:102EE000D9F73EF490958095709561957F4F8F4FFF
:102EF0009F4F08950E942F1508F48FEF089519F43D
:102F000016F40C94C9150C94CA170E94F315B8F363
:102F10009923C9F3B6F39F57550B87FF0E94D81723
:102F20000024A0E640EA900180585695979528F431
:102F3000805C660F771F881F20F026173707480729
:102F400030F4621B730B840B202931294A2BA69580
:102F500017940794202531254A2758F7660F771FC5
:102F6000881F20F026173707480730F4620B730BD1
:102F7000840B200D311D411DA09581F7B901842FCF
:102F80009158880F9695879508950E942F15880B64
:102F9000990B08959F3F31F0915020F487957795D4
:102FA0006795B795880F911D9695879597F9089520
:102FB00091505040660F771F881FD2F70895A1E205
:102FC0001A2EAA1BBB1BFD010DC0AA1FBB1FEE1FA3
:102FD000FF1FA217B307E407F50720F0A21BB30BEE
:102FE000E40BF50B661F771F881F991F1A9469F76A
:102FF00060957095809590959B01AC01BD01CF01C6
:103000000895052E97FB1EF400940E94181857FD92
:1030100007D00E94DF1707FC03D04EF40C94181859
:1030200050954095309521953F4F4F4F5F4F0895F4
:1030300090958095709561957F4F8F4F9F4F089524
:10304000EE0FFF1F0590F491E02D09940F931F934D
:10305000CF93DF938230910510F482E090E0E0910D
:10306000B702F091B80220E030E0A0E0B0E0309785
:1030700019F1408151810281138148175907C8F025
:103080008417950769F4109731F012960C931297F4
:1030900013961C9327C00093B7021093B80222C066
:1030A0002115310519F04217530718F49A01BD0193
:1030B000EF01DF01F801DBCF21153105F9F0281B05
:1030C000390B2430310580F48A819B8161157105AB
:1030D00021F0FB019383828304C09093B802809314
:1030E000B702FE01329644C0FE01E20FF31F819346
:1030F000919322503109398328833AC02091B50237
:103100003091B602232B41F4209106013091070142
:103110003093B6022093B50220910401309105014D
:103120002115310541F42DB73EB74091080150916A
:103130000901241B350BE091B502F091B602E217AC
:10314000F307A0F42E1B3F0B2817390778F0AC01CA
:103150004E5F5F4F2417350748F04E0F5F1F5093A7
:10316000B6024093B5028193919302C0E0E0F0E093
:10317000CF01DF91CF911F910F910895CF93DF93EE
:10318000009709F481C0FC01329713821282A0914A
:10319000B702B091B802109781F420813181820F7B
:1031A000931F2091B5023091B6022817390751F5C7
:1031B000F093B602E093B50267C0ED0120E030E085
:1031C000CE17DF0740F44A815B819E01411551050E
:1031D000F1F0EA01F5CFD383C28340815181840F9E
:1031E000951FC817D90759F488819981840F951FB5
:1031F0000296918380838A819B81938382832115A8
:10320000310529F4F093B802E093B7023DC0E9011B
:10321000FB83EA8349915991C40FD51FEC17FD0731
:1032200061F480819181840F951F0296E901998351
:103230008883828193819B838A83E0E0F0E0129609
:103240008D919C911397009719F0FD01DC01F7CF48
:103250008D919C9111979D012E5F3F4F820F931F7F
:103260002091B5023091B6022817390769F43097DA
:1032700029F41092B8021092B70202C0138212828F
:10328000B093B602A093B502DF91CF910895A0E06C
:10329000B0E0EDE4F9E10C942316EC01009721F481
:1032A000CB010E942618B4C0FC01E60FF71F9C0159
:1032B00022503109E217F30708F4A8C0D9010D9193
:1032C0001C91119706171707B0F00530110508F487
:1032D0009BC0C80104978617970708F495C0025051
:1032E0001109061B170B019311936D937C93CF016A
:1032F0000E94BE1889C05B01A01AB10A4C01800E61
:10330000911EA091B702B091B802612C712CE12CF2
:10331000F12C109709F446C08D919C911197A81536
:10332000B905B1F56C0142E0C40ED11CCA14DB042E
:1033300078F14C018A189B08640142E0C40ED11C4C
:103340001296BC9012971396AC91B5E0CB16D104AF
:1033500040F0B282A38391828082D9016D937C93E5
:1033600009C00E5F1F4F800F911FF9019183808369
:10337000EB2DFA2FE114F10431F0D7011396FC93F1
:10338000EE93129741C0F093B802E093B7023CC0AD
:103390006816790608F43C017D0112960D90BC91E7
:1033A000A02DB7CF8091B5029091B60288169906EC
:1033B000E1F466167706C8F4809104019091050146
:1033C000009741F48DB79EB74091080150910901D3
:1033D000841B950BE817F907C8F4F093B602E09345
:1033E000B502F901718360830FC0CB010E942618DA
:1033F0007C01009759F0A801BE010E94121ACE016B
:103400000E94BE18C70104C0CE0102C080E090E057
:10341000CDB7DEB7EEE00C943F1681E090E0F89473
:103420000C94361AFB01DC0102C001900D92415050
:103430005040D8F70895FC018191861721F0882328
:10344000D9F7992708953197CF010895FB01DC0141
:103450008D91019080190110D9F3990B0895FB010A
:10346000DC0101900D920020E1F7089510E0C0E921
:10347000D0E004C0FE010E9420182196C139D10776
:06348000C9F7F894FFCF2C
:10348600FFFFFFFF0000B9028000000000005201AC
:10349600BC00E9009F011A01F8000C0100000000C1
:1034A600DC03A803700329031303DB02BA028602B6
:1034B60065020F02CB016E6F2073656E736F72002B
:1034C6000D0A006E616E00696E66006F76660065B5
:1034D600730063616C006D6F766500706F730065D5
:1034E600733A006E6F742063616C69627261746511
:0234F600640070
:00000001FF
