:100000000C9491000C94B9000C94B9000C94B900B4
:100010000C94B9000C94B9000C94B9000C94B9007C
:100020000C94B9000C94B9000C94E9040C940006EB
:100030000C94B9000C9413060C94B9000C94B900FC
:100040000C94710C0C94B9000C94B7040C949104AA
:100050000C94B9000C94B9000C94B9000C94B9003C
:100060000C94B9000C94B900E301E901EF01F5012A
:10007000FB010102070238033F0346034D0354030B
:100080006B035B036B0362034E414E494E49545967
:10009000494E46CDCCCC3D0AD7233C17B7D1387753
:1000A000CC2B329595E6241FB14F0A000020410069
:1000B00000C84200401C4620BCBE4CCA1B0E5AAEB3
:1000C000C59D7400000000240027002A00000000E5
:1000D00000250028002B0000000000230026002936
:1000E00000040404040404040402020202020203E1
:1000F00003030303030102040810204080010204EB
:10010000081020010204081020000000080002016D
:10011000000003040700000000000000000050126F
:100120003B1211241FBECFEFD8E0DEBFCDBF22E0CF
:10013000A2E9B1E001C01D92A13FB207E1F711E0D1
:10014000A0E0B1E0E4E8F4E302C005900D92A2392A
:10015000B107D9F710E0C0E9D0E004C02197FE0153
:100160000E941F18CF38D107C9F70E94BB0C0C940E
:10017000351A0C9400000895CF92DF92EF92FF920F
:100180000F931F93CF93DF936C017A018B01C0E033
:10019000D0E0CE15DF0581F0D8016D918D01D6013B
:1001A000ED91FC910190F081E02DC6010995892B1C
:1001B00011F02196EECF7E01C701DF91CF911F9103
:1001C0000F91FF90EF90DF90CF90089580E090E046
:1001D0000895FC01538D448D252F30E0842F90E04D
:1001E000821B930B541710F0CF9608950197089532
:1001F000FC01918D828D981761F0828DDF01A80F2F
:10020000B11D5D968C91928D9F5F9F73928F90E050
:1002100008958FEF9FEF0895FC01918D828D9817BF
:1002200031F0828DE80FF11D858D90E008958FEFFC
:100230009FEF0895FC01918D228D892F90E0805CC5
:100240009F4F821B91098F739927089583EC91E04A
:100250000E941A0121E0892B09F420E0822F0895E1
:10026000FC01848DDF01A80FB11DA35ABF4F2C9153
:10027000848D90E001968F739927848FA689B78922
:100280002C93A089B1898C91837080648C93938D19
:10029000848D981306C00288F389E02D80818F7DBC
:1002A00080830895EF92FF920F931F93CF93DF9374
:1002B000EC0181E0888F9B8D8C8D981305C0E889B7
:1002C000F989808185FD26C0F62E0B8D10E00F5F29
:1002D0001F4F0F731127E02E8C8DE8120CC00FB644
:1002E00007FCFACFE889F989808185FFF5CFCE0137
:1002F0000E943001F1CF8B8DFE01E80FF11DE35A12
:10030000FF4FF0829FB7F8940B8FEA89FB898081B9
:1003100080620AC09FB7F894EE89FF896083E889FC
:10032000F98980818370806480839FBF81E090E041
:10033000DF91CF911F910F91FF90EF900895CF9390
:10034000DF93EC01888D8823C9F0EA89FB898081DD
:1003500085FD05C0A889B9898C9186FD0FC00FB6AF
:1003600007FCF5CF808185FFF2CFA889B9898C91F0
:1003700085FFEDCFCE010E943001E7CFDF91CF9115
:10038000089580E090E0892B29F00E9426018111D8
:100390000C9400000895CF93DF934770552766278C
:1003A0007727FA013197EC01A881B981E730F1058F
:1003B00020F4EC5CFF4F0C941F181496ED91FC9107
:1003C000159761E029C01496ED91FC91159765E0B1
:1003D00023C01496ED91FC91159764E01DC014960E
:1003E000ED91FC91159766E017C01496ED91FC9184
:1003F000159762E011C01496ED91FC9115976AE093
:100400000BC01496ED91FC91159768E005C0149609
:10041000ED91FC91159769E0DF91CF910994CF930D
:10042000DF93EC01CB01BA0126E030E040E050E080
:100430000E940018623071058105910559F18CF414
:100440006115710581059105F1F061307105810536
:100450009105C1F5E881F9810480F581E02D65E021
:100460002DC0643071058105910511F1D4F065301E
:1004700071058105910531F5E881F9810480F581E7
:10048000E02D66E01BC0E881F9810480F581E02D54
:1004900064E014C0E881F9810480F581E02D61E019
:1004A0000DC0E881F9810480F581E02D63E006C08C
:1004B000E881F9810480F581E02D62E0CE01DF91D1
:1004C000CF910994DF91CF91089543705527662706
:1004D0007727DC01ED91FC910480F581E02D42301D
:1004E00051056105710571F04330510561057105D4
:1004F00059F0413051056105710511F065E005C005
:1005000066E003C06AE001C069E00994CF93DF931D
:10051000EC01CB01BA0123E030E040E050E00E9462
:100520000018613071058105910581F06230710517
:100530008105910591F0672B682B692BC1F4E88147
:10054000F9810480F581E02D64E00DC0E881F98136
:100550000480F581E02D61E006C0E881F981048026
:10056000F581E02D62E0CE01DF91CF910994DF911A
:10057000CF9108954370552766277727DC01ED91C9
:10058000FC910480F581E02D423051056105710533
:1005900071F0433051056105710559F04130510545
:1005A0006105710511F062E005C063E003C061E020
:1005B00001C060E00994CF93DF93EC01E881F981F9
:1005C0000480F581E02D8A81811102C060E001C0C4
:1005D00062E0CE010995E881F9810480F581E02D82
:1005E0008A81811102C061E001C063E0CE010995FA
:1005F0008CA59DA58230910538F0880F991F880F32
:10060000991F05970197F1F7E881F9810480F58139
:10061000E02D8A81811102C060E001C062E0CE015C
:10062000DF91CF910994CF93DF93EC0120E030E08C
:10063000A9016C897D898E899F890E947917181676
:100640001CF4E8A9F9A902C0EAA9FBA9DF91CF919E
:1006500009940F931F93DC011396EC910E2F10E079
:1006600009301105C0F5F801E55CFF4F0C941F1827
:10067000DC01ED91FC910084F185E02D29C0DC01C5
:10068000ED91FC910284F385E02D22C0DC01ED9117
:10069000FC910484F585E02D1BC0DC01ED91FC91FB
:1006A0000684F785E02D14C0DC01ED91FC910088F3
:1006B000F189E02D0DC0DC01ED91FC910288F389F8
:1006C000E02D06C0DC01ED91FC910488F589E02D58
:1006D0001F910F9109941F910F9108950E940C1A78
:1006E000CF92DF92EF92FF920F931F93CF93DF93FE
:1006F000EC019B81943041F0983031F0933031F02F
:10070000963021F012E003C014E001C013E02496FB
:10071000E12CF12CC62ED12C01E0C6010E2C02C01A
:10072000959587950A94E2F76C8180FD6027899101
:100730000E94E10B8FEFE81AF80AE11670F3DF91DF
:10074000CF911F910F91FF90EF90DF90CF90089580
:10075000CF93DF93FC012381222359F1EC0161E067
:1007600084810E94100C61E08D810E94100C8B81AD
:10077000843011F0883039F461E08E810E94100CD1
:1007800061E08F8106C0833011F0863021F461E092
:100790008E810E94100C8FA58F3F59F061E00E945E
:1007A000100C6EA581E068278FA5DF91CF910C9486
:1007B000E10BDF91CF910895CF93DF93FC0123816B
:1007C0002223A9F0EC010190F081E02D0480F58155
:1007D000E02D60E009958FA58F3F49F061E00E9410
:1007E000100C6EA58FA5DF91CF910C94E10BDF91DA
:1007F000CF910895FC0180819181009711F00C94B4
:100800003D1360E070E0CB0108950F931F93CF93E9
:10081000DF938C01EB01FC0180819181009739F01D
:100820006881798161157105A1F40E94BD188881E4
:100830009981F801918380838A819B81938382834C
:100840008C819D8195838483198218821B821A82F0
:100850000FC0F801428153812C813D81421753071B
:1008600020F30E942E1A8C819D81F8019583848348
:100870001D821C82DF91CF911F910F9108950F93DC
:100880001F93CF93DF93EC0188819981009729F022
:100890002A813B812617370788F48B016F5F7F4FD2
:1008A0000E944619009761F0998388831B830A830D
:1008B0002C813D81232B11F4FC01108281E001C0C9
:1008C00080E0DF91CF911F910F910895EF92FF92F9
:1008D0000F931F93CF93DF93EC017B018A01BA0141
:1008E0000E943F042881398181110DC021153105F5
:1008F00019F0C9010E94BD18198218821D821C823C
:100900001B821A8206C01D830C83B701C9010E9495
:100910002E1ACE01DF91CF911F910F91FF90EF9092
:1009200008951F920F920FB60F9211242F933F93A9
:100930004F935F936F937F938F939F93AF93BF93E7
:10094000EF93FF9383EC91E00E943001FF91EF91D0
:10095000BF91AF919F918F917F916F915F914F91D7
:100960003F912F910F900FBE0F901F9018951F92DF
:100970000F920FB60F9211242F938F939F93EF93A3
:10098000FF93E091D301F091D4018081E091D901EE
:10099000F091DA0182FD12C090818091DC018F5FBD
:1009A0008F732091DD01821751F0E091DC01F0E0BE
:1009B000ED53FE4F958F8093DC0101C08081FF9144
:1009C000EF919F918F912F910F900FBE0F901F90DD
:1009D00018951F920F920FB60F921124CF92DF92AB
:1009E000EF92FF920F931F932F933F934F935F9339
:1009F0006F937F938F939F93AF93BF93EF93FF93E7
:100A00002091860030918700C9013091810020E457
:100A1000232720938100B59A209192013091930170
:100A2000D901B09B05C08F3F4FE7940708F4BFC0C2
:100A30002091810026FFABC0209194013091950157
:100A40002115310509F44DC02130310509F052C09E
:100A5000C090BB01D090BC01E090BD01F090BE0100
:100A60000091A3011091A4012091A5013091A6014C
:100A7000080F191F2A1F3B1F0C191D092E093F09BA
:100A80000093A3011093A4012093A5013093A60124
:100A9000C0909601D0909701E0909801F090990154
:100AA00000919B0110919C0120919D0130919E012C
:100AB000BC01CD01601B710B820B930B0E94F114E2
:100AC0009B01AC01C701B6010E94D1160E944A17D2
:100AD0006093B7017093B8018093B9019093BA0104
:100AE0004CC080939B0190939C01A0939D01B09377
:100AF0009E0143C0C090BB01D090BC01E090BD01FD
:100B0000F090BE010091A3011091A4012091A501D4
:100B10003091A601080F191F2A1F3B1F0C191D0930
:100B20002E093F090093A3011093A4012093A5016E
:100B30003093A601209194013091950127703327BD
:100B4000232BD9F4C0909B01D0909C01E0909D0193
:100B5000F0909E010091B7011091B8012091B90168
:100B60003091BA01AC01BD014C195D096E097F09D4
:100B70004017510762077307E8F480919401909140
:100B800095010196909395018093940122C09C0158
:100B9000205C334630938900209388008093BB010A
:100BA0009093BC01A093BD01B093BE0112C0D901C6
:100BB00011963ECF80939F019093A001A093A10135
:100BC000B093A20110926F0083E286BB81E0809314
:100BD0009A01FF91EF91BF91AF919F918F917F917A
:100BE0006F915F914F913F912F911F910F91FF90C6
:100BF000EF90DF90CF900F900FBE0F901F90189541
:100C00001F920F920FB60F9211248F9310926F00C4
:100C100083E286BB82E080939A018F910F900FBE92
:100C20000F901F9018951F920F920FB60F921124DC
:100C30008F939F938091920190919301019690934D
:100C40009301809392019F918F910F900FBE0F900F
:100C50001F9018954F925F926F927F928F929F9202
:100C6000AF92BF92CF92DF92EF92FF920F931F93BA
:100C7000CF93DF93C090B202D090B302E090B40261
:100C8000F090B5028091AE029091AF02A091B002B7
:100C9000B091B102C81AD90AEA0AFB0A6091B602F9
:100CA0007091B7028091B8029091B9029B01AC019A
:100CB0000E9452154B015C016091BE027091BF020F
:100CC0008091C0029091C1029B01AC010E94651607
:100CD0009B01AC01C501B4010E94D1160E944317CB
:100CE000C114D104E104F104F9F462307105810505
:100CF00091050CF092C01092C6021092C702109299
:100D0000C8021092C9021092B6021092B702109255
:100D1000B8021092B9021092D6021092D702109225
:100D2000D8021092D9022AC10091D6021091D7029E
:100D30002091D8023091D9021C141D041E041F04F6
:100D40000CF5101611061206130654F46C157D05E9
:100D50008E059F0564F52091A40221115EC027C075
:100D6000011511052105310509F457C06C157D05E4
:100D70008E059F050CF051C08091A402882309F4D0
:100D80004CC03CC0101611061206130614F50027BD
:100D9000112798010C191D092E093F0960177107C9
:100DA0008207930724F42091A4022223B1F19B012E
:100DB000AC0188279927DC01821B930BA40BB50B90
:100DC0008093D6029093D702A093D802B093D90211
:100DD00024C00115110521053105F9F08824992455
:100DE00054018C189D08AE08BF08681579058A055E
:100DF0009B059CF48091A40281110FC03095209531
:100E0000109501951F4F2F4F3F4F0093D60210931F
:100E1000D7022093D8023093D9028090D6029090C6
:100E2000D702A090D802B090D90281149104A104F5
:100E3000B104D1F48091DA029091DB02A091DC023E
:100E4000B091DD028093DE029093DF02A093E00276
:100E5000B093E10281E01C141D041E041F040CF079
:100E600080E08093A4024AC0C090DE02D090DF02EE
:100E7000E090E002F090E102A7019601C701B601FF
:100E80000E9465162B013C01C501B4010E94F314B8
:100E900020E030E040E850E40E94521520E030E0CD
:100EA00040E85FE30E9465169B01AC01C301B201FB
:100EB0000E94D1169B01AC01C701B6010E946416C5
:100EC000D62FC72F6C01E090E202F090E302009170
:100ED000E4021091E5029701A8010E947917181603
:100EE0001CF4ED2EFC2E8601C701D8018093DE0292
:100EF0009093DF02A093E002B093E1023FEF831AE8
:100F0000930AA30AB30A8092D6029092D702A092C3
:100F1000D802B092D902C090DE02D090DF02E090F9
:100F2000E002F090E102C701B6010E944A17609307
:100F3000C6027093C7028093C8029093C902A701AA
:100F4000960160E074E284E799E40E94D116609310
:100F5000B6027093B7028093B8029093B9022091C1
:100F6000A40221110BC0DC01CB01B0588093B60262
:100F70009093B702A093B802B093B902DF91CF91DA
:100F80001F910F91FF90EF90DF90CF90BF90AF90A7
:100F90009F908F907F906F905F904F9008958330D7
:100FA00081F028F4813099F08230A1F008958730E3
:100FB000A9F08830B9F08430D1F4809180008F7D21
:100FC00003C0809180008F7780938000089584B55E
:100FD0008F7702C084B58F7D84BD08958091B00065
:100FE0008F7703C08091B0008F7D8093B00008950B
:100FF000FC0111821082138212821582148240E059
:1010000050E06AE471E00C9466044F925F926F9234
:101010007F928F929F92AF92BF92CF92DF92EF9288
:10102000FF926B017C0120E030E0A9010E94EC14EA
:1010300087FF04C0F7FAF094F7F8F0948090BE02AE
:101040009090BF02A090C002B090C102A70196018B
:10105000C501B4010E94EC14882309F456C06091C4
:10106000D6027091D7028091D8029091D9020E9445
:10107000F3142B013C01A7019601C501B4010E94A4
:10108000D1169B01AC01C301B2010E9452150E940E
:1010900043176093D6027093D7028093D80290933F
:1010A000D902A701960160E070E080E090E40E9420
:1010B000D1160E94841726E53EE04DE25FE30E94D0
:1010C000521520E034E244E759E40E94521560933F
:1010D000DA027093DB028093DC029093DD02C0920F
:1010E000BE02D092BF02E092C002F092C102FF9015
:1010F000EF90DF90CF90BF90AF909F908F907F90B8
:101100006F905F904F900C942A06FF90EF90DF90C5
:10111000CF90BF90AF909F908F907F906F905F9097
:101120004F900895009769F0FC0101900020E9F7C5
:101130003197AF01481B590BBC0183EC91E00C9433
:10114000BC0080E090E00895CF93DF93EC0161153F
:10115000710559F0FB0101900020E9F73197AF01CB
:10116000461B570B0E9466040CC08881998100972A
:1011700011F00E94BD18198218821D821C821B82E8
:101180001A82CE01DF91CF910895CF92DF92EF9234
:10119000FF928091C6029091C702A091C802B091BF
:1011A000C902892B8A2B8B2B09F450C00E944C0C4E
:1011B0006B017C018091CA029091CB02A091CC027C
:1011C000B091CD02B701A601481B590B6A0B7B0BEE
:1011D0008091C6029091C702A091C802B091C90245
:1011E000481759076A077B0788F12091A40280916C
:1011F000AE029091AF02A091B002B091B102222351
:1012000021F00196A11DB11D03C00197A109B109EB
:101210008093AE029093AF02A093B002B093B1025C
:101220004091AE025091AF026091B0027091B10254
:1012300082EA92E00E942903C092CA02D092CB02B5
:10124000E092CC02F092CD020E942A0620E030E02B
:10125000A9016091B6027091B7028091B802909195
:10126000B9020E94EC14811118C081E0C090B20252
:10127000D090B302E090B402F090B5024091AE027B
:101280005091AF026091B0027091B102C416D506C0
:10129000E606F70619F480E001C081E0FF90EF90C8
:1012A000DF90CF9008950F931F930091B202109199
:1012B000B3022091B4023091B50206171707280730
:1012C000390761F06093B2027093B3028093B40265
:1012D0009093B5021F910F910C942A061F910F91C4
:1012E00008958F929F92AF92BF92CF92DF92EF922A
:1012F000FF928090B6029090B702A090B802B09092
:10130000B90220E030E0A901C501B4010E94EC144B
:10131000882309F44BC0A5019401C501B4010E94C2
:1013200052156B017C016091BE027091BF028091E9
:10133000C0029091C1029B01AC010E9465169B0105
:10134000AC01C701B6010E94D1160E9443176B0180
:101350007C012FEFC21AD20AE20AF20A20E030E042
:10136000A901C501B4010E9479174091AE025091C4
:10137000AF026091B0027091B10218163CF4CB013B
:10138000BA016C0D7D1D8E1D9F1D06C0CB01BA01DB
:101390006C197D098E099F09FF90EF90DF90CF9027
:1013A000BF90AF909F908F900C945309FF90EF9057
:1013B000DF90CF90BF90AF909F908F9008958F92C5
:1013C0009F92AF92BF920F931F93CF93DF93CDB7AE
:1013D000DEB7A1970FB6F894DEBF0FBECDBF19A23E
:1013E000423008F44AE08E010F5D1F4F842E912C8D
:1013F000A12CB12CA50194010E94DE17E62FB901A2
:10140000CA0101501109EA3014F4E05D01C0E95C41
:10141000D801EC93232B242B252B61F7C8010E94C4
:101420009208A1960FB6F894DEBF0FBECDBFDF9134
:10143000CF911F910F91BF90AF909F908F90089583
:10144000CF93DF93E3E1F1E08491EFEFF0E0D4910B
:10145000EBEEF0E0C491CC2391F081110E94CF0714
:10146000EC2FF0E0EE0FFF1FE952FF4FA591B49172
:10147000EC91ED2381E090E021F480E002C080E077
:1014800090E0DF91CF9108958F929F92AF92BF929B
:10149000CF92DF92EF92FF920F931F93CF93DF9340
:1014A0008B01D82FC92F9B01482F592F6091B6026D
:1014B0007091B7028091B8029091B9020E94EC1429
:1014C000882309F460C0C090BA02D090BB02E090BB
:1014D000BC02F090BD0246015701B7FAB094B7F8CC
:1014E000B094A5019401B8018D2F9C2F0E94EC149B
:1014F00087FD0DC0A7019601B8018D2F9C2F0E947A
:101500007917181634F06801ED2EFC2E02C0750113
:10151000640120E030E0A901C701B6010E94EC148B
:10152000811109C01092C6021092C7021092C8021F
:101530001092C90220C0A701960160E074E284E71E
:1015400099E40E94D1169F770E944A176093C602C1
:101550007093C7028093C8029093C902C1E020E053
:1015600030E0A901C701B6010E94791718160CF0E6
:10157000C0E0C093A402C092B602D092B702E0923B
:10158000B802F092B902DF91CF911F910F91FF90B5
:10159000EF90DF90CF90BF90AF909F908F90089585
:1015A000CF92DF92EF92FF926B017C0120E030E05E
:1015B000A9010E94EC1487FF04C0F7FAF094F7F831
:1015C000F094A70196016091BA027091BB028091DC
:1015D000BC029091BD020E94EC14882309F455C00E
:1015E000C092BA02D092BB02E092BC02F092BD025D
:1015F000A701960160E074E284E799E40E94D116A5
:101600006093E2027093E3028093E4029093E50218
:101610008091D6029091D702A091D802B091D902C0
:10162000181619061A061B0684F56091B602709109
:10163000B7028091B8029091B9029B01AC010E945F
:1016400052156B017C016091BE027091BF028091C6
:10165000C0029091C1029B01AC010E9465169B01E2
:10166000AC01C701B6010E94D1160E9443176093D6
:10167000D6027093D7028093D8029093D902FF903C
:10168000EF90DF90CF900C942A06FF90EF90DF90C0
:10169000CF9008958F929F92AF92BF92CF92DF9298
:1016A000EF92FF920E944C0C4B015C0185E0C82E2A
:1016B000D12CE12CF12C0E944C0CDC01CB018819BF
:1016C0009909AA09BB09883E9340A105B10598F381
:1016D00021E0C21AD108E108F10888EE880E83E003
:1016E000981EA11CB11CC114D104E104F10419F726
:1016F000FF90EF90DF90CF90BF90AF909F908F9032
:101700000895FC018091640290916502892B21F477
:1017100021E0309749F413C08091600290916102FA
:10172000309731F421E0FC018081882341F006C02C
:10173000BF010E94251A21E0892B09F020E0822FA9
:1017400008952FB7F8948091BF019091C001A091A6
:10175000C101B091C2012FBF8093CB019093CC0106
:10176000A093CD01B093CE0183EC91E00E94F800EC
:1017700097FF26C02FB7F8948091BF019091C001C8
:10178000A091C101B091C2012FBF4091CB015091F6
:10179000CC016091CD017091CE01841B950BA60BFD
:1017A000B70B4091C7015091C8016091C901709178
:1017B000CA0184179507A607B707B0F28FEF9FEF0E
:1017C00008951F93CF93DF93282F30E0F901E75F4F
:1017D000FE4F8491F901EB50FF4FD491F901EF5185
:1017E000FF4FC491CC23C1F0162F81110E94CF0767
:1017F000EC2FF0E0EE0FFF1FE353FF4FA591B491E4
:101800009FB7F894111104C08C91D095D82302C0D1
:10181000EC91DE2BDC939FBFDF91CF911F91089558
:10182000CF93DF9390E0FC01EB50FF4F2491FC013C
:10183000EF51FF4F8491882361F190E0880F991F49
:10184000FC01ED53FF4FC591D491FC01E353FF4FD1
:10185000A591B491611109C09FB7F8948881209532
:1018600082238883EC912E230BC0623061F49FB7F2
:10187000F8948881322F309583238883EC912E2B26
:101880002C939FBF06C08FB7F894E8812E2B288336
:101890008FBFDF91CF9108953FB7F8948091E70211
:1018A0009091E802A091E902B091EA0226B5A89BC6
:1018B00005C02F3F19F00196A11DB11D3FBFBA2FE2
:1018C000A92F982F8827820F911DA11DB11DBC0142
:1018D000CD0142E0660F771F881F991F4A95D1F707
:1018E00008951F920F920FB60F9211242F933F93DA
:1018F0008F939F93AF93BF938091BF019091C0014D
:10190000A091C101B091C2013091E60223E0230F02
:101910002D3720F40196A11DB11D05C026E8230F27
:101920000296A11DB11D2093E6028093BF01909302
:10193000C001A093C101B093C2018091E7029091D0
:10194000E802A091E902B091EA020196A11DB11D41
:101950008093E7029093E802A093E902B093EA0231
:10196000BF91AF919F918F913F912F910F900FBE9B
:101970000F901F901895CF93DF93CDB7DEB7609788
:101980000FB6F894DEBF0FBECDBF789484B58260E9
:1019900084BD84B5816084BD85B5826085BD85B513
:1019A000816085BD80916E00816080936E00109291
:1019B000810080918100826080938100809181000C
:1019C000816080938100809180008160809380009D
:1019D0008091B10084608093B1008091B0008160FB
:1019E0008093B00080917A00846080937A00809127
:1019F0007A00826080937A0080917A00816080937F
:101A00007A0080917A00806880937A001092C100F9
:101A1000E091D301F091D40182E08083E091CF0185
:101A2000F091D0011082E091D101F091D20180E1DA
:101A300080831092DB01E091D701F091D80186E01C
:101A40008083E091D501F091D6018081806180830F
:101A5000E091D501F091D601808188608083E0918A
:101A6000D501F091D601808180688083E091D50115
:101A7000F091D60180818F7D808382E390E0A0E0A9
:101A8000B0E08093C7019093C801A093C901B093BF
:101A9000CA0162E08AE00E94100C83E2282ECE0187
:101AA00001962C0196E0392E2FB7F8948091BF0152
:101AB0009091C001A091C101B091C2012FBF80934C
:101AC000B3019093B401A093B501B093B601009116
:101AD000B2021091B3022091B4023091B50240914C
:101AE000AE025091AF026091B0027091B102041742
:101AF00015072607370721F021E02093B20102C025
:101B00001092B2014091AE015091AF016091B001CD
:101B10007091B101841B950BA60BB70B883E9340C7
:101B2000A105B1050CF45CC18091B201811158C1CD
:101B30008AE899EAA6ECBFE4809396019093970116
:101B4000A0939801B093990110929A011092950177
:101B5000109294011092A3011092A4011092A50179
:101B60001092A6011092930110929201109280009F
:101B7000109281001092850010928400A0E4BCE9CC
:101B8000B0938900A0938800B1E4B093810026BA95
:101B900020926F0080919A01813069F0D8F38230F1
:101BA00009F061C08EE391E00E94920888E491E020
:101BB0000E94920858C06091A3017091A401809185
:101BC000A5019091A601C0909F01D090A001E09046
:101BD000A101F090A20180909B0190909C01A090A7
:101BE0009D01B0909E010E94F1146D877E878F87C2
:101BF000988BC701B601681979098A099B090E9467
:101C0000F1149B01AC016D857E858F8598890E94BA
:101C1000D1166B017C019B01AC010E9452152DE392
:101C20003AE047EB5FEB0E9452154B015C012CE55B
:101C30003FE846E553E4C701B6010E9452159B01F7
:101C4000AC01C501B4010E94651623E333E349E802
:101C500052E40E9464166093AA017093AB018093D2
:101C6000AC019093AD01C090AA01D090AB01E0907F
:101C7000AC01F090AD01A7019601C701B6010E9429
:101C8000C417882319F08BE491E01AC0460157016C
:101C9000E894B7F82FEF3FEF4FE75FE7C501B401D6
:101CA0000E94C41781110FC02FEF3FEF4FE75FE78E
:101CB000C501B4010E94EC1418162CF48FE491E0D5
:101CC0000E94920876C02FEF3FEF4FE75FE4C70115
:101CD000B6010E94791718161CF483E591E0F0CF45
:101CE0002FEF3FEF4FE75FECC701B6010E94EC1406
:101CF00087FDF3CF20E030E0A901C701B6010E94C3
:101D0000EC1487FF09C06DE283EC91E00E94520160
:101D1000F7FAF094F7F8F0942AE037ED43EA5BE342
:101D2000C701B6010E9465164B015C010E944A176B
:101D30006B017C010E94F1149B01AC01C501B4014F
:101D40000E9464164B015C014AE0C701B6010E9483
:101D5000DF096EE283EC91E00E94520120E030E066
:101D600040E251E4C501B4010E9452154B015C01EF
:101D70000E944A176B01E12CF12C4AE0C701B60121
:101D80000E94DF09C701B6010E94F1149B01AC015A
:101D9000C501B4010E94641620E030E040E251E445
:101DA0000E9452150E944A1780E090E04AE00E948B
:101DB000DF0988E491E00E9492082FB7F89480919F
:101DC000BF019091C001A091C101B091C2012FBF8C
:101DD0008093AE019093AF01A093B001B093B10195
:101DE00083EC91E00E941A01892B09F4FBC1C20126
:101DF0000E94F8070E94A10B97FD1DC08A30910533
:101E0000D1F08F8318860D811E810F5F1F4FB8019F
:101E1000C2010E943F04882369F329813A818D81A0
:101E20009E81BE01695F7F4F820F931F0E942E1A11
:101E30001E830D83DFCFB2018CE992E00E9405047E
:101E400089819A810E94BD1818861F821A86198678
:101E50001C861B8660919C0270919D026115710524
:101E600041F04091A0025091A102CE0107960E943C
:101E70006604A12CB12CE12CF12C4501CB84DC842F
:101E8000AC14BD0478F46F8078846AE370E0C30119
:101E90008A0D9B1D0E941A1A009721F08C010619C9
:101EA000170902C00FEF1FEFC501019680179107B8
:101EB0000CF043C068010A151B0510F065014801CC
:101EC000C2010E94F807AB84BC84CA14DB04B8F4D6
:101ED0008A149B0408F45401EF81F885EA0DFB1D78
:101EE000908010826F8178856C0D7D1DC2010E94EB
:101EF000A4088F819885FC01EA0DFB1D90823E9C11
:101F0000C0013F9C900D1124805A9D4F48165906E0
:101F100019F0B2010E94050489819A810E94BD18BE
:101F20002FEFE21AF20A86E0E816F1040CF046C040
:101F300058019FEFA91AB90AA0CF17FF9ECFA6E0BC
:101F4000EA16F104DCF5CA14DB0428F09C2D8D2D73
:101F50006501892E982EC2010E94F8070B851C8509
:101F6000C016D106B8F48016910608F48401EF81FA
:101F7000F885E00FF11FB08010826F8178856C0DBD
:101F80007D1DC2010E94A4088F819885FC01E00F8D
:101F9000F11FB0823E9CC0013F9C900D1124805ADD
:101FA0009D4F4816590619F0B2010E940504898117
:101FB0009A810E94BD18BFEFEB1AFB0AF092A901AB
:101FC000E092A8018F8198850E94BD1887E591E075
:101FD0000E94810B882311F1EA94EF28F9F48EE82E
:101FE00091E00E9492080E94200A6C01990FEE086D
:101FF000FF08F7FEFCC06DE283EC91E00E94520105
:1020000066277727CB016C197D098E099F094AE065
:102010000E94DF0988E491E00E9492088AE591E03D
:102020000E94810B882309F458C08091A8019091E7
:10203000A901049709F051C0DEC01092AE021092BF
:10204000AF021092B0021092B1021092B20210923E
:10205000B3021092B4021092B5021092D6021092FE
:10206000D7021092D8021092D9021092C602109292
:10207000C7021092C8021092C9021092B6021092C2
:10208000B7021092B8021092B902C0900801D09025
:102090000901E0900A01F0900B01C701B6010E940E
:1020A000D00AC701B6010E94440AC0900401D09032
:1020B0000501E0900601F090070120E030E0A90161
:1020C000C701B6010E94EC14882321F0C701B601B4
:1020D0000E94050891E09093A7018EE591E00E948F
:1020E000810B882319F18091A8019091A901029791
:1020F000E9F48091660290916702009709F48AC121
:102100000E9441136B017C018091A701882309F48F
:102110007CC18091B20181110E947109B601DD0C70
:10212000880B990B0E9453090E94C50883E791E030
:102130000E94810B882321F18091A8019091A9012F
:102140000297F1F48091660290916702009709F47A
:1021500079C10E9441132091A701222309F469C18A
:102160002091B2016B01770FEE08FF08211156C1D3
:10217000C701B6010E9453090E94C5088111FCCF16
:1021800086E891E00E94810B882339F08091A801B4
:102190009091A901029709F459C18AE891E00E943F
:1021A000810B8823F9F08091A8019091A9010297F1
:1021B000C9F486E692E00E94FA036B017C01609309
:1021C000040170930501809306019093070120E0BC
:1021D00030E0A9010E94EC14882321F0C701B60168
:1021E0000E9405080E94C5080E94C1015DCC4AE01A
:1021F000C701B6010DCF82E792E00E94FA036D8716
:102200007E878F87988B8CE692E00E94FA036B01A1
:102210007C018091660290916702009709F4F1C0F9
:102220000E9441138B018091B20181110E947109BA
:102230006D857E858F8598890E94D00A20E030E0E8
:10224000A901C701B6010E94EC14882321F0C7013F
:10225000B6010E9405080E94200A892BF1F08090A7
:10226000000190900101A0900201B0900301C5010E
:10227000B4010E9453098FEF881A980AA80AB80A75
:102280008092000190920101A0920201B09203019C
:102290000E94C5080E944A0BDECF1092AE02109237
:1022A000AF021092B0021092B1021092B2021092DC
:1022B000B3021092B4021092B5021092D60210929C
:1022C000D7021092D8021092D9021092C602109230
:1022D000C7021092C8021092C9021092B602109260
:1022E000B7021092B8021092B9026D857E858F8573
:1022F00098890E94D00A20E030E0A901C701B60108
:102300000E94EC14882321F0C701B6010E94050841
:1023100081E090E0A0E0B0E08093000190930101A3
:10232000A0930201B09303010E94200A892B11F5AA
:10233000609100017091010180910201909103016F
:102340000E9453090E94C5088091000190910101EB
:10235000A0910201B09103010197A109B1098093F5
:10236000000190930101A0930201B09303010E9428
:102370004A0BDACF1092AE021092AF021092B00266
:102380001092B1021092B2021092B3021092B402F3
:102390001092B5021092D6021092D7021092D80273
:1023A0001092D9021092C6021092C7021092C8026F
:1023B0001092C9021092B6021092B7021092B8029F
:1023C0001092B902B801110F880B990B0E945309A2
:1023D0004091B2025091B3026091B4027091B50283
:1023E0008091AE029091AF02A091B002B091B10283
:1023F000481759076A077B0709F41FCE0E94C508D2
:10240000E7CF60E070E0CB010DCF83E691E00E9462
:1024100092088CCEC12CD12C760176CE0E94710907
:10242000C701B6010E9453090E94C5088111FCCF63
:10243000A7CE87E791E00E94920888E491E00E948D
:1024400092089ECE60E070E0CB0185CE86E692E0F9
:102450000E94FA036B017C016093080170930901EB
:1024600080930A0190930B010E94D00AC701B60124
:102470000E94440A92CECF93DF93CCE9D2E0269714
:10248000888199810E94BD1882E0C036D807B9F7CB
:1024900080919C0290919D02DF91CF910C94BD1888
:1024A000CF93DF931092C6011092C50188EE93E09E
:1024B000A0E0B0E08093C7019093C801A093C90148
:1024C000B093CA0186E191E09093C4018093C30167
:1024D00085EC90E09093D0018093CF0184EC90E064
:1024E0009093D2018093D10180EC90E09093D4013D
:1024F0008093D30181EC90E09093D6018093D50135
:1025000082EC90E09093D8018093D70186EC90E024
:102510009093DA018093D9011092DC011092DD01D1
:102520001092DE011092DF0188E291E09093A30205
:102530008093A20281E08093A5021092AE021092D5
:10254000AF021092B0021092B1021092B202109239
:10255000B3021092B4021092B5021092B602109219
:10256000B7021092B8021092B90280E090E0A0E8A1
:10257000BFE38093BA029093BB02A093BC02B093D6
:10258000BD021092BE021092BF021092C0021092C1
:10259000C1028093C2029093C302A093C402B0937D
:1025A000C5021092C6021092C7021092C802109281
:1025B000C90221E030E03093CF022093CE022FEF0A
:1025C0002093D1021092CA021092CB021092CC0238
:1025D0001092CD022BE02093A6022CE02093A702BC
:1025E00024E02093A80225E02093A9021092D002B3
:1025F0001092D6021092D7021092D8021092D902ED
:102600001092DA021092DB021092DC021092DD02CC
:102610001092DE021092DF021092E0021092E102AC
:102620008093E2029093E302A093E402B093E50268
:102630001092A4021092AA021092AB021092AC0265
:102640001092AD0282EA92E00E94A80360E070E07E
:1026500080E89FE30E9405088CE992E00E94F80759
:10266000C0E6D2E0CE010E94F807269682E0CC397F
:10267000D807C1F7DF91CF910895662777270C948B
:102680007D131F93FC0199278827BC01E8941191C1
:102690001032E9F3193010F01E30C8F31B3251F03C
:1026A0001D3249F4689406C00E946813610F711DC1
:1026B000811D911D119110531A30B0F33EF4909585
:1026C0008095709561957F4F8F4F9F4F1F91089513
:1026D000592F482F372F262F660F771F881F991FD6
:1026E000660F771F881F991F620F731F841F951F26
:1026F000660F771F881F991F0895A0E0B0E0E3E8F8
:10270000F3E10C942416EC016B016115710519F0CD
:10271000FB01918380837E01FFEFEF1AFF0A08819E
:10272000802F90E00E94CB14892B11F0E701F3CFAA
:102730000D3239F47E0182E0E80EF11C098111E0CE
:1027400008C00B3229F47E0192E0E90EF11C0981E8
:1027500010E0E701219743E050E060E970E0CE012E
:102760000E94D414892BC1F4239645E050E06BE815
:1027700070E0CE010E94D414892B09F42596C1146F
:10278000D10419F0F601D183C0831111F6C060E0C5
:1027900070E080E89FE7FAC043E050E068E870E04E
:1027A000CE010E94D414892B59F4C114D10409F428
:1027B000E9C0F2E0EF0EF11CF601F182E082E2C026
:1027C00020E030E0A901C0E0D0E0F70180EDA82EC4
:1027D000A00E89E08A1530F1912F9260B92E812FD9
:1027E000887012FF04C0811124C0219622C081117B
:1027F0002197A5E0B0E00E941316DC01CB01880F01
:10280000991FAA1FBB1F9C01AD012A0D311D411D3F
:10281000511D283989E93807480789E1580748F0E8
:10282000166006C09EEFA9120AC013FD40C01860D2
:10283000B12E8FEFE81AF80A00811B2DC6CF802F2A
:102840008F7D8534A1F580818D3211F4106106C031
:102850008B3221F0319661E070E004C081813296C4
:1028600062E070E080538A3018F0E61BF70B1FC05F
:1028700060E070E060389CE079075CF4DB01AA0F4F
:10288000BB1FAA0FBB1F6A0F7B1F660F771F680F46
:10289000711D3196DF0111978C9180538A3050F36E
:1028A00014FF03C0719561957109C60FD71F11FF01
:1028B00008C0C114D10429F0CF010197F60191831A
:1028C0008083CA01B9010E94F114212F23702330A3
:1028D00019F04B015C0106C04B015C01B7FAB094E2
:1028E000B7F8B09420E030E0A901C501B4010E941E
:1028F000EC14882309F43EC0D7FF06C0D195C195DA
:10290000D10907EA10E002C00FEB10E06801F8E11E
:10291000CF1AD10890E2E92EF12CCE15DF0574F024
:10292000F8012591359145915491C501B4010E945A
:1029300052154B015C01CE19DF09EFCF045011098C
:10294000F594E7940C151D0541F78A2D880F8B2D02
:10295000881F8F3F49F020E030E0A901C501B40194
:102960000E94EC14811106C082E290E09093EC0288
:102970008093EB02C501B40109C060E070E080E81B
:102980009FEF04C060E070E080EC9FE7CDB7DEB75A
:10299000ECE00C94401691110C94BF15803219F0A4
:1029A00089508550C8F70895FB01DC014150504023
:1029B00088F08D9181341CF08B350CF4805E65912C
:1029C00061341CF06B350CF4605E861B611171F391
:1029D000990B0895881BFCCF0E942E1508F481E006
:1029E0000895E89409C097FB3EF490958095709502
:1029F00061957F4F8F4F9F4F9923A9F0F92F96E94B
:102A0000BB279395F695879577956795B795F111BF
:102A1000F8CFFAF4BB0F11F460FF1BC06F5F7F4F5C
:102A20008F4F9F4F16C0882311F096E911C077236E
:102A300021F09EE8872F762F05C0662371F096E877
:102A4000862F70E060E02AF09A95660F771F881F46
:102A5000DAF7880F9695879597F90895990F0008EA
:102A6000550FAA0BE0E8FEEF16161706E807F90760
:102A7000C0F012161306E407F50798F0621B730BFB
:102A8000840B950B39F40A2661F0232B242B252B7C
:102A900021F408950A2609F4A140A6958FEF811D1F
:102AA000811D08950E9465150C94D9150E94CB15BF
:102AB00038F00E94D21520F0952311F00C94C21525
:102AC0000C94C81511240C940D160E94EA1570F38D
:102AD000959FC1F3950F50E0551F629FF001729FC3
:102AE000BB27F00DB11D639FAA27F00DB11DAA1FD2
:102AF000649F6627B00DA11D661F829F2227B00D1F
:102B0000A11D621F739FB00DA11D621F839FA00DA9
:102B1000611D221F749F3327A00D611D231F849FF9
:102B2000600D211D822F762F6A2F11249F57504050
:102B30009AF0F1F088234AF0EE0FFF1FBB1F661FCB
:102B4000771F881F91505040A9F79E3F510580F094
:102B50000C94C2150C940D165F3FE4F3983ED4F329
:102B6000869577956795B795F795E7959F5FC1F738
:102B7000FE2B880F911D9695879597F908959927B3
:102B80008827089597F99F6780E870E060E00895CE
:102B90009FEF80EC089500240A9416161706180675
:102BA0000906089500240A94121613061406050651
:102BB0000895092E0394000C11F4882352F0BB0FE2
:102BC00040F4BF2B11F460FF04C06F5F7F4F8F4F45
:102BD0009F4F089557FD9058440F551F59F05F3F80
:102BE00071F04795880F97FB991F61F09F3F79F02F
:102BF00087950895121613061406551FF2CF4695B1
:102C0000F1DF08C0161617061806991FF1CF869532
:102C10007105610508940895E894BB276627772716
:102C2000CB0197F908950E945516A59F900DB49F6A
:102C3000900DA49F800D911D112408952F923F9215
:102C40004F925F926F927F928F929F92AF92BF92BC
:102C5000CF92DF92EF92FF920F931F93CF93DF9368
:102C6000CDB7DEB7CA1BDB0B0FB6F894DEBF0FBEC5
:102C7000CDBF09942A88398848885F846E847D8412
:102C80008C849B84AA84B984C884DF80EE80FD8014
:102C90000C811B81AA81B981CE0FD11D0FB6F8948A
:102CA000DEBF0FBECDBFED010895A29FB001B39F5F
:102CB000C001A39F700D811D1124911DB29F700D45
:102CC000811D1124911D08955058BB27AA270E94E9
:102CD0007C160C94D9150E94CB1538F00E94D215A1
:102CE00020F039F49F3F19F426F40C94C8150EF423
:102CF000E095E7FB0C94C215E92F0E94EA1558F302
:102D0000BA17620773078407950720F079F4A6F5D0
:102D10000C940C160EF4E0950B2EBA2FA02D0B017F
:102D2000B90190010C01CA01A0011124FF27591B10
:102D300099F0593F50F4503E68F11A16F040A22F16
:102D4000232F342F4427585FF3CF46953795279587
:102D5000A795F0405395C9F77EF41F16BA0B620B86
:102D6000730B840BBAF09150A1F0FF0FBB1F661FCD
:102D7000771F881FC2F70EC0BA0F621F731F841F10
:102D800048F4879577956795B795F7959E3F08F036
:102D9000B0CF9395880F08F09927EE0F97958795F8
:102DA00008950E94E5160C94D9150E94D21558F08A
:102DB0000E94CB1540F029F45F3F29F00C94C21516
:102DC00051110C940D160C94C8150E94EA1568F365
:102DD0009923B1F3552391F3951B550BBB27AA27D4
:102DE00062177307840738F09F5F5F4F220F331F0E
:102DF000441FAA1FA9F335D00E2E3AF0E0E832D0D6
:102E000091505040E695001CCAF72BD0FE2F29D0D8
:102E1000660F771F881FBB1F261737074807AB07AA
:102E2000B0E809F0BB0B802DBF01FF2793585F4F1F
:102E30003AF09E3F510578F00C94C2150C940D1693
:102E40005F3FE4F3983ED4F3869577956795B79501
:102E5000F7959F5FC9F7880F911D9695879597F90C
:102E60000895E1E0660F771F881FBB1F6217730785
:102E70008407BA0720F0621B730B840BBA0BEE1F9A
:102E800088F7E09508950E944A176894B1110C9450
:102E90000D1608950E94F21588F09F5798F0B92FEB
:102EA0009927B751B0F0E1F0660F771F881F991F7F
:102EB0001AF0BA95C9F714C0B13091F00E940C16FF
:102EC000B1E008950C940C16672F782F8827B85F0F
:102ED00039F0B93FCCF3869577956795B395D9F7D7
:102EE0003EF490958095709561957F4F8F4F9F4FE1
:102EF00008950E942E1508F48FEF089519F416F422
:102F00000C94C8150C94C9170E94F215B8F39923B4
:102F1000C9F3B6F39F57550B87FF0E94D7170024BC
:102F2000A0E640EA900180585695979528F4805C79
:102F3000660F771F881F20F026173707480730F4E1
:102F4000621B730B840B202931294A2BA6951794F9
:102F50000794202531254A2758F7660F771F881FC9
:102F600020F026173707480730F4620B730B840BE9
:102F7000200D311D411DA09581F7B901842F915875
:102F8000880F9695879508950E942E15880B990BAA
:102F900008959F3F31F0915020F48795779567957C
:102FA000B795880F911D9695879597F9089591503B
:102FB0005040660F771F881FD2F70895A1E21A2E9E
:102FC000AA1BBB1BFD010DC0AA1FBB1FEE1FFF1FCD
:102FD000A217B307E407F50720F0A21BB30BE40B1D
:102FE000F50B661F771F881F991F1A9469F7609564
:102FF0007095809590959B01AC01BD01CF0108951E
:10300000052E97FB1EF400940E94171857FD07D059
:103010000E94DE1707FC03D04EF40C94171850954D
:103020004095309521953F4F4F4F5F4F08959095B4
:103030008095709561957F4F8F4F9F4F0895EE0F4C
:10304000FF1F0590F491E02D09940F931F93CF93E8
:10305000DF938230910510F482E090E0E091EF027E
:10306000F091F00220E030E0A0E0B0E0309719F1FC
:10307000408151810281138148175907C8F0841794
:10308000950769F4109731F012960C9312971396E6
:103090001C9327C00093EF021093F00222C0211569
:1030A000310519F04217530718F49A01BD01EF01D9
:1030B000DF01F801DBCF21153105F9F0281B390BB1
:1030C0002430310580F48A819B816115710521F0DE
:1030D000FB019383828304C09093F0028093EF02FC
:1030E000FE01329644C0FE01E20FF31F81939193DB
:1030F00022503109398328833AC02091ED02309162
:10310000EE02232B41F420910E0130910F013093F8
:10311000EE022093ED0220910C0130910D0121155A
:10312000310541F42DB73EB7409110015091110186
:10313000241B350BE091ED02F091EE02E217F3074C
:10314000A0F42E1B3F0B2817390778F0AC014E5F17
:103150005F4F2417350748F04E0F5F1F5093EE0264
:103160004093ED028193919302C0E0E0F0E0CF0143
:10317000DF91CF911F910F910895CF93DF93009727
:1031800009F481C0FC01329713821282A091EF02F0
:10319000B091F002109781F420813181820F931F4A
:1031A0002091ED023091EE022817390751F5F09386
:1031B000EE02E093ED0267C0ED0120E030E0CE17B3
:1031C000DF0740F44A815B819E0141155105F1F012
:1031D000EA01F5CFD383C28340815181840F951FCB
:1031E000C817D90759F488819981840F951F0296D1
:1031F000918380838A819B8193838283211531050A
:1032000029F4F093F002E093EF023DC0E901FB8363
:10321000EA8349915991C40FD51FEC17FD0761F45A
:1032200080819181840F951F0296E901998388839B
:10323000828193819B838A83E0E0F0E012968D91F6
:103240009C911397009719F0FD01DC01F7CF8D9148
:103250009C9111979D012E5F3F4F820F931F2091EC
:10326000ED023091EE022817390769F4309729F4FE
:103270001092F0021092EF0202C013821282B093F9
:10328000EE02A093ED02DF91CF910895A0E0B0E0AF
:10329000ECE4F9E10C942216EC01009721F4CB0147
:1032A0000E942518B4C0FC01E60FF71F9C012250B4
:1032B0003109E217F30708F4A8C0D9010D911C9158
:1032C000119706171707B0F00530110508F49BC0D9
:1032D000C80104978617970708F495C00250110992
:1032E000061B170B019311936D937C93CF010E94E2
:1032F000BD1889C05B01A01AB10A4C01800E911E55
:10330000A091EF02B091F002612C712CE12CF12C14
:10331000109709F446C08D919C911197A815B90595
:10332000B1F56C0142E0C40ED11CCA14DB0478F183
:103330004C018A189B08640142E0C40ED11C12960D
:10334000BC9012971396AC91B5E0CB16D10440F027
:10335000B282A38391828082D9016D937C9309C04C
:103360000E5F1F4F800F911FF90191838083EB2D1A
:10337000FA2FE114F10431F0D7011396FC93EE9388
:10338000129741C0F093F002E093EF023CC0681640
:10339000790608F43C017D0112960D90BC91A02D98
:1033A000B7CF8091ED029091EE0288169906E1F474
:1033B00066167706C8F480910C0190910D01009774
:1033C00041F48DB79EB74091100150911101841BBB
:1033D000950BE817F907C8F4F093EE02E093ED02BD
:1033E000F901718360830FC0CB010E9425187C0115
:1033F000009759F0A801BE010E94111ACE010E9447
:10340000BD18C70104C0CE0102C080E090E0CDB776
:10341000DEB7EEE00C943E1681E090E0F8940C9458
:10342000351AFB01DC0102C001900D924150504061
:10343000D8F70895FC018191861721F08823D9F7E8
:10344000992708953197CF010895FB01DC018D91F3
:10345000019080190110D9F3990B0895FB01DC014B
:1034600001900D920020E1F7089510E0C0E9D0E04E
:1034700004C0FE010E941F182196C139D107C9F767
:04348000F894FFCFEE
:10348400FFFFFFFF00803B45000096430000F10270
:103494008000000000005201BC00E9009F011A01F5
:1034A400F8000C0100000000DC03A80370032903EA
:1034B4001303DB02BA02860265020F02CB016E6FB0
:1034C4002073656E736F72000D0A006E616E006981
:1034D4006E66006F76660065730063616C006D6FE5
:1034E4007665006E6F742063616C696272617465E5
:1034F400642C00706F73006E6F742063616C69627A
:103504007261746564007370640061636300657361
:023514003A007B
:00000001FF
